:1000000000800020BD010000917500005D750000BA
:100010005D7500005D7500005D7500005D75000098
:100020005D7500005D7500005D7500009175000054
:10003000917500005D750000917500004D75000020
:100040009175000091750000917500009175000098
:100050009175000091750000917500009175000088
:100060009175000091750000917500009175000078
:100070009175000091750000917500009175000068
:100080009175000091750000917500009175000058
:100090009175000091750000917500009175000048
:1000A000F90700009175000091750000917500003E
:1000B0009175000091750000917500009175000028
:1000C0009175000091750000917500009175000018
:1000D0009175000091750000917500009175000008
:1000E00091750000917500009175000091750000F8
:1000F000917500001972000091750000B58700002D
:1001000091750000618C00009175000091750000F0
:1001100091750000917500009175000091750000C7
:1001200091750000917500009175000091750000B7
:1001300091750000917500009175000091750000A7
:100140009175000091750000917500009175000097
:100150009175000091750000917500009175000087
:1001600091750000458F00009175000091750000A9
:100170009175000091750000917500009175000067
:100180009175000091750000917500009175000057
:100190009175000091750000917500009175000047
:1001A0009175000091750000917500009175000037
:1001B000917500009175000091750000564B4CF24E
:1001C000205210B51A804DF628121A8000BF00BFC9
:1001D00007F0E2F9514B4FF010621A60504A9A60F2
:1001E000504ADA60A3F53043203B1A6812F480725B
:1001F00004D14D490A604FF4A8521A604B4B1A784B
:10020000110703D51A7842F008021A70484B2A22C7
:100210001A700023474A48499818884204D247492F
:10022000595899500433F5E7454A464B9A424FF0E6
:10023000000302D242F8043BF7E74349434A5958C6
:1002400099500433B3F5DE7FF7D1414B802103F899
:10025000011B40498B42F9D13F4B1A603F4B0A22A8
:100260001A70A3F5805324225A70A0221A709A792A
:100270009207FCD59A79D406FCD4394B9A7902F0CE
:100280000C02082AF9D103221A7140225A719A7974
:100290009006FCD5324B9A795106FBD5314A32494A
:1002A00011600221516020221A702D4B9B7903F0BE
:1002B0000C030C2BF9D12D4B2D4A1A602D4B2E4AD5
:1002C0001A6000225A60072243F8042C2B4AC3F814
:1002D0000C2D62B607F092FB134B1B68DA0705D5AD
:1002E000274807F00BFB274B274A1A60274B1B7840
:1002F0005B0609D5234C244A2368934204D1204845
:1003000007F0FCFA002323600AF0E8F907F04AF945
:1003100007F0C2FBFEE700BF0E200540308004401E
:10032000823F04000100002B14D0034002D007409C
:1003300000E007406087FF1F5490FF1F581B01001B
:100340005490FF1FC4A5FF1F000000000082FF1F84
:1003500000E400E05FE400E008ED00E0005006404B
:100360000040064044800440000003010480044033
:10037000C010050014E000E0FF760100000020201E
:100380000C36BC541CE00340A5C3945A00F007404F
:10039000FFFFFFFFFFFFFFFFFFFFFFFFFFFFFFFF6D
:1003A000FFFFFFFFFFFFFFFFFFFFFFFFFFFFFFFF5D
:1003B000FFFFFFFFFFFFFFFFFFFFFFFFFFFFFFFF4D
:1003C000FFFFFFFFFFFFFFFFFFFFFFFFFFFFFFFF3D
:1003D000FFFFFFFFFFFFFFFFFFFFFFFFFFFFFFFF2D
:1003E000FFFFFFFFFFFFFFFFFFFFFFFFFFFFFFFF1D
:1003F000FFFFFFFFFFFFFFFFFFFFFFFFFFFFFFFF0D
:10040000FFFFFFFFFFFFFFFFFFFFFFFFFEFFFFFFFD
:1004100010B5054C237833B9044B13B10448AFF33E
:1004200000800123237010BD5490FF1F00000000C6
:10043000581B010008B5064B1BB106480649AFF32F
:1004400000800648036813B1054B03B1984708BD07
:1004500000000000581B01005890FF1F5490FF1F20
:1004600000000000164B1A6842F480521A60154BC7
:10047000154A1A60154ADA6002F180421A61144A7C
:100480001A60144B1B78DA0755BF134A134A4FF40E
:1004900010714FF4007113F0020F11600CBF10497E
:1004A00010495B074FF4007254BF0F4B0F4B0A60AB
:1004B00054BF4FF410724FF400721A60704700BFBF
:1004C0003C80044000C0024001401F000110003881
:1004D00000001F80A0A3FF1F18B0044008C0044004
:1004E0001CB004400CC0044014B0044004C00440DC
:1004F000A0F10903012B0BD900F0FB03022B07D05D
:100500000F2805D0143803288CBF00200120704725
:100510000120704738B505460C46FFF7E9FF60B388
:100520002046FFF7E5FF00B938BD022D01D10A2CA6
:1005300006E00A2D01D1022C02E0062D03D1092C80
:1005400008BF002038BD092D01D1A01F12E0142DD5
:1005500002D1B4F117000DE0172D02D1B4F114004F
:1005600008E0152D02D1B4F1160003E0162D04D1D8
:10057000B4F1150018BF012038BD38BD0238152868
:100580003AD8DFE800F00F393939193939150B3904
:1005900039393933393939391F292D234FF400724C
:1005A000164B02E0164B4FF400721A6001207047A0
:1005B0004FF40072134B02E0134B4FF400721A60B9
:1005C000022070474FF40072104B02E0104B4FF4C2
:1005D00000721A60042070474FF400720D4B02E065
:1005E0000D4B4FF400721A60082070470B4B4FF40C
:1005F00000721A60102070470020704710B004404D
:1006000000C004400CB0044010C0044014C00440BA
:1006100008B0044018C0044004B0044000B00440D6
:10062000044BD878044B1A68C0B2904218BF1860C7
:10063000704700BF006006406487FF1F08B5FFF7E2
:10064000EFFF8307FBD5024B0222DA7008BD00BF23
:1006500000600640094B1B7813B9094B1B782BB17E
:10066000084A1378202B03D9012303710020704717
:10067000581C1070044A0120D1547047EE90FF1F9F
:10068000B190FF1FEF90FF1F9090FF1F7047FFFF7B
:10069000024B1878024B1B78C01A7047ED90FF1F71
:1006A000EC90FF1F064A074913780978994204D94C
:1006B000591C1170044AD05C70474FF0FF307047EE
:1006C000EC90FF1FED90FF1FB290FF1F054B064AF5
:1006D0001B7812789A4286BF044AD05C4FF0FF30F4
:1006E000704700BFEC90FF1FED90FF1FB290FF1FFF
:1006F00070B50E4B1B78144613B90D4B1B7893B194
:100700000C4A1578C5F121039C42164602D90122F4
:1007100002711C4608482246284425440AF0E6FA9D
:100720003570204670BD184670BD00BFEE90FF1FAB
:10073000B190FF1FEF90FF1F9090FF1F10B5114B5E
:10074000DB7803F0200303F0FF045BB9122007F00D
:10075000BDF80D4B1B68A3B10C4A14700C4A1078FD
:10076000984710BD0B4A13780133DBB2012B13708D
:1007700002D8094B1B7823B91220BDE8104007F0BE
:10078000A5B810BD006006408C90FF1FEC90FF1FC5
:10079000ED90FF1FD890FF1FB190FF1F0022027144
:1007A0004FF47A710273024A81600260704700BFA1
:1007B00048BA00000C4B00221A700C4B196841F02B
:1007C000400119600A4B0B499A704FF419720A6084
:1007D00041F8042C27225A7004229A7120225A715F
:1007E00080229A70704700BFB190FF1F3480044090
:1007F000006006400CA0044010B53649CB78DBB24F
:1008000013F0100F03F0400201D12AB92CE01020A0
:10081000C870002AF9D110BD03F0040303F0FF01F2
:100820002D4AC3B1002313702C4A13702C4B1B6844
:10083000144603B1984723782A4A1BB927491370F5
:1008400001200870234BD021997012781A71264B21
:1008500001221A7039E001231370244B19701D4BCB
:10086000C0229A701B7930E01A4CA27802F0100274
:1008700002F0FF01AAB113F001030ED11A49174883
:100880000A780078904203D9531C0B70154B9B5C7F
:100890002371104BD0229A7017E0C023A3702379E4
:1008A00013E0134B032219701220124906F0C8FFFF
:1008B0000E4A217913781F2BC9B206D80648007852
:1008C00018B1581C10700C4AD154024B0222DA7035
:1008D00010BD00BF006006408990FF1FEF90FF1F12
:1008E000D490FF1F9090FF1FF090FF1FED90FF1F0F
:1008F000D890FF1F3D070000B290FF1F044B054A30
:100900004900197001231370034A1370704700BF28
:100910009090FF1FEE90FF1FEF90FF1FF8B52B4B3D
:100920001222DA709A7892060F4601D5B42218E0A6
:10093000274B1C681D46FFF773FE00F0200000F0F7
:10094000FF0350B12B681B1B0F2BF4D91F4B002248
:100950009A7080229A700420F8BD1E4A13701B4BB7
:10096000B0229A70FFF75CFE8306FBD500251A4B78
:100970001B78ECB2A3421FD9184B1A5D134B1A71A6
:10098000FFF74EFE860701D48006F9D40F4E0223EE
:10099000F370FFF745FEC10601D4820603D480231D
:1009A000B370042009E0C30705F10105DFD5002C71
:1009B0000CBF0220032001E0002017B1034B80226E
:1009C0009A70074B00221A70F8BD00BF0060064005
:1009D00058A3FF1FB190FF1FEF90FF1F9090FF1FC4
:1009E000EE90FF1F2DE9F8431446304A1F460023BE
:1009F00013702F4A13702F4B0D461221D97099781E
:100A000011F0200F904601D0B4220BE0FFF708FE52
:100A100000F0200000F0FF020028F7D1264B1A70EA
:100A2000244BB0229A706B0043F00103214DDBB2DE
:100A30002B71FFF703FEFFF7F3FD10F0110004D058
:100A40008023AB700020BDE8F88334B9002F0CBFC1
:100A5000A0238023AB70BDE8F883012C0CBFA82332
:100A6000A023AB702B79DFF858902646012E114D4C
:100A70000BD0013EFFF7E2FDF6B2012E04BFA82322
:100A8000AB702B7909F8013FF0E7FFF7D7FD661E41
:100A9000B023AB70F6B2094B2A799A550FB1802377
:100AA000AB7088F800402046BDE8F883EC90FF1F4B
:100AB000ED90FF1F00600640B190FF1FB290FF1F36
:100AC000B190FF1F0123FFF78DBFC9B2FFF716BF1B
:100AD0000121FFF723BFFFFF0148FFF75FBE00BF03
:100AE000DC90FF1F70470022428002807047FFFFAA
:100AF00070B50A4C0D46204638211646FFF7E5FF33
:100B000029462046FFF7A6FD20463146FFF7A2FD05
:100B10002046BDE87040FFF7DBBF00BFDC90FF1F41
:100B2000F0B5044685B02F480E4638211746FFF72A
:100B3000CCFF00212B48FFF78DFD2A48FFF7C8FFA7
:100B400028483821FFF7C1FF264838212022FFF727
:100B5000B9FF00252348FFF7A5FD0DF80500013575
:100B6000102DF7D11F48FFF7B3FF9DF80230022B7D
:100B700001D8237003E0002323703B803380237867
:100B80005BB39DF803309DF804209DF8061003F038
:100B90000F0342EA03239DF80520638002F00F0053
:100BA000121141EA002162819DF80920E1809DF83F
:100BB0000A1002F00F0241EA0222A2809DF80B20E7
:100BC0009DF80C1002F00F0041EA00211211218162
:100BD000A2813380E3883B8001E03B80338005B015
:100BE000F0BD00BFDC90FF1F13B504460DF10602F7
:100BF000084601A9FFF794FFBDF80630BDF80420B0
:100C00006380204601232280A38002B010BDFFFF35
:100C100038B50F4C0D4620463821FFF756FF2946C0
:100C20002046FFF717FD2046FFF752FF20463821E8
:100C3000FFF74BFF382101222046FFF743FF2046F4
:100C4000FFF730FD05462046FFF742FFE8B238BD0A
:100C5000DC90FF1F38B504460D460C48FFF7AAFD8F
:100C6000204680212A46FFF743FF2046A821FFF7B0
:100C7000CFFF112807D12046A321FFF7C9FF06287F
:100C800001D1012038BD002038BD00BFDC90FF1F1E
:100C900008B50221FFF7BCFF0138C0B201288CBFA4
:100CA0000020012008BDFFFF38B50446094B036052
:100CB0000025406C09F042FD606B65642564A56405
:100CC000E56409F03BFD65632563A563E5632046A4
:100CD00038BD00BF0011010038B5044608460D4676
:100CE0000AF06EFC236802465B6820462946984756
:100CF00038BD38B50446FFF7EFFF0546204607F03C
:100D0000C9F8284438BDFFFF10B54FF4FA6006F06B
:100D10005FFE27492748FFF7DFFF264807F0BAF8AC
:100D200040F2836006F036F81620012106F016FE28
:100D30000121162006F0F2FD1F4801F02FFD1E488C
:100D4000032101F05FFC1C48002101F0EBFC0F20A7
:100D500002F0B2FB20B917481849FFF7CAFFFEE7B7
:100D600017491448FFF7C5FF16482821FFF772FFFF
:100D700020B910481449FFF7BCFFFEE713490D489E
:100D8000FFF7B7FF0C48002101F02EFC104909487D
:100D9000FFF7AFFF382007F04FF9044603F0C4FC1B
:100DA0000C4B0D481C602146BDE8104000F09CB97A
:100DB0006ABA00005CA3FF1FFC90FF1F9DBA0000F1
:100DC000B4BA00006091FF1FCEBA0000FBBA000069
:100DD0001ABB0000F490FF1F2C93FF1F014800F086
:100DE000B9B900BF2C93FF1F1FB50B4C0B48FFF781
:100DF00079FE0B210D220C238DE80E0020460A21DE
:100E00000922002304F014FA0549064A204604B0DA
:100E1000BDE8104009F052BCFC90FF1F6091FF1F1D
:100E2000A90C00006087FF1F10B500234FF07A5215
:100E3000036043608360436103610446C260034909
:100E4000183007F088F90023A36210BD14060100D2
:100E500010B500210446183007F032F92046FFF79C
:100E6000E3FF204610BD10B5006900214FF00104DA
:100E700009F0CCFB08B14FF0000404F0010010BDF4
:100E80002DE9F04706694FF000090446494630460F
:100E900009F0BCFB00284ED1D4F8088027684046F2
:100EA000394609F0B3FB002845D1A56A002D42D090
:100EB000224B186809F0BEF9214909F0C7FA3146FA
:100EC00009F006F94946064609F0AAFB002832D186
:100ED000D4F80CA03046514609F0B6FB20B1C4F856
:100EE0000480C4F8109011E05146304609F0AEFA83
:100EF00039468146404609F0EBF80146484609F07C
:100F0000F1F90146384609F0E5F86060314650468F
:100F100009F0DEF82F6862683E68034621462846DD
:100F2000B0472069002109F071FB20B1A06A036875
:100F300021465B689847BDE8F08700BF58A3FF1FB4
:100F400000007A4410B51831044607F0F1F8204645
:100F500010BD38B5044648B100F5DC75AC4205D08B
:100F6000A5F1140007F06CF82C3DF7E7204638BDDA
:100F700070B50546044600F5DC7620462C34FFF7B4
:100F800067FFB442F9D1284670BD38B50546002444
:100F90002819FFF768FF20B92C34B4F5DC7FF7D1AE
:100FA00038BD012038BD70B50646002435192846E5
:100FB000FFF759FF10B12846FFF762FF2C34B4F554
:100FC000DC7FF3D170BDFFFF10B5054C2046FFF765
:100FD000CFFF20460349044ABDE8104009F06EBB2C
:100FE0007491FF1F530F00006087FF1F704738B5D3
:100FF000044606F02EFF0546204606F04BFF284427
:1010000038BD10B50446023000F0D8FC04F13800B9
:10101000FFF769FD01232370002384F83630236431
:101020006364204610BDFFFFF0B5456C85B00446F3
:10103000002D4DD02748FFF72BFE002838D002AEF8
:1010400024493046FFF7D0FDBDF8083094F836103B
:10105000BDF80A20ADF80820C3F1F0039BB2ADF84B
:101060000A30A1B1218F8A4202D1628F93421AD0F5
:1010700019491A48FFF73DFE2A68A38FADF80030E2
:10108000D76AA36B284696E80600B8470BE01449D8
:101090001248FFF72EFE2B6828465B6A31469847B8
:1010A000012384F8363096E80300A063A1870FE09F
:1010B00094F836304BB10B490848FFF71AFE2B68FD
:1010C00028469B6A04F138019847002384F836309B
:1010D00005B0F0BD6091FF1FAF0401005CA3FF1FCE
:1010E000BB040100C60401007FB50D4C0D46064649
:1010F0000C492046FFF7F0FD20460B49FFF7ECFDB9
:101100002B6868461B692946984769462046FFF7C1
:101110006EFF684606F094FF356404B070BD00BFF2
:101120005CA3FF1F3D050100CF04010002307047A2
:1011300010B5054C2046FFF764FF20460349044ADA
:10114000BDE8104009F0BABA2C93FF1FED0F000064
:101150006087FF1F30B5044685B02C48FFF723FF9A
:10116000236C6BB12A4804F073FA606C10B1036809
:101170005B689847236C6364002323640123237016
:10118000636C002B38D023482349FFF7B2FD237846
:10119000656C23B321491F48FFF7ABFD1C4804F0E1
:1011A00057FA1F491B48FFF797FD1E491948FFF7DB
:1011B00093FD2B6868461B69294698476946154880
:1011C000FFF715FF684606F03BFF2B6828465B6972
:1011D0009847002323700F481349FFF78AFD2046E4
:1011E000FFF722FF2B682846DB689847084804F081
:1011F0007FF8074804F018F90448FFF7C6FE10B955
:10120000102006F0E5FB05B030BD00BF7491FF1F54
:10121000FC90FF1F5CA3FF1F4B0501005A05010056
:10122000D305010065050100E3050100044608B58A
:101230000D480D46FFF75DFD206810B12946FFF708
:1012400058FD0D20012106F089FB01210D2006F03B
:1012500065FBFA2006F0BCFB0D20002106F05EFBCA
:10126000FA2006F0B5FBF0E75CA3FF1FC26808B5E3
:101270000AB9054902E08A4202DC0449FFF7D6FFB9
:10128000436853F8210008BD190701002807010031
:1012900010B5184B1A7802B372B61B78D90707D568
:1012A000154A1649146809682140154C21601160DF
:1012B0009A0707D5134A1149146849682140104C10
:1012C000616011605B0707D50F4B0C4A1968926883
:1012D0000A400B498A601A6062B60C4BDA68824297
:1012E00007D00B4A1A60D8600A4A40F08040186163
:1012F0001A6010BD8890FF1F80E100E07090FF1F12
:101300007C90FF1F84E100E088E100E000C0024023
:1013100001401F0000001F800A4B1B788BB1D907CA
:1013200003D5094A1168094A11609A0703D5064A8C
:101330005168074A11605B0703D5034B9A68054B58
:101340001A6070478890FF1F7C90FF1F00E100E04B
:1013500004E100E008E100E072B60C4B4FF0FF3210
:101360000A49C3F80022002283F8082283F80922E0
:1013700001F6546003F50373834243F8083CEDD350
:1013800043F8082C024B196062B670477893FF1F30
:101390007493FF1F03684BB172B6036893F8082279
:1013A000013A83F8082262B6002303607047FFFF0A
:1013B0002DE9F8432B4B90461A6806460F4699468E
:1013C0000AB9FFF7C9FF306830B1D0F80032BB422C
:1013D00046D03046FFF7DEFF72B6D9F80010002085
:1013E0000B4604460546D3F80022BA4212D13DB15D
:1013F000D3F80422C5F80422C9F80030C3F8041257
:1014000093F80822013283F8082262B63360184646
:10141000BDE8F88393F80822002AD3F8042218BF05
:10142000054608BF1C461AB128461D461346DAE792
:10143000B8F1000F12D08CB13DB1D4F80432C5F828
:101440000432C9F80040C4F80412012384F80832B9
:101450000023C4F8007284F80932346062B6306840
:10146000BDE8F8837493FF1F70B504460D464FF036
:1014700038401646FFF70CFF204629460122FFF7A9
:1014800097FF08B9002410E090F80932DB07044602
:101490000BD42846214600F0E3F80028F2D00EB91C
:1014A000012300E0052384F80932FFF735FF2046C9
:1014B00070BDF8B505460E464FF038401746FFF7A9
:1014C000E7FE284631460022FFF772FF044618B1B6
:1014D00090F80932DA0705D43046394600F0C0F8F2
:1014E000064600E00126FFF717FF8CB194F8093299
:1014F000DB070AD521464FF40072384609F0F6FBA7
:101500002846FFF747FF0120F8BD2846FFF742FFB6
:101510003046F8BD054B4FF00042DA625863DA6A94
:10152000002AFCDA014B986BC0B2704700C0024041
:10153000064B4FF0004240F08050DA625863DA6A9E
:10154000002AFCDA014B986B80B2704700C0024061
:1015500038B50A4B1B6801220C4683F8002105466A
:10156000000AFFF7D7FF200CFFF7E2FFA0B2FFF75A
:10157000DFFFE8B2FFF7CEFF38BD00BFCCA1FF1FF1
:1015800010B50924FF20FFF7C5FF030603D5013C72
:1015900014F0FF04F6D110BD10B54FF6FF70FFF741
:1015A000C7FF04044FF6FF70FFF7C2FF204310BDD2
:1015B00008B5044B1B68012283F88020FF20FFF749
:1015C000A9FF08BDCCA1FF1F10B5002144F2950072
:1015D000FFF7BEFFFFF7D4FF0446FFF7E9FF204601
:1015E00010BD10B544F687004FF4D571FFF7B0FF7A
:1015F000FFF7C6FF012818BF4FF0004402D1FFF7E4
:10160000CBFF0446FFF7D4FF204610BD10B50021E4
:10161000044647F2FF70FFF79BFFFFF7B1FFFFF7AC
:10162000C7FF214646F6FF10FFF792FFFFF7A8FF1E
:101630000446FFF7BDFF204610BD10B547F6FF205A
:101640000021FFF785FFFFF79BFF18B9FFF7A4FF05
:10165000044600E00024FFF7ABFF204610BDFFFF6B
:1016600010B5254A1278012A034698BF43020C465A
:1016700045F2FF101946FFF76BFFFFF781FF28B116
:10168000FFF796FF002010BDFF28F9D1FF20FFF7DC
:1016900041FFFE28F8D1194B194A5A635A630023B7
:1016A000164AD16A11F0F00FFAD015495163926BC6
:1016B000110AE154E1180233B3F5FF7F4A70EFD10C
:1016C0000E4BDA6A12F0F00FFAD09A6B84F8FF2111
:1016D000110A84F8FE11DA6A12F0F00FFBD0074B02
:1016E0009B6B084B1B68012483F88040FF20FFF7A9
:1016F00011FF204610BD00BFD0A1FF1F00C0024057
:10170000FFFF0010CCA1FF1F04307047012380F8B9
:101710002030704790F82000704770477047FFFFF7
:1017200010B50349044606F0CBFC204610BD00BFAF
:101730002008010010B5054B03F10802543304469C
:101740000260436204F0A6F9204610BDC8070100FC
:1017500010B50446FFF7EEFF204606F06FFC20466A
:1017600010BDFFFF08B50448FFF7E0FC0021BDE80D
:10177000084000F046B900BF2C93FF1F08B502498E
:101780000248FFF7B6FA08BD3B0801005CA3FF1F43
:10179000A0F12400FFF7F2BF044608B50D480D463E
:1017A000FFF7A7FA206810B12946FFF7A2FA0D202B
:1017B000012106F0D3F801210D2006F0AFF8FA2040
:1017C00006F006F90D20002106F0A8F8FA2006F030
:1017D000FFF8F0E75CA3FF1F70B582680E46C16892
:1017E000914204460FD14D00002D01DC094907E06C
:1017F0004068C90009F078FB606018B906492046C6
:10180000FFF7CAFFA560E3686268591CE16042F80F
:10181000236070BD650801009A08010008B5043016
:10182000FFF7DAFF08BDFFFF2DE9F04786B0064657
:1018300004F04AF8564B03F108025433002540F2F5
:101840003F194FF0EF0832607362782002950395DC
:10185000CDF81090CDF8148006F0EEFB059B0093B8
:1018600002AC94E80E00824603F05AF9204649493A
:1018700006F026FC21460AF1680006F051FC2046DD
:1018800006F0DEFBDAF800304349DB6B371D5046CB
:10189000984751463846FFF79FFF4FF4A0737820D2
:1018A00002930395CDF81090CDF8148006F0C4FB98
:1018B000059B009394E80E00824603F031F9204620
:1018C000364906F0FDFB21460AF1680006F028FCC7
:1018D000204606F0B5FBDAF800303149DB6B5046A4
:1018E000984751463846FFF777FF4FF4207378202A
:1018F00002930395CDF81090CDF8148006F09CFB70
:10190000059B009394E80E00824603F009F92046F7
:10191000244906F0D5FB21460AF1680006F000FCD8
:10192000204606F08DFBDAF800301F49DB6B50468D
:10193000984751463846FFF74FFF4FF470737820B1
:1019400002930395CDF81090CDF8148006F074FB47
:10195000059B009394E80E00054603F0E1F820464D
:10196000124906F0ADFB214605F1680006F0D8FBF0
:10197000204606F065FB2B680D49DB6B284698472F
:1019800038462946FFF728FF304606B0BDE8F08705
:10199000C8070100C608010061BA0000D8080100AC
:1019A000E1080100E9080100FC0801000809010044
:1019B0001309010004F0DCB803F04EBF0A4B03F139
:1019C000280130B50A46044653F8045B44F8045B2A
:1019D0008B42F9D1136883625368C362138903860B
:1019E0004EF27D73438630BD1C09010030F81100B2
:1019F0007047053130F8110070470A3130F8110096
:101A00007047408E7047FFFF034B1B7802389840A9
:101A1000024B1B6818447047E8A1FF1FE4A1FF1F99
:101A200010B50B7903718B6883600B7B03730B69B3
:101A300003614B6943618B698361CB69C3610B6A45
:101A4000036291F8243080F8243091F8253080F832
:101A5000253000F1260201F12603323153F8044B00
:101A600042F8044B8B42F9D11B78137010BD10B5AE
:101A700000230361CA6942618C8A4A8B42EA0442AC
:101A80008261C261CA7A12F0100F0CBF1A4602229C
:101A900080F825202630CA5C202A04D00133082B88
:101AA00000F8012BF7D10B7A202B11D02E230370D5
:101AB0000B7A43704B7A202B02D10230093102E0BD
:101AC00083700A3103300B78202B1CBF0370013068
:101AD0000023037010BDFFFF2DE9F04F0B7887B096
:101AE00004469046002B00F0948003AB994611F811
:101AF000015B0DB12F2D07D10DF11702934213D2C7
:101B0000202203F8012BF7E72E2D16D07E2D07D8C3
:101B1000A5F16102192A9CBF203DEDB21D70013371
:101B20000DF117029342E2D394F82530032B0BD129
:101B30006369A5694FEA532B13E005AA9342EFD2DC
:101B4000202203F8012BF8E7022B62D1A069E061A3
:101B5000FFF75AFF314B1B784FF0010B05460BFA8C
:101B600003FB00274FF0010A5F4544D206AE4FF059
:101B7000000C46F810CD624630462946CDF800C02C
:101B8000FFF772FCDDF800C080B3034618464946F3
:101B90000B220193CDF800C009F074F8019BDDF829
:101BA00000C028B940461946FFF761FF01241EE036
:101BB0001A78BAF1000F06D00AB1E52A06D1C8F8A2
:101BC000205088F824C08AB14FF0000A22690CF135
:101BD000010C2032BCF1100F226103F12003D5D19A
:101BE00030460135FFF7D6FB0137BDE7002430460C
:101BF000FFF7D0FB0EE094F82530032B09D02046E8
:101C000000F076F828B1E069FFF7FEFE00270546F0
:101C1000AAE70024204607B0BDE8F08FE8A1FF1F27
:101C200030B59BB00C46054600F0BCF82E4B1A7937
:101C30008DF804209A6802921A7B8DF80C202B4AAA
:101C400000921A6904925A6905929A690692DA69B1
:101C500007921A6A089293F824208DF8242093F8AA
:101C600025208DF825200DF1260103F126023233BF
:101C700052F8040B41F8040B9A42F9D113780B7017
:101C800023782F2B01D10134FAE723B9284669467E
:101C9000FFF7C6FE21E00DA800F084F86846214653
:101CA0000DAAFFF719FF631C1C4613F8012B2F2AFE
:101CB00002D0002AF8D108E060B168460DA9FFF70C
:101CC000AFFE0DA800F07EF8DAE718B128460DA99E
:101CD000FFF7A6FE0DA800F075F8684600F072F850
:101CE00028461BB030BD00BFECA1FF1F5809010002
:101CF00073B502AC002344F8043D164BC56919685E
:101D0000154B1B78102B064620460BD101EB1521F5
:101D10000122FFF7A9FB08B9002515E0EDB230F864
:101D200015300AE001EBD5110122FFF79DFB0028D9
:101D3000F2D005F07F0550F82530084AF3611568A8
:101D4000AB428CBF002501252046FFF723FB284628
:101D500002B070BD20A2FF1F24A2FF1F28A2FF1FF8
:101D600013B502AB026803F8011D5468194601223D
:101D7000A04702B010BD90F82530012B1CBF0123F5
:101D8000037100207047704790F82530012B06D86A
:101D900042690369D01A48BF6FF0004070470020C5
:101DA0007047FFFF4FF47A7181600549016000229E
:101DB00004210271027380F8251080F826207047F4
:101DC00058090100044A0260042280F825200022FC
:101DD00080F82620704700BF580901002DE9F74F11
:101DE00090F82530012B04468A4600F29D80016957
:101DF00043695B1A9A4234BF16461E46002E00F015
:101E00009180DFF834B1C7699BF800204FF00109D9
:101E100002F10908023F974009FA08F8454A08F11B
:101E2000FF3808EA010811680F4407EB5827C8F388
:101E300008080022B8F1000F31D001A839460192FC
:101E4000FFF712FB00B3C8F50075AE4200EB0801C6
:101E5000504605D2324608F049FF2369334437E043
:101E60002A4608F043FF22692A44226101A8FFF7AD
:101E700091FA9BF8003009FA03F9013709F1FF39AB
:101E800017EA090F07D101E005463DE02046FFF7BC
:101E90002FFF002849D0B54247D2AA4400E045466A
:101EA000C5EB0609A846C5EB0A030022B9F5007F79
:101EB00003EB080B019201A839460CD2FFF7D4FAC4
:101EC000014660B158464A4608F010FF23694B446A
:101ED0002361354618E05A46FFF7EBFA08B9454644
:101EE00012E0236903F50073236101A8FFF752FA9A
:101EF000114A1378012202FA03F30137013B1F4212
:101F000008F5007808D103E001A8FFF743FA0CE0D8
:101F10002046FFF7EDFE18B1B045A9F50079C2D310
:101F2000454602E0354600E00025284603B0BDE8FE
:101F3000F08F00BFE4A1FF1FE8A1FF1F07B501223A
:101F40000DF10701FFF74AFF01280CBF9DF80700BC
:101F50004FF0FF3003B05DF804FB73B501220DF1C3
:101F6000070104460669C569FFF738FF012805BF68
:101F70009DF8070026614FF0FF30E56102B070BDAB
:101F8000F8B590F82530012B04460E461CD843695D
:101F9000994219D80D4B02691B78C769093321FA98
:101FA00003F522FA03F3EB1A46BF8369C3611D46AA
:101FB0003DB12046FFF79CFE08B9E761F8BD013D41
:101FC000F6E726610120F8BD0020F8BDE8A1FF1F5B
:101FD00010B5034B0360044603F0B8FB204610BD68
:101FE0007809010010B50446FFF7F2FF204606F01D
:101FF00025F8204610BDFFFF84B07FB509AC84E80A
:102000000E000C9B009394E80E00054604AC03F010
:10201000B1FB0D4B2B604FF6FF7324F8023D2846B1
:10202000214601F0AFFD002628462146ADF80E609E
:1020300001F068FD2846314601F069FD284604B0EC
:10204000BDE8704004B0704778090100044B054AB0
:102050001A60054B054A1A60054B064A1A6070471C
:10206000D4A1FF1F90090100DCA1FF1F100A01008D
:10207000D8A1FF1FD0090100704770B506460020A7
:10208000CB080124F55C01F00703C3F10803934278
:1020900009D89C40013C98402540D21A45EA0000EE
:1020A0001944EDD170BD9B1A904004FA02F21D4113
:1020B000013A1540284370BD10B51446FFF7DDFF07
:1020C000621E012303FA02F210421CBF03FA04F459
:1020D000C4EB000010BD2DE9F84FDDF82C9006464A
:1020E00092469B460F46C9B14C465546D846013DDF
:1020F0000123AB401F420BD00A9A33684A44121B9B
:10210000D3F808C0F38930460FFA88F112B2E047DD
:1021100008F10108002DEAD1013CE6D1BDE8F88FB5
:10212000054AD36A13F0F00F03F4704318BF926BA3
:10213000B3F5405FF4D8704700C0024038B504469C
:1021400008460D4609F03CFA236802465B682046C3
:102150002946984738BDFFFF002AF0B50CBF4FF065
:1021600064524FF0605200240F4E104FA65B104D8A
:1021700097FBF6F6B14255F8145004D3190706D56B
:1021800042F0806203E002342E2CEDD1F6E75B07CB
:1021900007D525F4704305F4704542F0007243EA18
:1021A00015152A430260F0BDB4B90000006CDC02D2
:1021B000E4B9000010B50446FFF7CEFF204610BD7D
:1021C0002DE9F3410F1E04461646984672DBB0F91E
:1021D0000630BB426EDD002A6CDBB0F9083093425A
:1021E00068DD3649364D0023012201A8FFF7E2FFE2
:1021F0000198FFF74DF894F82020120442F00042B5
:1022000042F02A026A63FFF78BFFE37FBFB247EA1F
:10221000034343F010436B63FFF782FFE37F47EA1A
:10222000034747F010476F63FFF77AFF94F82020C9
:10223000120442F0004242F02B026A63FFF770FF83
:10224000E37FB6B246EA034343F010436B63FFF704
:1022500067FFE37F46EA034646F010466E63FFF7EA
:102260005FFF94F82020120442F0004242F02C025A
:102270006A63FFF755FFE37F286848EA034848F0A0
:10228000C0536B630E4AD16A11F0805F134604D1CC
:1022900011F0F00F18BF936BF4E74FF08052DA6241
:1022A0001860DA6A12F0F00F02D0054A926BF8E774
:1022B000FFF732F802B0BDE8F08100BF80C3C9016A
:1022C00000C002402DE9F3471E46C388BDF82870C0
:1022D00090461AB2914204460D4680F28D80B0F9C4
:1022E0000810414540F38880A9199142C8BFC5EB49
:1022F000030643494FF001024FF0000301A8C8BF95
:1023000036B2FFF757FF0198FEF7C2FF94F820306E
:102310001B041FFA85F943F000433A4D43F02A03AA
:102320006B63FFF7FDFEE37F09F1FF3A49EA0349DA
:1023300049F010436B63B6B2FFF7F2FEB244E37F9D
:102340001FFA8AFA4AEA034A4AF010436B63FFF71E
:10235000E7FE94F820301B0443F0004343F02B03C6
:102360006B63FFF7DDFEE37F1FFA88F848EA03435B
:1023700043F010436B63FFF7D3FEE37F48EA034863
:1023800048F010436B63FFF7CBFE94F820301B043A
:1023900043F0004343F02C036B63FFF7C1FE33B2FD
:1023A000012BE27F174B09DD47EA024242F010425F
:1023B0005A63013EFFF7B4FEB6B2F0E747EA0242C5
:1023C00042F0C05218685A630E4AD16A11F0805F19
:1023D000134604D111F0F00F18BF936BF4E74FF0E0
:1023E0008052DA621860DA6A12F0F00F02D0054A01
:1023F000926BF8E7FEF790FF02B0BDE8F08700BFF0
:1024000080C3C90100C002402DE9F04F9046C28848
:1024100085B0894611B2894504461E46BDF938701B
:10242000BDF83CA080F2B08005892BB2984580F2BF
:10243000AB8009EB06008842C8BFC9EB020608EB77
:102440000702C8BF36B29A42C8BFC8EB050550495B
:102450004FF001024FF0000303A8C8BF2FB2FFF7EF
:10246000A9FE03984B4DFEF713FF94F820301FFA96
:1024700089F91B0409F1FF3243F0004343F02A03BA
:10248000324492B26B630192FFF74AFEE37F49EA5E
:10249000034949F010436B63FFF742FEE37F019A63
:1024A00042EA034242F010426A63FFF739FE94F8B1
:1024B00020301B0443F0004343F02B036B63FFF712
:1024C0002FFEE37F1FFA88F808F1FF3B48EA034834
:1024D00048F010436B63FFF723FEBB44E37F1FFA12
:1024E0008BFB4BEA034B4BF010436B63FFF718FE7B
:1024F00094F820301B0443F0004343F02C036B633B
:10250000FFF70EFE3D46002D3CDD3746012F214BE7
:10251000E27F09DD4AEA024242F010425A63013F7B
:10252000FFF7FEFD3FB2F1E74AEA024242F0C05235
:1025300018685A63174BD96A11F0805F1A4604D1A4
:1025400011F0F00F18BF9B6BF4E74FF08053D3628C
:102550001060D36A13F0F00702D00E4B9B6BF8E7C4
:10256000012D0CD0EB070AD5FEF7D6FE03A80849CB
:1025700001223B46FFF71EFE0398FEF789FE013D50
:102580002DB2C0E7FEF7C8FE05B0BDE8F08F00BF72
:1025900080C3C90100C0024070B503779DF81030B8
:1025A00080F822309DF8143080F823309DF81830E0
:1025B00080F82130F023C3804FF4A0730025094E2A
:1025C000827703814FF6FF72012305710660417720
:1025D000C5744581858183740282C28103758561DA
:1025E00070BD00BFD00A010013B5B0F9082004681F
:1025F000009201910021B0F9063024690A46A047F3
:1026000002B010BD70B590F82030454D1B0443F06A
:102610000043044643F036036B630E46FFF780FD2C
:10262000E37F06F00301E1741B040229286843F0EC
:10263000006335D0032951D0012918D043F0480355
:102640006B63374AD16A11F0805F134604D111F0F1
:10265000F00F18BF936BF4E74FF08052DA62186006
:10266000DA6A12F0F00F34D02D4A926BF8E743F09B
:1026700028036B632A4AD16A11F0805F134604D1A4
:1026800011F0F00F18BF936BF4E74FF08052DA624D
:102690001860DA6A12F0F00F39D0214A926BF8E72D
:1026A00043F088036B631E4AD16A11F0805F1346C2
:1026B00004D111F0F00F18BF936BF4E74FF0805284
:1026C000DA621860DA6A12F0F00F02D0144A926BE4
:1026D000F8E7F023E3804FF4A0731CE043F0E80335
:1026E0006B630F4AD16A11F0805F134604D111F079
:1026F000F00F18BF936BF4E74FF08052DA62186066
:10270000DA6A12F0F00F02D0054A926BF8E74FF444
:10271000A073E380F023238100236381A38170BD34
:1027200000C0024073B50122054600230E4601A8F1
:102730001849194CFFF73EFD0198FEF7A9FD95F8E1
:1027400020301B0443F0004343F037036363FFF77B
:10275000E7FCEB7F206846EA034646F0C056666316
:102760000D4AD16A11F0805F134604D111F0F00FC9
:1027700018BF936BF4E74FF08052DA621860DA6AA0
:1027800012F0F00F02D0044A926BF8E7FEF7C4FD96
:1027900002B070BD80C3C90100C00240F7B590F817
:1027A00022200B2A044602D0072A40F0D98094F850
:1027B000211001F0FB03082B40F0D28094F8230095
:1027C000A0F10D03012B00F2CB800B2A654B03D146
:1027D0001A7822F0010204E0072A03D11A7842F0A5
:1027E00001021A700C2903D11A7822F0020204E0C7
:1027F000082903D11A7842F002021A700D281A78BB
:1028000040F0AB8022F004021A70FDF72BFE607FCF
:10281000A17FFDF77FFE30B3607FFDF7AFFE054679
:10282000E077A07FFDF7AAFE284384F82000207FF0
:10283000FF281CD0012105F091F8207F012105F02F
:102840006DF8052005F0C4F8207F002105F066F83A
:10285000142005F0BDF8207F012105F05FF89620D7
:1028600005F0B6F803E0E07784F8200078E03E4910
:102870003E4D0122002301A8FFF79CFC0198FEF7C2
:1028800007FD297894F82020394B4F1EFFB2B9B1CB
:10289000697841EA024242F000425A63FFF740FC85
:1028A000AE1CF519AE42ECD016F8013BE27F43EACC
:1028B00002422F4B42F000425A63FFF731FCF1E72E
:1028C000120442F0006242F0110218685A63284B69
:1028D000D96A11F0805F1A4604D111F0F00F18BFC9
:1028E0009B6BF4E74FF08053D3621060D36A204DA6
:1028F00013F0F00601D0AB6BF8E7FEF70DFD782082
:1029000005F066F833461849012201A8FFF752FC8A
:102910000198FEF7BDFC94F8203028681B0443F0B2
:10292000006343F029036B63114AD16A11F0805FA1
:10293000134604D111F0F00F18BF936BF4E74FF07A
:102940008052DA621860DA6A12F0F00F02D0084A98
:10295000926BF8E7FEF7E0FC02E042F0040253E776
:1029600003B0F0BDA0A3FF1F80C3C901500A01003E
:1029700000C002402DE9F04F85B01746BDF83C205D
:10298000019204460122994688460023B949BDF9BF
:102990003860B94D03A8FFF70DFC0398FEF778FCEB
:1029A00094F820301B0443F0004343F02A036B6388
:1029B000FFF7B6FBE37F1FFA88F848EA034343F0CA
:1029C00010436B6309F1FF3BFFF7AAFBC344E37FAE
:1029D0001FFA8BFB4BEA034343F010436B63FFF793
:1029E0009FFB94F820301B0443F0004343F02B037B
:1029F0006B63FFF795FBE37FBFB247EA034343F006
:102A000010436B63FFF78CFBE37F47EA034343F01C
:102A100010436B63FFF784FB94F820301B0443F0F2
:102A2000004343F02C036B63FFF77AFBCA46E37F56
:102A3000019A914D42EA034343F010430AF1FF3AF1
:102A40006B630FFA8AFAFFF76BFBBAF1000FEEDC4B
:102A500094F820301B0443F0004343F02A036B63D7
:102A6000FFF75EFBE37F48EA034343F010436B63E9
:102A7000FFF756FBE37F4BEA034343F010436B63DE
:102A8000FFF74EFB94F820301B0443F0004343F063
:102A90002B036B6306F1FF3AFFF742FBBA44E37F77
:102AA0001FFA8AFA4AEA034343F010436B63FFF7C5
:102AB00037FBE37F4AEA034343F010436B63FFF7BE
:102AC0002FFB94F820301B0443F0004343F02C0309
:102AD0006B63FFF725FBE37F019A674D42EA0343EF
:102AE00043F0104309F1FF396B630FFA89F9FFF7DF
:102AF00017FBB9F1000FEEDC94F820301B0443F013
:102B0000004343F02A036B63FFF70AFBE37F48EAC5
:102B1000034343F010436B63FFF702FBE37F48EA94
:102B2000034848F010436B63FFF7FAFA94F820303B
:102B30001B0443F0004343F02B036B63FFF7F0FAF1
:102B4000E37F47EA034343F010436B63FFF7E8FA80
:102B5000E37F4AEA034343F010436B63FFF7E0FA75
:102B600094F820301B0443F0004343F02C036B63C4
:102B7000FFF7D6FAB046E37F019A3F4D42EA03439E
:102B800043F0104308F1FF386B630FFA88F8FFF742
:102B9000C7FAB8F1000FEEDC94F820301B0443F0C4
:102BA000004343F02A036B63FFF7BAFAE37F4BEA73
:102BB000034343F010436B63FFF7B2FAE37F4BEA42
:102BC000034B4BF010436B63FFF7AAFA94F82030E5
:102BD0001B0443F0004343F02B036B63FFF7A0FAA1
:102BE000E37F47EA034747F010476F63FFF798FA20
:102BF000E37F4AEA034A4AF010436B63FFF790FA17
:102C000094F820301B0443F0004343F02C036B6323
:102C1000FFF786FAE37F019A174D42EA034343F038
:102C20001043013E6B6336B2FFF77AFA002EF1DCF7
:102C300094F8203028681B0443F000636B630E4A4D
:102C4000D16A11F0805F134604D111F0F00F18BF64
:102C5000936BF4E74FF08052DA621860DA6A12F090
:102C6000F00F02D0044A926BF8E7FEF755FB05B06F
:102C7000BDE8F08F80C3C90100C002402DE9F04FCC
:102C800004468FB09046B4F90620BDF86000049069
:102C90008A420E46BDF864B09DF8685040F3088241
:102CA000B4F90820424540F30382062212FB0512C4
:102CB000002A40F3FD814FF0080919FB0582002A24
:102CC00040F3F68158450FFA83FA40F03781012D21
:102CD0000AEB8A0A11D0AB00E9189BB209936B008A
:102CE000EA189BB20A92CDF81CA008910B93CDF87C
:102CF000149000224FF0010BBBE01FFA88F707F198
:102D0000080B1FFA8BFBA84600231D468A4A524433
:102D1000D25C18EA020F18BF45F0010501336D00BF
:102D2000052BEDB2F2D16D084FF00009002D62D0F5
:102D30001F2D0AD123680498009009EB0601DD6875
:102D4000204609B23AB205230BE01E2D0BD12368B1
:102D5000049A009209EB0601DD68204609B23AB2F6
:102D60000423A84747E005F01C031C2B12D123685D
:102D7000049800901FFA89F909EB0601D3F80CC0FA
:102D8000204609B23AB203232D01E047EDB209F122
:102D900004092DE005F01803182B12D12368049ABA
:102DA00000921FFA89F909EB0601D3F80CC02046FE
:102DB00009B23AB20223ED00E047EDB209F103098E
:102DC00016E0EA0610D523681FFA89F909EB060117
:102DD000D3F808C0049B204609B23AB2AD00E047E0
:102DE000EDB209F1020903E06D00EDB209F101094C
:102DF0001FFA89F99AE70137BFB24FEA48085F45E1
:102E00005FFA88F880D153E14B4907980144C95CC7
:102E10001BEA010F18BF47F0010701337F00052BA4
:102E2000FFB2F1D192B205FB02897F0806921FFA28
:102E300089F94FF0000A77B11F2F1DD12368049A3A
:102E4000019200950AFB05611F69089B204609B2A3
:102E50000FFA89F2B84705980699431E4FEA4B0BC3
:102E60004A1C9BB25FFA8BFB92B20593002B00F0D9
:102E70001F8100231F46C7E71E2F0CD1236804982B
:102E800001900AFB056100951F69099B204609B264
:102E90000FFA89F2DEE707F01C031C2B14D123681C
:102EA000049A01921FFA8AFA05FB0A610095D3F889
:102EB00010C00A9B204609B20FFA89F23F01E04791
:102EC000FFB20AF1040A33E007F01803182B14D1FB
:102ED0002368049801901FFA8AFA05FB0A6100959D
:102EE000D3F810C00B9B204609B20FFA89F2FF00FD
:102EF000E047FFB20AF1030A1AE0FB0614D5226884
:102F0000049801901FFA8AFA2BB205FB0A6100931C
:102F1000D2F810C0204609B20FFA89F2BF00E0478C
:102F2000FFB20AF1020A03E07F00FFB20AF1010AD0
:102F30001FFA8AFA7FE700BFB4FF00005E495F4FC7
:102F4000012200230DA8FFF735F90D98FEF7A0F92F
:102F500094F82030B6B205EB45021B0406EB4202A2
:102F600043F0004343F02A03013A92B27B6302929A
:102F7000FFF7D6F8E37F46EA034646F010467E6345
:102F8000FFF7CEF8E37F029A42EA034242F0104292
:102F90007A63FFF7C5F894F820301B0443F0004330
:102FA00043F02B037B63FFF7BBF8E37F1FFA88F83E
:102FB00048EA034343F010437B63FFF7B1F808EBA3
:102FC000C503E27F013B9BB243EA024343F0104357
:102FD0007B63FFF7A5F894F820301B0443F000430F
:102FE00043F02C037B63FFF79BF80AEB8A0A4FF050
:102FF00001080027FBB2AB422FD20026304B049AC7
:1030000053449B5D18EA030F08BF5A460023D9B208
:10301000A9420ED2E07F294942EA004040F0104028
:10302000486302920393FFF77BF8039B029A0133F4
:10303000EDE70136052EE1D10026F3B2AB420AD20C
:10304000E27F1E4B4BEA024242F010425A63FFF706
:1030500067F80136F1E70137CCE709F1FF394FEAAC
:1030600048081FFA89F95FFA88F8B9F1000FC0D152
:1030700094F82020114B120442F0006218685A6341
:103080000E4AD16A11F0805F134604D111F0F00F9F
:1030900018BF936BF4E74FF08052DA621860DA6A77
:1030A00012F0F00F02D0054A926BF8E7FEF734F900
:1030B0000FB0BDE8F08F00BF80C3C90100C002405F
:1030C000B4FF00002DE9F04F8569AB7B994287B0D2
:1030D000044606D3EA7B914203D8C91AAB7C594314
:1030E0000EE02A7C9142C0F00F81687C814200F2A0
:1030F0000B81E87B0130C31A19448A1AA97C514319
:10310000AA7C2868FEF7B9FFAE6806443046002165
:103110000322FEF7B2FF0746002840F0F58095F83D
:1031200013A0032152463046FEF7A7FF95F81480FE
:1031300004900AF1030A514642463046FEF79DFFCD
:1031400095F81590C24451464A4683463046FEF7EC
:10315000B3FFCA4495F8169051464A468046304619
:10316000FEF7AAFFCA4495F8179084464A463046AF
:103170005146CDF80CC0FEF780FFB4F90A20DDF807
:103180000CC0002AB8BF6781628908FA82F7002F55
:10319000034603DAC8EB0202628100270499B4F9FE
:1031A00006203944914211DD227D002A00F0AC80D6
:1031B000B8F1000FABBF0022C8F100086281A4F88B
:1031C0000A80297EA2890A44A2810027B4F9081046
:1031D000B4F90C20914240F39780618958186081BE
:1031E00095F819E0208A019002EB0E052068CDF8D1
:1031F00000E0CBEB05051BB2CCEB050509B2D0F81E
:1032000010C02046E047A369B4F90C805B7E984467
:1032100008F1FF38CBEB0808B4F90C30984510DB07
:103220002368228ADDF810E00092D3F80CC00FFA70
:1032300088F2204639B20FFA8EF3E04708F1FF38E2
:10324000EAE7CA44BBF1000F5ED04FEADA036FEA47
:103250000A09F35C09F0070943FA09F919F00109B1
:103260000AF1010821D10498C9EB000ABAF1200F34
:1032700028BF4FF0200A414652463046FEF7FDFE79
:1032800023680095012201920146D3F814C05246EA
:1032900009EB07032046E047049AD1449145D04406
:1032A000E1D301350BF1FF3B2CE0414630460322D0
:1032B000FEF7E3FE023005900AF104084FF0000922
:1032C000049BC9EB030ABAF1200F28BF4FF0200A74
:1032D000414652463046FEF7D0FE2368009501462F
:1032E00005980190D3F814C0524609EB0703204615
:1032F000E047049AD1449145D044E1D3059B1D4455
:10330000C3EB0B0BC2469DE707B0BDE8F08F7FB55E
:10331000856904460B463DB10A2902D10023438149
:103320002FE0FFF7CFFE2CE00A2904D1827C8389AD
:1033300003EBC20323E00D2923D0C689B0F90A109C
:10334000B0F90C200096068A0196867C0296FFF75B
:1033500095FCA37C628903EB430102EB4102217DD2
:1033600092B2628169B1B4F906106FF0050012B231
:1033700000FB03118A4204DDA28902EBC303A3818F
:103380006581012004B070BD002910B506DBC3883B
:103390001CB2A14203DB591E09B200E00021002A41
:1033A000418106DB038919B28A4203DB5A1E12B23D
:1033B00000E00022828110BDC18102827047F8B511
:1033C0000C46897B8A4206D3E37B934203D3521A8D
:1033D000A17C51430CE0237C9A4237D3607C90421D
:1033E00034D3E07BD31A0344A07C591A01FB0001BB
:1033F000A27C2068FEF741FEA5680544284600210E
:103400000322FEF73AFE08BBE77C28463A46032132
:10341000FEF733FE267D0337394632462846FEF74F
:103420002CFE3744667D394632462846FEF744FE78
:103430003744A67D394632462846FEF73DFE2846EB
:10344000B919E27DBDE8F840FEF717BE0020F8BDCF
:103450002DE9F04100240746884616462546B36804
:103460009C420BD22146304604F0D5FE414602462E
:103470003846FFF7A4FF01340544F0E70B490C4838
:10348000FEF75CFE31460A4804F0E3FC09490848AF
:10349000FEF754FE29460A220023054804F00AFDDF
:1034A000034804F0F7FC2846BDE8F081B80A0100A3
:1034B0005CA3FF1FC20A01007B4B2DE9F3417B4D4A
:1034C00053F830302B600124794B21461C7004F0F6
:1034D00045FA2B6883F88040FCF7C4FF4FF0384072
:1034E000FDF7D6FE0522734B4FF00041D9627249B9
:1034F0005963D96A0029FCDA6E4B9B6B531E13F09B
:10350000FF02F0D16D4C2668FEF75EF801280546F3
:103510000AD0FDF701FF23689B1BFA2B18D84FF048
:103520003840FDF7B5FEEFE7FEF75BF8B0F1004F6E
:1035300003D1634B1D7000250CE0B0F5D57F05D19C
:103540005F4B02221A704FF0804503E0FDF7E4FE66
:103550000024A5E027682846FEF758F8064670B113
:10356000FDF7DAFE012EF3D8226840F2DC53D21BBD
:103570009A42EDD84FF03840FDF78AFEEBE7504C09
:103580002378022B05D1FEF758F8800F032808BFD7
:10359000207002AD0024FDF7BFFE45F8044D224621
:1035A00028462146FDF760FFB0F8FE214AF6552374
:1035B0009A4201D0002470E090F8C231062B02D06C
:1035C0000B3B012B01D8D0F8C6412846FDF7E2FE9F
:1035D000214600222846FDF747FFB0F8FE114AF6C3
:1035E000552291420346E5D1B0F80B20B2F5007F99
:1035F000E0D1027C022ADDD1C689002EDAD090F813
:103600000DC0304AC08ABCFA8CFCCCF11F0C82F889
:1036100000C000B9586AB3F811E0B3F813700EF1A6
:103620000F01090907B91F6A274A344414600219B7
:10363000264CBE1B226000EB0108254C711A9044F9
:10364000A1EB4001C4F8008021FA0CF1214C4E1C82
:10365000266040F6F474A142ACD94FF6F474A1424E
:103660001D491E4C08D810230B7010444FEA4E130E
:103670006361A061032306E02022DB6A0A70002256
:10368000A3616261022384F82530A369E3612846BF
:1036900000232361FDF77EFE01242846FDF77AFE14
:1036A000204602B0BDE8F08178180100CCA1FF1FD0
:1036B000D1A1FF1F00C00240FFFF001058A3FF1F51
:1036C000D0A1FF1FE8A1FF1F20A2FF1FE0A1FF1F45
:1036D000E4A1FF1F28A2FF1F24A2FF1FECA1FF1FD0
:1036E00010B5054C2046FEF75DFB20460349044A11
:1036F000BDE8104006F0E2BFECA1FF1FC51D0000B1
:103700006087FF1F81677047A0F87C107047B0F892
:103710007C00704782B010B586B0044608A880E8E7
:103720000C0002A804F004FD0AAB93E803008DE846
:10373000030008A991E80C00204602A900F0ACF8AB
:1037400002A804F07DFC114B114903F1080222602C
:1037500003F1580268336262A36204F1140004F0BA
:10376000FAFC0023A36784F8873084F8863020466B
:1037700000F012F94FF6FF73C4F880002046A4F859
:10378000843006B0BDE8104002B07047F80A01006E
:10379000E80A010038B5044681B9856E02F0A5FD3E
:1037A0002368688720469D6B00F0F6F801462046A6
:1037B000A847A36EB4F874201A871CE001291AD117
:1037C0000368856E5B6C98476887A36EB4F88420A5
:1037D0001A8794F88630012B236805D09B6BD4F8A8
:1037E00080102046984706E020469D6B00F0D4F8F4
:1037F00001462046A847236820465B69984738BDA4
:1038000008B50121FFF7C6FF012008BD90F88630FA
:10381000012B10B5044608D190F88710D1F10101B1
:1038200038BF002180F8871000E00021FFF7B2FFC9
:10383000A06F18B1036821461B689847012010BD8E
:103840000021FFF7A7BF90F887308B4218BF80F8A0
:103850008710704738B504460D4600F011F8D4F8CB
:1038600080300BB9C4F8805038BD10B5044600F064
:103870009BF8204694F88710BDE81040FFF78ABFF8
:1038800008B5036F8B4206D0836E016703B159639D
:1038900003685B69984708BD82B073B50E4606A9F8
:1038A00081E80C00099B00930EC9044602F020FD3C
:1038B000184B03F10802226004F1580503F14C0291
:1038C0005C336262A3622846002104F0F9FB012305
:1038D000314684F86C3084F86D30284604F020FCC2
:1038E0000D4B23670D48FDF721FC0021FEF781F801
:1038F0004FF6FF73A4F87400E38704F1140008493D
:1039000004F029FC00232046A36602B0BDE8704005
:1039100002B07047680B010098FF00002C93FF1F56
:10392000C80B010010B50446583004F0F9FB2368B9
:1039300020465B69984710BD10B590F86C208A420C
:10394000044609D0806E84F86C1008B102F01EFBAA
:10395000236820465B69984710BD08B5B0F87430FD
:103960008B4207D0836EA0F8741003B119870368E7
:103970005B69984708BD10B590F86D208A420446EF
:1039800009D0806E84F86D1008B102F00AFB23683C
:1039900020465B69984710BD006F704702F070BC0D
:1039A00002F018BC02F018BC70B500F12C030446FC
:1039B0000FCB86B002AD85E80F00442004F03CFB3D
:1039C000059B0093064695E80E0002F0BFFAB4F896
:1039D0007430A6663387E38F738704F15803F3636B
:1039E000A36E226F5A63A06E94F86C1002F0CEFAA8
:1039F000A06E94F86D1002F0D4FA2368A16E9B6952
:103A000020469847204606B0BDE8704002F004BD4D
:103A1000002380F828307047044608B50D480D464D
:103A2000FDF767F9206810B12946FDF762F90D200E
:103A3000012103F093FF01210D2003F06FFFFA2015
:103A400003F0C6FF0D20002103F068FFFA2003F009
:103A5000BFFFF0E75CA3FF1F10B5036884680A6826
:103A60001C44A24210DC8C6822449A420CDB43685E
:103A7000C0684A681844824206DCC868104498420C
:103A8000B4BF0020012010BD002010BD0E4B10B5AA
:103A90000021044640F8143B04F012FB0B4B23605A
:103AA000012384F8283000236385A38584F82E3011
:103AB0002363074B1A6801321A60064A136863626F
:103AC000591C1160204610BD58160100800E0100DF
:103AD0005C91FF1F7091FF1F84B070B505AC064666
:103AE00084E80E00FFF7D2FF94E80F00351D85E84B
:103AF0000F00002330463363BDE8704004B07047C8
:103B0000408D70470B8883857047808D704780F8A3
:103B10002E10704790F82E007047036B2BB1D868B9
:103B20000028CCBF00200120704701207047FFFF14
:103B300070B5056B064695B9102004F07DFA044671
:103B40008560C5600560082006F0F0FD606018B96A
:103B500020460449FFF760FF0223A3603463306B03
:103B600070BD00BFD20B01001FB504460449684672
:103B700001F036FB6846211DFFF76EFF04B010BD53
:103B8000FC90FF1F036B70B505460E4613B93388D2
:103B90006B8570BDDB68002BF9DD0024286BC368E2
:103BA0009C42F4DAA1B2FDF761FB3146FFF7EAFF70
:103BB0000134F3E72DE9F0410D4641688D4286B0AE
:103BC000044617461E4637DDC3680B449D4233DA70
:103BD000BAB1A268236902913420691A0392049150
:103BE000059304F029FA059B009302AB80460ECBA7
:103BF000FEF702FA404604F12A01FFF7C3FFC7F8B7
:103C00000080E6B1211D0EC91944491B23690295A4
:103C1000342003920491059304F00EFA059B00935F
:103C200002AB05460ECBFEF7E7F9284604F12A0160
:103C3000FFF7A8FF356002E000233B60336006B069
:103C4000BDE8F0812DE9F0410D4681688D4286B0D6
:103C5000044617461E4638DD03690B449D4234DA9C
:103C6000BAB1E368626803913420691A029204933E
:103C7000059104F0E1F9059B009302AB80460ECB61
:103C8000FEF7BAF9404604F12A01FFF77BFFC7F8B7
:103C90000080EEB12269A168E36803951144491BD5
:103CA0006268029234200493059104F0C5F9059BE3
:103CB000009302AB05460ECBFEF79EF9284604F1B1
:103CC0002A01FFF75FFF356002E000233B603360AD
:103CD00006B0BDE8F081FFFFF0B5036B87B0044686
:103CE0000D464BB3DB68002B26DD0026206BC36836
:103CF0009E4207DAB1B2FDF7B9FA2946FFF7ECFFA9
:103D00000136F3E794F82E30002B48D094F8283091
:103D1000002B44D0B4F910000090A08D0190B4F9AC
:103D20000410B4F90820B4F90C301E48FEF722FE46
:103D3000002384F8283032E06268A668E0682169D0
:103D400003964FF4A07392FBF3F703FB1723029340
:103D5000049005915DB12B6820461E6902F030FA8F
:103D6000C368009390E80E002846B047B8B994F8AD
:103D70002830A3B12046FFF7F7FE58B10A490B4897
:103D8000FCF7B7FF2246204652F8043B02A9DB6845
:103D90009847CDE706490548FCF7ABFFC8E707B0F1
:103DA000F0BD00BFFC90FF1FE50C01005CA3FF1FEE
:103DB000ED0C0100F8B5036B04460F4616468BB1B7
:103DC000DB68002B0EDD0025206BC3689D4208DAFE
:103DD000A9B2FDF74BFA39463246FFF7EBFF013542
:103DE000F2E7F8BD201D3146FFF736FE30B12368FB
:103DF0002046DB68394632469847F8BDF8BD84B0A6
:103E0000F7B509AC84E80E00036B0746A3B10025A3
:103E10000EE0A9B2FDF72AFA0646FFF77EFED0B102
:103E2000304602F0CDF9099A0168914206D0013579
:103E3000386BC3689D42ECDB002019E041680A9AA8
:103E40009142F4D181680B9A9142F0D1C2680C9BE7
:103E50009A42ECD10BE030680C9B0093D0F810C074
:103E600094E80E003046E0470028E0D000E03046FD
:103E700003B0BDE8F04004B07047FFFF38B5124909
:103E800004461248FCF728FF11491048FCF724FFAC
:103E90000E4804F11401FDF7AAF8236B1BB90123A6
:103EA00084F8283038BDDB68002BF8DD0025206B56
:103EB000C3689D42F3DAA9B2FDF7D8F903685B69DC
:103EC00098470135F3E700BF610D01005CA3FF1FB8
:103ED000F90C010038B50D1E044601DC064907E067
:103EE0004068A90007F000F8606018B9034920464F
:103EF000FFF792FDA56038BD650801009A08010032
:103F000038B50D46FFF714FEC16882689142044639
:103F100002D14900FFF7DEFFE3686268591CE160E7
:103F200042F8235038BDFFFFF0B5744E96F82430A8
:103F300085B004460D461BB171487249FCF7D9FEA5
:103F40002046FFF7EAFD96F8243008BB1BB16C4809
:103F50006D49FCF7CEFE96F824301BB168486B49DA
:103F6000FCF7C7FE0027236BDB689F4280F2C3800B
:103F700096F824301BB162486549FCF7BAFEB9B225
:103F8000206BFDF773F92946FFF7CEFF0137EAE70B
:103F90001BB15B485F49FCF7ACFE201D2946FFF7CB
:103FA0005BFD002800F0A78096F824301BB1544830
:103FB0005949FCF79EFE002300930193029303935B
:103FC0002A6863689A4203DDE16819448A4208DB83
:103FD000A9680A449A4245DDE1680B449A4241DAF5
:103FE0001DE096F824301BB145484C49FCF781FE92
:103FF00001AB6A4620462968FFF7DCFD20460099A0
:10400000FFF77EFF20460199FFF77AFF96F82430EC
:104010001BB13B484249FCF76CFE01981EE096F844
:1040200024301BB136483F49FCF763FEAB68296872
:104030006A461944204601ABFFF7BCFD20460099B3
:10404000FFF75EFF20460199FFF75AFF96F82430EC
:104050001BB12B483449FCF74CFE00982946FFF76A
:1040600063FF48E06A68A3689A4203DD2169194446
:104070008A4208DBE9680A449A423CDD21690B4424
:104080009A4238DA1DE096F824301BB11C482749C3
:10409000FCF72FFE03AB02AA20466968FFF7D2FDAA
:1040A00020460299FFF72CFF20460399FFF728FFCF
:1040B00096F824301BB112481D49FCF71AFE0398EC
:1040C000CCE796F824301BB10D481A49FCF711FED5
:1040D000EB68696820461944002203ABFFF7B2FD84
:1040E00020460399FFF70CFF96F824301BB10448D3
:1040F0001149FCF7FEFD05B0F0BD00BFFC90FF1FAD
:104100005CA3FF1F710D0100830D0100A10D0100D3
:10411000B30D0100C10D0100D30D0100E50D01003B
:10412000F70D0100090E01001B0E01002D0E01000C
:104130003F0E0100510E0100630E010038B5036B04
:1041400005465BB938BD013A5968DA6051F822403A
:104150004AB91CB1236820469B6898472B6BDA68E4
:10416000002AF0DC06E09968042091FBF0F082421E
:1041700003DDEEE70022DA6038BD1846022391FB2A
:10418000F3F1FFF7A7FEE4E738B5104B0360104BDF
:104190001A68054601321A60FFF7D0FF2C6B54B144
:1041A000606806F0CBFA002363602360A360E360DD
:1041B000204603F043FF284600232B63054B40F8BD
:1041C000143B03F03DFF284638BD00BF800E0100C0
:1041D000F890FF1F5816010010B50446FFF7D4FFF2
:1041E000204603F02BFF204610BDFFFF84B037B5FB
:1041F00007AC84E80E000A9B009394E80E00054685
:1042000001F0D0FF0448012385F8283003B0BDE851
:10421000304004B000F042BDFC90FF1F7047FFFF2C
:1042200010B50349044603F04BFF204610BD00BF04
:10423000980E010008B50448FCF778FF0021BDE89E
:104240000840FDF7DABB00BF2C93FF1F10B5054BEC
:1042500003F10802543304460260436201F01AFC81
:10426000204610BD580F010010B50446FFF7EEFFC1
:10427000204603F0E3FE204610BDFFFF38B505469B
:104280000C4613481349FCF734FD13481349FCF757
:1042900030FDAB6A9C4202D10F48114910E0EB6A35
:1042A0009C4202D10C480F490AE06B6B9C4202D140
:1042B00009480D4904E02B6B9C4203D106480B4989
:1042C000FCF717FD0A490448FCF713FD38BD00BF91
:1042D0005CA3FF1FB60E010070A3FF1FE30E0100D9
:1042E000E70E0100EE0E0100F60E0100FD0E0100CA
:1042F000050F0100A0F12400FFF7C0BF2DE9F04F2A
:104300008FB0044601F0E0FAB74BB84903F1080258
:1043100054332260636206A8002503F0D1FE4FF0FB
:104320009F0A4FF0770B8820CDF830A0CDF834B03D
:104330000A950B9503F080FE0CAB074693E803004B
:104340008DE803000AAE06A90593384696E80C00EE
:10435000FFF7E0F9A762A64F06A803F071FE384602
:10436000D4F82880FCF7E2FE2946FDF746FBA8F8C2
:1043700040003846D4F82880FCF7D8FE2946FDF7DF
:1043800040FB0146404601F0AEFFD4F82880D8F843
:1043900000303846D3F84090FCF7C8FE2946FDF7B8
:1043A00025FB01464046C8473846D4F82880FCF72C
:1043B000BDFE2946FDF721FB01464046FFF7CDFA39
:1043C000A36A8C4983F84250D4F82880304603F021
:1043D00077FE314608F1140003F0A2FE304603F0E8
:1043E0002FFEA06A036804F1240904F10408DB6BC2
:1043F000494698474046A16AFDF7EEF97E4906A86E
:1044000003F05EFEA02388200A93CDF830A0CDF8FB
:1044100034B00B9503F010FE059B834693E8030030
:104420008DE8030006A996E80C005846FFF772F9DC
:10443000C4F82CB006A803F003FE3846D4F82CB01C
:10444000FCF774FE2946FDF7D8FAABF84000384671
:10445000D4F82CB0FCF76AFE2946FDF7D2FA0146E3
:10446000584601F040FFE36A1A683846D2F840B077
:104470000393FCF75BFE2946FDF7B8FA039B014660
:104480001846D8473846D4F82CB0FCF74FFE2946DA
:10449000FDF7B3FA01465846FFF75FFAE36A57495A
:1044A00083F84250D4F82CB0304603F009FE314670
:1044B0000BF1140003F034FE304603F0C1FDE06A56
:1044C00003684946DB6B98474046E16AFDF784F98B
:1044D0004B4906A803F0F4FD4FF0780B8820CDF887
:1044E0002CB0CDF830A0CDF834B00A9503F0A4FD7F
:1044F000059B844693E803008DE8030006A996E82F
:104500000C006046CDF810C0FFF704F9DDF810C0CC
:10451000C4F834C006A803F093FD636B03933846D8
:10452000FCF704FE2946FDF768FA039BA3F8400058
:10453000636B03933846FCF7F9FD2946FDF761FAF2
:10454000039B0146184601F0CEFE626B13683846A5
:104550001B6C03930492FCF7E9FD2946FDF746FA2C
:10456000049A039B014610469847636B03933846B1
:10457000FCF7DCFD2946FDF740FA039B014618468F
:10458000FFF7EBF9636B1F490393304603F098FD87
:10459000039B314603F1140003F0C2FD304603F0E3
:1045A0004FFD636B83F84250606B03684946DB6BD9
:1045B00098474046616BFDF70FF9134906A803F0D1
:1045C0007FFDA02388200A93CDF82CB0CDF830A031
:1045D000CDF834B003F030FD059B824693E803002C
:1045E0008DE8030012E000BF580F0100090F010021
:1045F0002C93FF1F0E0F0100180F01001F0F010069
:104600002B0F0100320F01003E0F010006A996E8B2
:104610000C005046FFF77EF8C4F830A006A803F05F
:104620000FFD3846D4F830A0FCF780FD2946FDF791
:10463000E4F9AAF840003846D4F830A0FCF776FD3B
:104640002946FDF7DEF90146504601F04CFED4F84C
:1046500030A0DAF800303846D3F840B0FCF766FDF9
:104660002946FDF7C3F901465046D8473846D4F8E5
:1046700030A0FCF75BFD2946FDF7BFF90146504627
:10468000FFF76BF9276B0E49304603F019FD3146F1
:1046900007F1140003F044FD304603F0D1FC236B16
:1046A00083F84250206B03684946DB6B98474046CD
:1046B000216BFDF791F820460FB0BDE8F08F00BFE9
:1046C000460F010001F0C8B87047FFFF10B503495D
:1046D000044603F0F5FC204610BD00BF08100100A1
:1046E00008B50448FCF722FD0021BDE80840FDF7AD
:1046F00084B900BF2C93FF1F10B5054B03F10802CE
:10470000543304460260436201F0C4F9204610BDF0
:10471000B00F010010B50446FFF7EEFF204603F08E
:104720008DFC204610BDFFFF2DE9F04F8FB00446F1
:1047300001F0CAF8B94BBA4903F1080254332260B8
:10474000636206A8002503F0BBFC4FF09F0A4FF000
:10475000770B8820CDF830A0CDF834B00A950B95B2
:1047600003F06AFC0DF13008064698E803008DE876
:1047700003000AAF97E80C0006A93046FEF7CAFF0F
:10478000A662A84E06A803F05BFC3046D4F8289039
:10479000FCF7CCFC2946FDF730F9A9F8400030467B
:1047A000D4F82890FCF7C2FC2946FDF72AF9014607
:1047B000484601F098FDD4F82890D9F800303046EA
:1047C0001B6C0393FCF7B2FC2946FDF70FF9039B22
:1047D0000146484698473046D4F82890FCF7A6FC96
:1047E0002946FDF70AF901464846FFF7B6F8A36ADD
:1047F0008D4983F84250D4F82890384603F060FC85
:10480000394609F1140003F08BFC384603F018FC1C
:10481000A06A04F12403059303680599DB6B04F196
:10482000040998474846A16AFCF7D6FF7F4906A8C5
:1048300003F046FCA02388200A93CDF830A0CDF8E1
:1048400034B00B9503F0F8FB834698E803008DE83D
:10485000030006A997E80C005846FEF75BFFC4F872
:1048600034B006A803F0ECFB3046D4F834B0FCF7C3
:104870005DFC2946FDF7C1F8ABF840003046D4F89E
:1048800034B0FCF753FC2946FDF7BBF80146584607
:1048900001F029FD636B1A683046D2F840B00393EB
:1048A000FCF744FC2946FDF7A1F8039B0146184696
:1048B000D8473046D4F834B0FCF738FC2946FDF729
:1048C0009CF801465846FFF748F8636B584983F84F
:1048D0004250D4F834B0384603F0F2FB39460BF1BD
:1048E000140003F01DFC384603F0AAFB606B059929
:1048F0000368DB6B98474846616BFCF76DFF4D49D9
:1049000006A803F0DDFB4FF0780B8820CDF830A02F
:104910000A95CDF82CB0CDF834B003F08DFB844669
:1049200098E803008DE8030006A997E80C006046AC
:10493000CDF810C0FEF7EEFEDDF810C0C4F82CC0B4
:1049400006A803F07DFBE36A03933046FCF7EEFB19
:104950002946FDF752F8039BA3F84000E36A03934E
:104960003046FCF7E3FB2946FDF74BF8039B014675
:10497000184601F0B8FCE26A136830461B6C0393DA
:104980000492FCF7D3FB2946FDF730F8049A039B09
:10499000014610469847E36A03933046FCF7C6FB8E
:1049A0002946FDF72AF8039B01461846FEF7D5FF76
:1049B000E36A83F842504846E16AFCF70DFF1E495E
:1049C00006A803F07DFBA02388200A93CDF830A031
:1049D000CDF82CB0CDF834B003F02EFB824698E829
:1049E00003008DE8030006A997E80C005046FEF787
:1049F00091FEC4F830A006A803F022FB3046276BD6
:104A0000FCF794FB2946FCF7F8FFA7F84000304676
:104A1000276BFCF78BFB294610E000BFB00F0100AD
:104A20001C1001002C93FF1F221001002F10010009
:104A300036100100441001004D100100FCF7E1FFA9
:104A40000146384601F04FFC276B3B683046D3F8EF
:104A50004080FCF76BFB2946FCF7C8FF014638464F
:104A6000C0473046276BFCF761FB2946FCF7C5FFC2
:104A700001463846FEF771FF236B059983F84250D3
:104A8000206B0368DB6B98474846216BFCF7A4FE5C
:104A900020460FB0BDE8F08F38B505460C461748E4
:104AA0001749FCF726F9AB6A9C4206D12C2003F08B
:104AB000C3FA0446FCF7B8FE19E02B6B9C4206D102
:104AC000442003F0B9FA044601F038FE0FE06B6BA6
:104AD0009C424FF0380005D103F0AEFA0446FFF7D0
:104AE0000DFC04E003F0A8FA0446FFF71DFE214682
:104AF0000448BDE83840FCF7F7BA00BF5CA3FF1FCD
:104B0000561001002C93FF1FA0F12400FFF7C4BF33
:104B100001F02EB800F0A0BE416670478165704775
:104B200084B037B507AD85E80E000A9B009395E881
:104B30000E00044601F0DCFB0D4B03F1080222607D
:104B400003F1500260336262A36204F16800002145
:104B500003F0B6FA0023E36504F11400054903F0FD
:104B6000FAFA204603B0BDE8304004B0704700BFF9
:104B700080100100E81001002DE9F043C36A87B0FE
:104B80004633044602934FF0B4080A239627742054
:104B90000393CDF81080059703F04EFA059B009320
:104BA00002AD064695E80E0001F014F9336826665A
:104BB000D3F818C0A16D424630463B46E047236813
:104BC000216E9B69DFF8C08020469847E36A04F1B4
:104BD00068060A33314628469FB203F0A9FA4146D7
:104BE0002A462748FEF734FC8146284603F028FA77
:104BF0001FFA89F0C0F59672022392FBF3F31F446B
:104C0000BE23039304901923BFB244200297059357
:104C100003F012FA059B0093074695E80E0001F099
:104C200095F9E765C7F83480E36D1648DE63E66DF5
:104C3000FCF77CFA0021FCF7E4FE2368E16D708745
:104C40009B6920469847636BE26A02920493EE22C6
:104C5000012334200392059303F0EEF9059B0093A2
:104C600095E80E00064600F085FD236820469B6906
:104C700031469847204601F0CFFB07B0BDE8F083EE
:104C8000FC90FF1F2C93FF1F98FF0000406D7047A2
:104C9000A0F85C107047B0F85C007047012380F802
:104CA00050307047816570470023836570472DE958
:104CB000F74F044601929B46884639B30D9D019EED
:104CC0005F460D9BDDF830909944C5EB09092368D8
:104CD0000FFA87FA0FFA89F9D3F808C0238A204619
:104CE00051464A46E047013E0123B34018EA030F0C
:104CF00007D023682046D3F808C0E38951464A46C6
:104D0000E0470137002EDCD1013DD8D103B0BDE82A
:104D1000F08FFFFF054AD36A13F0F00F03F47043DE
:104D200018BF926BB3F5405FF4D8704700C00240E3
:104D3000044608B50D480D46FBF7DBFF206810B1AF
:104D40002946FBF7D6FF0D20012102F007FE0121C5
:104D50000D2002F0E3FDFA2002F03AFE0D200021C2
:104D600002F0DCFDFA2002F033FEF0E75CA3FF1F47
:104D7000F0B513680D688E685768AB42ACBF1C462F
:104D80002C4635449668D2683344AB42B8BF1D46C2
:104D9000A5424E68C96811DBB742ACBF3B463346FB
:104DA00017440E44B742B4BF3A4632469A4205DB36
:104DB00004602C1B43608460D31A03E0002303606B
:104DC00043608360C360F0BD2DE9F04F85B00446B9
:104DD00016464FF03840BDF8482001928B461F46DA
:104DE000BDF838804F4DFCF753FA94F820301B047F
:104DF00007F1FF3908F1FF3A43F0004343F02A037B
:104E00000BEB090006EB0A0189B280B26B630291D9
:104E10000390FFF77FFFE37F4BEA034B4BF0104318
:104E20006B63FFF777FFE37F039840EA034040F0AE
:104E300010406863FFF76EFF94F820301B0443F0C6
:104E4000004343F02B036B63FFF764FFE37F46EA05
:104E5000034646F010466E63FFF75CFFE37F02995E
:104E600041EA034141F010416963FFF753FF94F8B1
:104E700020301B0443F0004343F02C036B63FFF727
:104E800049FF019ABDF84030BDF844B002FB0B3B2E
:104E90000F9B4FEA420C03EB4B0B0026B3B243458A
:104EA0003AD20025ABB2BB4233D24D45E37F20D18D
:104EB00056451ED13BF815001A4A40EA034343F019
:104EC000C05311685363174AD06A10F0805F1346CD
:104ED00004D110F0F00F18BF936BF4E74FF080523D
:104EE000DA621960DA6A12F0F00F10D00D4A926B94
:104EF000F8E73BF8152042EA03430A4A43F010431F
:104F00005363CDF80CC0FFF705FFDDF80CC0013589
:104F1000C8E70136E344C1E7FCF7FEF905B0BDE898
:104F2000F08F00BF00C002402DE9F04FADF5237DAA
:104F30009846BDF8BC72BDF8C032BDF8B8B25F4348
:104F40004FEA4309BDF8B03213449BB2019302AB60
:104F500003EB4B0304468A467F0000931646019BF1
:104F60009E4200F089803946AD98454DFDF708F81E
:104F700002A94A46AD98FCF731FF4FF03840FCF7E4
:104F800087F994F820301B0443F0004343F02A03D0
:104F900008F1FF3252446B631FFA82FBFFF7BAFE3F
:104FA000E37F4AEA034343F010436B63FFF7B2FE2B
:104FB000E37F4BEA034242F010426A63FFF7AAFE26
:104FC00094F820301B0443F0004343F02B036B6341
:104FD000FFF7A0FEE37F46EA034343F010436B6311
:104FE000FFF798FEE37F46EA034343F010436B6309
:104FF000FFF790FE94F820301B0443F0004343F089
:105000002C036B63FFF786FE0025ABB243452DD220
:1050100008F1FF330099E07F31F815209D42184BCD
:105020001BD142EA004242F0C05219685A63144A46
:10503000D06A10F0805F134604D110F0F00F18BF53
:10504000936BF4E74FF08052DA621960DA6A12F07B
:10505000F00F09D00A4A926BF8E742EA004242F0A8
:1050600010425A63FFF756FE0135CEE70136FCF7D2
:1050700053F94F44B6B272E70DF5237DBDE8F08FCA
:1050800000C002402DE9F04FADF5237D0B449BB2EB
:105090009246BDF8B872BDF8C422BDF8BCB2019307
:1050A00002AB574303EB4B03BDF8B08200930446B9
:1050B0004FEA42097F000E46019B9E4200F0898024
:1050C0003946AD98454DFCF75BFF02A94A46AD98BD
:1050D000FCF784FE4FF03840FCF7DAF894F8203003
:1050E0001B0443F0004343F02A0308F1FF3252440B
:1050F0006B631FFA82FBFFF70DFEE37F46EA034373
:1051000043F010436B63FFF705FEE37F46EA03437A
:1051100043F010436B63FFF7FDFD94F820301B0450
:1051200043F0004343F02B036B63FFF7F3FDE37F92
:105130004AEA034343F010436B63FFF7EBFDE37F61
:105140004BEA034242F010426A63FFF7E3FD94F832
:1051500020301B0443F0004343F02C036B63FFF744
:10516000D9FD0025ABB243452DD208F1FF3300999C
:10517000E07F31F815209D42184B1BD142EA0042D6
:1051800042F0C05219685A63144AD06A10F0805F26
:10519000134604D110F0F00F18BF936BF4E74FF0F3
:1051A0008052DA621960DA6A12F0F00F09D00B4A05
:1051B000926BF8E742EA004242F010425A63FFF76E
:1051C000A9FD0135CEE70136FCF7A6F84F44B6B28B
:1051D00072E70DF5237DBDE8F08F00BF00C00240EF
:1051E00010B50446486D00F1004005F041FA002377
:1051F00063604FF4A073A360F0232060E360204657
:1052000010BDFFFF002310B504468360C360036038
:10521000082005F08BFA606018B920460349FFF7B3
:1052200087FD0223A360204610BD00BFD20B010002
:105230002DE9F04788B004469DF8405000959DF850
:10524000445001959DF848500295FDF7A5F9204678
:10525000264B40F8303BFFF7D5FF04F14000FFF745
:10526000D1FF002640F2EE29F0273420079704965C
:105270000596CDF8189002F0DFFE079B009304AD71
:1052800095E80E0082464FF6FF7800F073FA50461C
:105290002946C4F82CA0ADF81080FEF773FC314607
:1052A000E06AFEF734FC3420079704960596CDF8A3
:1052B000189002F0C1FE079B009395E80E00074688
:1052C00000F058FA38462946A762ADF81080FEF77C
:1052D00059FCA06A3146FEF71AFC0123204684F8E7
:1052E000503084F8246008B0BDE8F0870011010058
:1052F0002DE9F04790F850308CB00446002B00F0B8
:105300008E80806A10B103689B6898470025E36A25
:10531000A3624FF0F0094FF4A07A2F46A846E36B42
:10532000984542DA1FFA88F104F13000FBF79EFF3E
:10533000064600F045FF0368BB4203DA304600F042
:105340003FFF0768304600F03BFF836802681A445D
:1053500007EB0A039A4208DD304600F031FF02688D
:10536000836802EB030AC7EB0A0A304600F028FF05
:105370004368AB4203DA304600F022FF456830460E
:1053800000F01EFFC36842681A4405EB09039A4205
:1053900008DD304600F014FF4268C36802EB0309E1
:1053A000C5EB090908F10108B9E71E4B586C036801
:1053B0001B6B98470AF10103ADF80E0034200995E4
:1053C0000A930897CDF82C9002F036FE0B9B0093C1
:1053D00008AB0ECB054600F0CDF928460DF10E01C5
:1053E000E562FEF7CFFBE06A0021FEF790FB0026A6
:1053F000E36B9E4210DAB1B204F13000FBF736FFE6
:1054000000F0DEFE0FC804AD85E80F00E06A294613
:10541000FEF78AFD0136EBE7002384F850300CB02C
:10542000BDE8F0872C93FF1F38B50546C06AA96A0E
:10543000FEF752FC0024EB6B9C4209DAA1B205F1A5
:105440003000FBF713FF0021FEF746FC0134F2E7C2
:1054500038BDF8B50546C06A0E461746FEF7AAFCE9
:105460000024EB6B9C420ADAA1B205F13000FBF795
:10547000FDFE31463A46FEF79DFC0134F1E7F8BDEA
:105480002DE9F043054689B0C06A0C4600F098FE4D
:105490008068C0F5A070013004F0D0FE01462046BF
:1054A00005F0BEF848B1E86A00F08AFE8068C0F5F1
:1054B000A070013004F0C2FE04462046002105F031
:1054C000CDF800B100242146686D04F001FE04F01F
:1054D000CDF80021064605F099F8804600287ED1D7
:1054E0006C653046002105F0B9F8074640B326F058
:1054F0000046304605F0BCF821460746394804F01E
:10550000E7FD314604F0E4FD05F0B2F84FF0F00994
:1055100031468DE8010104F100400297CDF80C906E
:1055200004F0D6FD05F0A4F8CDF814800490069799
:10553000CDF81C90284604A96A464FF4FC6324E089
:105540003046002105F06CF8002848D004F10040F6
:1055500005F08EF8804626F0004004F02FFA002275
:10556000214B04F0CDF804F017FDF02302900393D3
:1055700006900793CDF800800197CDF8108005972D
:10558000284604A96A4640F2FF73FFF762FF2046EF
:10559000002105F045F888B1124904F1004004F0FB
:1055A00055FF05F065F84FF4A07300FB033004F0DD
:1055B00045FE0146204604F08DFD044620460B4979
:1055C00005F04CF820B12046064904F081FD044660
:1055D000204605F04DF881B20548FDF7A3F809B063
:1055E000BDE8F0830000A0430000F03F00809F432F
:1055F000FC90FF1F38B50B6804465B6908460D46F2
:10560000984794F824301BB10E480F49FBF771FB03
:10561000E16BA36B994204D104F130004900FEF71D
:1056200059FCE36B626B591CE16342F8235094F818
:1056300024301BB103480549FBF75BFB012384F8C9
:10564000503038BD5CA3FF1F501101005D110100F7
:1056500010B50446806AFEF771FDE06AFEF76EFD44
:105660000023E363012384F8503010BD70B5846DCE
:105670001CB9BDE87040FCF7A3BD2568A9420CDB4E
:10568000A6683544A94200DD70BD6568AA4204DB06
:10569000E4682544AA42ECDD70BD70BD2DE9F041FF
:1056A000D0F858E08AB00646BDF94040BDF84470D5
:1056B000BEF1000F02D18DE8900019E0099402AD0F
:1056C00006AC069107922846214672460893FFF7DA
:1056D0004FFB95E80F0084E80F00BDF92400BDF9E9
:1056E0001810BDF91C20BDF920308DE8810030462E
:1056F000FCF78AFE0AB0BDE8F081F0B5D0F858E0BA
:105700008BB00646BDF84070BEF1000F01D1009786
:1057100017E002AD06AC06910792089328460123D4
:10572000214672460993FFF723FB95E80F0084E8B2
:105730000F00BDF91810BDF91C20BDF920300097ED
:105740003046FCF7BFFD0BB0F0BDFFFF10B5034BBB
:1057500003600446FEF718FD204610BD78110100D5
:1057600010B50446FFF7F2FF204602F067FC204622
:1057700010BDFFFF84B037B507AC84E80E000A9B6C
:10578000009394E80E000546FEF7A6F9034B2B6044
:10579000284603B0BDE8304004B0704778110100DE
:1057A0002DE9F34715460646FEF7AAF9804630462E
:1057B000FEF7ABF92B687268F768EC688246A86858
:1057C0009342ACBF194611463A441F189742A8BFEE
:1057D00017468F42B3686A6830690DDB9A42ACBFE6
:1057E00015461D46144403449C42A8BF1C46AC42C7
:1057F00002DB7F1A641B03E000242746254621466E
:105800004FF4A07391FBF3F9304603FB1919FEF72F
:1058100081F926B20FFA89F12AB23BB2009688B11B
:105820000C48CDF804A0023CFDF7A4F824B209F11D
:1058300001016A1CBB1E8DE81001064809B212B2B4
:105840001BB202E00348CDF80480FFF727FF02B047
:10585000BDE8F087FC90FF1F7047704708B504480B
:10586000FBF764FC0021BDE80840FCF7CAB800BFA4
:105870002C93FF1F044608B50D480D46FBF739FA77
:10588000206810B12946FBF734FA0D20012102F0FF
:1058900065F801210D2002F041F8FA2002F098F895
:1058A0000D20002102F03AF8FA2002F091F8F0E71A
:1058B0005CA3FF1F38B5044602F034FB05462046C2
:1058C00002F0E8FA284438BD38B500250B4B0360D8
:1058D0000446C56005614560082004F027FFA0600C
:1058E00018B9201D0649FFF7C5FF0223E360002316
:1058F0006561A36184F82050204638BDC8150100B9
:10590000D20B0100C26808B50AB9054902E08A4213
:1059100002DC0449FFF7AEFF436853F8210008BDDD
:10592000190701002807010038B5054600242B6936
:105930009C4218DA0C490D48FCF700FC0C490B4856
:10594000FCF7FCFB29690948FFF7B4FFA1B2281D49
:10595000FFF7D8FF03681B69984704480549FBF720
:10596000C8F90134E3E738BD011201005CA3FF1F51
:105970009011010010120100F0B5064685B00F46E7
:10598000002533699D4227DAA9B2301DFFF7BAFF1F
:1059900003683946DB6A98470446D8B10F49104876
:1059A000FCF7CCFB0F490E48FCF7C8FB04F11401CF
:1059B000684602F0BDFB69460948FBF718FB6846DC
:1059C00002F03EFB23682046DB693946984708B160
:1059D000746101E00135D4E705B0F0BD911201001A
:1059E0005CA3FF1F1F120100F0B5044685B00F46EF
:1059F000002623699E4228DAB1B2201DFFF782FFFC
:105A000003683946DB6A98470546E0B16369984206
:105A100019D112491248FCF791FB12491048FCF7C2
:105A20008DFB05F11401684602F082FB69460C48C3
:105A3000FBF7DDFA684602F003FB2B6828465B6A39
:105A40003946984740B90136D3E7606920B1036809
:105A50009B6A98470023636105B0F0BD18130100ED
:105A60005CA3FF1FA612010038B50D1E044601DC21
:105A7000064907E04068A90005F036FA606018B9E9
:105A800003492046FFF7F6FEA56038BD6508010012
:105A90009A08010038B5164B036004462369002BB1
:105AA0001BDD013BA268236152F823502BB1E26851
:105AB000042192FBF1F18B4208DD002DEED0284647
:105AC00000F05CFC284602F0B9FAE7E70221201D4D
:105AD00092FBF1F1FFF7C8FFEFE7A06804F02EFE9C
