:1000000000800020BD0100003D7A0000097A000058
:10001000097A0000097A0000097A0000097A0000D4
:10002000097A0000097A0000097A00003D7A000090
:100030003D7A0000097A00003D7A0000F97900005D
:100040003D7A00003D7A00003D7A00003D7A0000D4
:100050003D7A00003D7A00003D7A00003D7A0000C4
:100060003D7A00003D7A00003D7A00003D7A0000B4
:100070003D7A00003D7A00003D7A00003D7A0000A4
:100080003D7A00003D7A00003D7A00003D7A000094
:100090003D7A00003D7A00003D7A00003D7A000084
:1000A000F90700003D7A00003D7A00003D7A00002B
:1000B0003D7A00003D7A00003D7A00003D7A000064
:1000C0003D7A00003D7A00003D7A00003D7A000054
:1000D0003D7A00003D7A00003D7A00003D7A000044
:1000E0003D7A00003D7A00003D7A00003D7A000034
:1000F0003D7A0000C57600003D7A00005D8C00006E
:100100003D7A0000099100003D7A00003D7A000030
:100110003D7A00003D7A00003D7A00003D7A000003
:100120003D7A00003D7A00003D7A00003D7A0000F3
:100130003D7A00003D7A00003D7A00003D7A0000E3
:100140003D7A00003D7A00003D7A00003D7A0000D3
:100150003D7A00003D7A00003D7A00003D7A0000C3
:100160003D7A0000ED9300003D7A00003D7A0000EA
:100170003D7A00003D7A00003D7A00003D7A0000A3
:100180003D7A00003D7A00003D7A00003D7A000093
:100190003D7A00003D7A00003D7A00003D7A000083
:1001A0003D7A00003D7A00003D7A00003D7A000073
:1001B0003D7A00003D7A00003D7A0000564B4CF23B
:1001C000205210B51A804DF628121A8000BF00BFC9
:1001D00007F038FC514B4FF010621A60504A9A6099
:1001E000504ADA60A3F53043203B1A6812F480725B
:1001F00004D14D490A604FF4A8521A604B4B1A784B
:10020000110703D51A7842F008021A70484B2A22C7
:100210001A700023474A48499818884204D247492F
:10022000595899500433F5E7454A464B9A424FF0E6
:10023000000302D242F8043BF7E74349434A5958C6
:1002400099500433B3F5DE7FF7D1414B802103F899
:10025000011B40498B42F9D13F4B1A603F4B0A22A8
:100260001A70A3F5805324225A70A0221A709A792A
:100270009207FCD59A79D406FCD4394B9A7902F0CE
:100280000C02082AF9D103221A7140225A719A7974
:100290009006FCD5324B9A795106FBD5314A32494A
:1002A00011600221516020221A702D4B9B7903F0BE
:1002B0000C030C2BF9D12D4B2D4A1A602D4B2E4AD5
:1002C0001A6000225A60072243F8042C2B4AC3F814
:1002D0000C2D62B607F0E8FD134B1B68DA0705D555
:1002E000274807F061FD274B274A1A60274B1B78E8
:1002F0005B0609D5234C244A2368934204D1204845
:1003000007F052FD002323600AF0D0FB07F0A0FBAA
:1003100007F018FEFEE700BF0E20054030800440C5
:10032000823F04000100002B14D0034002D007409C
:1003300000E007406087FF1F5490FF1FD82801008E
:100340005490FF1FC8A5FF1F000000000082FF1F80
:1003500000E400E05FE400E008ED00E0005006404B
:100360000040064044800440000003010480044033
:10037000C010050014E000E0FF760100000020201E
:100380000C36BC541CE00340A5C3945A00F007404F
:10039000FFFFFFFFFFFFFFFFFFFFFFFFFFFFFFFF6D
:1003A000FFFFFFFFFFFFFFFFFFFFFFFFFFFFFFFF5D
:1003B000FFFFFFFFFFFFFFFFFFFFFFFFFFFFFFFF4D
:1003C000FFFFFFFFFFFFFFFFFFFFFFFFFFFFFFFF3D
:1003D000FFFFFFFFFFFFFFFFFFFFFFFFFFFFFFFF2D
:1003E000FFFFFFFFFFFFFFFFFFFFFFFFFFFFFFFF1D
:1003F000FFFFFFFFFFFFFFFFFFFFFFFFFFFFFFFF0D
:10040000FFFFFFFFFFFFFFFFFFFFFFFFFEFFFFFFFD
:1004100010B5054C237833B9044B13B10448AFF33E
:1004200000800123237010BD5490FF1F00000000C6
:10043000D828010008B5064B1BB106480649AFF3A2
:1004400000800648036813B1054B03B1984708BD07
:1004500000000000D82801005890FF1F5490FF1F93
:1004600000000000164B1A6842F480521A60154BC7
:10047000154A1A60154ADA6002F180421A61144A7C
:100480001A60144B1B78DA0755BF134A134A4FF40E
:1004900010714FF4007113F0020F11600CBF10497E
:1004A00010495B074FF4007254BF0F4B0F4B0A60AB
:1004B00054BF4FF410724FF400721A60704700BFBF
:1004C0003C80044000C0024001401F000110003881
:1004D00000001F80A4A3FF1F18B0044008C0044000
:1004E0001CB004400CC0044014B0044004C00440DC
:1004F000A0F10903012B0BD900F0FB03022B07D05D
:100500000F2805D0143803288CBF00200120704725
:100510000120704738B505460C46FFF7E9FF60B388
:100520002046FFF7E5FF00B938BD022D01D10A2CA6
:1005300006E00A2D01D1022C02E0062D03D1092C80
:1005400008BF002038BD092D01D1A01F12E0142DD5
:1005500002D1B4F117000DE0172D02D1B4F114004F
:1005600008E0152D02D1B4F1160003E0162D04D1D8
:10057000B4F1150018BF012038BD38BD0238152868
:100580003AD8DFE800F00F393939193939150B3904
:1005900039393933393939391F292D234FF400724C
:1005A000164B02E0164B4FF400721A6001207047A0
:1005B0004FF40072134B02E0134B4FF400721A60B9
:1005C000022070474FF40072104B02E0104B4FF4C2
:1005D00000721A60042070474FF400720D4B02E065
:1005E0000D4B4FF400721A60082070470B4B4FF40C
:1005F00000721A60102070470020704710B004404D
:1006000000C004400CB0044010C0044014C00440BA
:1006100008B0044018C0044004B0044000B00440D6
:10062000044BD878044B1A68C0B2904218BF1860C7
:10063000704700BF006006406487FF1F08B5FFF7E2
:10064000EFFF8307FBD5024B0222DA7008BD00BF23
:1006500000600640094B1B7813B9094B1B782BB17E
:10066000084A1378202B03D9012303710020704717
:10067000581C1070044A0120D1547047EE90FF1F9F
:10068000B190FF1FEF90FF1F9090FF1F7047FFFF7B
:10069000024B1878024B1B78C01A7047ED90FF1F71
:1006A000EC90FF1F064A074913780978994204D94C
:1006B000591C1170044AD05C70474FF0FF307047EE
:1006C000EC90FF1FED90FF1FB290FF1F054B064AF5
:1006D0001B7812789A4286BF044AD05C4FF0FF30F4
:1006E000704700BFEC90FF1FED90FF1FB290FF1FFF
:1006F00070B50E4B1B78144613B90D4B1B7893B194
:100700000C4A1578C5F121039C42164602D90122F4
:1007100002711C4608482246284425440AF0CEFCB3
:100720003570204670BD184670BD00BFEE90FF1FAB
:10073000B190FF1FEF90FF1F9090FF1F10B5114B5E
:10074000DB7803F0200303F0FF045BB9122007F00D
:1007500013FB0D4B1B68A3B10C4A14700C4A1078A4
:10076000984710BD0B4A13780133DBB2012B13708D
:1007700002D8094B1B7823B91220BDE8104007F0BE
:10078000FBBA10BD006006408C90FF1FEC90FF1F6D
:10079000ED90FF1FD890FF1FB190FF1F0022027144
:1007A0004FF47A710273024A81600260704700BFA1
:1007B00018BE00000C4B00221A700C4B196841F057
:1007C000400119600A4B0B499A704FF419720A6084
:1007D00041F8042C27225A7004229A7120225A715F
:1007E00080229A70704700BFB190FF1F3480044090
:1007F000006006400CA0044010B53649CB78DBB24F
:1008000013F0100F03F0400201D12AB92CE01020A0
:10081000C870002AF9D110BD03F0040303F0FF01F2
:100820002D4AC3B1002313702C4A13702C4B1B6844
:10083000144603B1984723782A4A1BB927491370F5
:1008400001200870234BD021997012781A71264B21
:1008500001221A7039E001231370244B19701D4BCB
:10086000C0229A701B7930E01A4CA27802F0100274
:1008700002F0FF01AAB113F001030ED11A49174883
:100880000A780078904203D9531C0B70154B9B5C7F
:100890002371104BD0229A7017E0C023A3702379E4
:1008A00013E0134B032219701220124907F01EFAAD
:1008B0000E4A217913781F2BC9B206D80648007852
:1008C00018B1581C10700C4AD154024B0222DA7035
:1008D00010BD00BF006006408990FF1FEF90FF1F12
:1008E000D490FF1F9090FF1FF090FF1FED90FF1F0F
:1008F000D890FF1F3D070000B290FF1F044B054A30
:100900004900197001231370034A1370704700BF28
:100910009090FF1FEE90FF1FEF90FF1FF8B52B4B3D
:100920001222DA709A7892060F4601D5B42218E0A6
:10093000274B1C681D46FFF773FE00F0200000F0F7
:10094000FF0350B12B681B1B0F2BF4D91F4B002248
:100950009A7080229A700420F8BD1E4A13701B4BB7
:10096000B0229A70FFF75CFE8306FBD500251A4B78
:100970001B78ECB2A3421FD9184B1A5D134B1A71A6
:10098000FFF74EFE860701D48006F9D40F4E0223EE
:10099000F370FFF745FEC10601D4820603D480231D
:1009A000B370042009E0C30705F10105DFD5002C71
:1009B0000CBF0220032001E0002017B1034B80226E
:1009C0009A70074B00221A70F8BD00BF0060064005
:1009D0005CA3FF1FB190FF1FEF90FF1F9090FF1FC0
:1009E000EE90FF1F2DE9F8431446304A1F460023BE
:1009F00013702F4A13702F4B0D461221D97099781E
:100A000011F0200F904601D0B4220BE0FFF708FE52
:100A100000F0200000F0FF020028F7D1264B1A70EA
:100A2000244BB0229A706B0043F00103214DDBB2DE
:100A30002B71FFF703FEFFF7F3FD10F0110004D058
:100A40008023AB700020BDE8F88334B9002F0CBFC1
:100A5000A0238023AB70BDE8F883012C0CBFA82332
:100A6000A023AB702B79DFF858902646012E114D4C
:100A70000BD0013EFFF7E2FDF6B2012E04BFA82322
:100A8000AB702B7909F8013FF0E7FFF7D7FD661E41
:100A9000B023AB70F6B2094B2A799A550FB1802377
:100AA000AB7088F800402046BDE8F883EC90FF1F4B
:100AB000ED90FF1F00600640B190FF1FB290FF1F36
:100AC000B190FF1F0123FFF78DBFC9B2FFF716BF1B
:100AD0000121FFF723BFFFFF0148FFF75FBE00BF03
:100AE000DC90FF1F70470022428002807047FFFFAA
:100AF00070B50A4C0D46204638211646FFF7E5FF33
:100B000029462046FFF7A6FD20463146FFF7A2FD05
:100B10002046BDE87040FFF7DBBF00BFDC90FF1F41
:100B2000F0B5044685B02F480E4638211746FFF72A
:100B3000CCFF00212B48FFF78DFD2A48FFF7C8FFA7
:100B400028483821FFF7C1FF264838212022FFF727
:100B5000B9FF00252348FFF7A5FD0DF80500013575
:100B6000102DF7D11F48FFF7B3FF9DF80230022B7D
:100B700001D8237003E0002323703B803380237867
:100B80005BB39DF803309DF804209DF8061003F038
:100B90000F0342EA03239DF80520638002F00F0053
:100BA000121141EA002162819DF80920E1809DF83F
:100BB0000A1002F00F0241EA0222A2809DF80B20E7
:100BC0009DF80C1002F00F0041EA00211211218162
:100BD000A2813380E3883B8001E03B80338005B015
:100BE000F0BD00BFDC90FF1F13B504460DF10602F7
:100BF000084601A9FFF794FFBDF80630BDF80420B0
:100C00006380204601232280A38002B010BDFFFF35
:100C100038B50F4C0D4620463821FFF756FF2946C0
:100C20002046FFF717FD2046FFF752FF20463821E8
:100C3000FFF74BFF382101222046FFF743FF2046F4
:100C4000FFF730FD05462046FFF742FFE8B238BD0A
:100C5000DC90FF1F38B504460D460C48FFF7AAFD8F
:100C6000204680212A46FFF743FF2046A821FFF7B0
:100C7000CFFF112807D12046A321FFF7C9FF06287F
:100C800001D1012038BD002038BD00BFDC90FF1F1E
:100C900008B50221FFF7BCFF0138C0B201288CBFA4
:100CA0000020012008BDFFFF38B50446094B036052
:100CB0000025806C09F02AFFA06BA5646564E564DB
:100CC000256509F023FFA5636563E5632564204678
:100CD00038BD00BF781E010038B5044608460D46F1
:100CE0000AF056FE236802465B682046294698476C
:100CF00038BD38B50446FFF7EFFF0546204607F03C
:100D00001FFB284438BDFFFF10B54FF4FA6007F011
:100D1000B5F82B492B48FFF7DFFF2A4807F010FBF7
:100D200040F2836006F08CFA1620012107F06CF87F
:100D30001620012107F048F80720002107F064F889
:100D40000021082007F060F81F4801F0D5FD1E487B
:100D5000032101F0B5FC1C48002101F091FD0F209A
:100D600002F0A8FD20B917481849FFF7C2FFFEE7B7
:100D700017491448FFF7BDFF16482821FFF76AFFFF
:100D800020B910481449FFF7B4FFFEE713490D4896
:100D9000FFF7AFFF0C48002101F084FC104909481F
:100DA000FFF7A7FF382007F09BFB044603F0CAFEBD
:100DB0000C4B0D481C602146BDE8104000F09CB96A
:100DC00043BE000060A3FF1FFC90FF1F76BE000023
:100DD0008DBE00006491FF1FA7BE0000D4BE0000BE
:100DE000F3BE0000F490FF1F3093FF1F014800F096
:100DF000B9B900BF3093FF1F1FB50B4C0B48FFF76D
:100E000071FE0B210D220C238DE80E0020460A21D5
:100E10000922002304F066FC0549064A204604B076
:100E2000BDE8104009F032BEFC90FF1F6491FF1F27
:100E3000A90C00006087FF1F10B500234FF07A5205
:100E4000036043608360436103610446C2600349F9
:100E5000183007F0D4FB0023A36210BD8C130100EF
:100E600010B500210446183007F07EFB2046FFF73E
:100E7000E3FF204610BD10B5006900214FF00104CA
:100E800009F0ACFD08B14FF0000404F0010010BD02
:100E90002DE9F04706694FF00009044649463046FF
:100EA00009F09CFD00284ED1D4F808802768404600
:100EB000394609F093FD002845D1A56A002D42D09E
:100EC000224B186809F09EFB214909F0A7FC314626
:100ED00009F0E6FA4946064609F08AFD002832D1B3
:100EE000D4F80CA03046514609F096FD20B1C4F864
:100EF0000480C4F8109011E05146304609F08EFC91
:100F000039468146404609F0CBFA0146484609F089
:100F1000D1FB0146384609F0C5FA606031465046BB
:100F200009F0BEFA2F6862683E68034621462846EB
:100F3000B0472069002109F051FD20B1A06A036883
:100F400021465B689847BDE8F08700BF5CA3FF1FA0
:100F500000007A4410B51831044607F03DFB2046E6
:100F600010BD38B5044648B100F5DC75AC4205D07B
:100F7000A5F1140007F0B8FA2C3DF7E7204638BD7C
:100F800070B50546044600F5DC7620462C34FFF7A4
:100F900067FFB442F9D1284670BD38B50546002434
:100FA0002819FFF768FF20B92C34B4F5DC7FF7D19E
:100FB00038BD012038BD70B50646002435192846D5
:100FC000FFF759FF10B12846FFF762FF2C34B4F544
:100FD000DC7FF3D170BDFFFF10B5054C2046FFF755
:100FE000CFFF20460349044ABDE8104009F04EBD3A
:100FF0007891FF1F630F00006087FF1F704738B5AF
:10100000044607F07CF90546204607F099F9284484
:1010100038BD10B50446023000F02EFD04F1380052
:10102000FFF761FD01232370002384F83630236429
:101030006364204610BDFFFFF0B5456C85B00446E3
:10104000002D4DD02748FFF723FE002838D002AEF0
:1010500024493046FFF7C8FDBDF8083094F8361033
:10106000BDF80A20ADF80820C3F1F0039BB2ADF83B
:101070000A30A1B1218F8A4202D1628F93421AD0E5
:1010800019491A48FFF735FE2A68A38FADF80030DA
:10109000D76AA36B284696E80600B8470BE01449C8
:1010A0001248FFF726FE2B6828465B6A31469847B0
:1010B000012384F8363096E80300A063A1870FE08F
:1010C00094F836304BB10B490848FFF712FE2B68F5
:1010D00028469B6A04F138019847002384F836308B
:1010E00005B0F0BD6491FF1F2712010060A3FF1F30
:1010F000331201003E1201007FB50D4C0D4606462D
:101100000C492046FFF7E8FD20460B49FFF7E4FDB8
:101110002B6868461B692946984769462046FFF7B1
:101120006EFF684607F0E0F9356404B070BD00BF9B
:1011300060A3FF1FB5120100471201000230704783
:1011400010B5054C2046FFF764FF20460349044ACA
:10115000BDE8104009F09ABC3093FF1FFD0F00005E
:101160006087FF1F70B5044686B04548FFF723FF30
:10117000236C8BB11620002106F026FE414804F0B6
:1011800095FC606C10B103685B689847236C6364DE
:101190000023236401232370636C002B66D03A483C
:1011A0003A49FFF7A6FD2378666C002B49D0354DF0
:1011B00037493548FFF79DFD284604F077FC35494F
:1011C0003148FFF789FD34492F48FFF785FD336823
:1011D00002A81B693146984702A92B48FFF70FFF69
:1011E00002A807F081F9336830465B6998472B49BC
:1011F0002548FFF77EFD0021294800F055FC00211D
:10120000F0230A46009301903223284604F074FC30
:1012100028464FF4877101F0DFFD822228460D2118
:1012200002F0AAFA28464FF6FF7102F0BDFA1D4BF4
:101230001D49AB612846FFF74FFD2846002101F00C
:10124000CBFD2046FFF7F8FE33683046DB68984751
:101250000C4804F0ADFA0B4804F050FB23781BB1A6
:101260001620012106F0B0FD002323700448FFF78B
:1012700094FE10B9102006F001FE06B070BD00BF4C
:101280007891FF1FFC90FF1F60A3FF1FC312010096
:10129000D21201004B130100DD1201005B130100AB
:1012A0003293FF1F100D01003ABE0000044608B53E
:1012B0000D480D46FFF71DFD206810B12946FFF7C8
:1012C00018FD0D20012106F09FFD01210D2006F0E3
:1012D0007BFDFA2006F0D2FD0D20002106F074FD02
:1012E000FA2006F0CBFDF0E760A3FF1FC26808B547
:1012F0000AB9054902E08A4202DC0449FFF7D6FF39
:10130000436853F8210008BD91140100A0140100A6
:1013100010B5184B1A7802B372B61B78D90707D5E7
:10132000154A1649146809682140154C216011605E
:101330009A0707D5134A1149146849682140104C8F
:10134000616011605B0707D50F4B0C4A1968926802
:101350000A400B498A601A6062B60C4BDA68824216
:1013600007D00B4A1A60D8600A4A40F080401861E2
:101370001A6010BD8890FF1F80E100E07090FF1F91
:101380007C90FF1F84E100E088E100E000C00240A3
:1013900001401F0000001F800A4B1B788BB1D9074A
:1013A00003D5094A1168094A11609A0703D5064A0C
:1013B0005168074A11605B0703D5034B9A68054BD8
:1013C0001A6070478890FF1F7C90FF1F00E100E0CB
:1013D00004E100E008E100E072B60C4B4FF0FF3290
:1013E0000A49C3F80022002283F8082283F8092260
:1013F00001F6546003F50373834243F8083CEDD3D0
:1014000043F8082C024B196062B670477C93FF1FAB
:101410007893FF1F03684BB172B6036893F80822F4
:10142000013A83F8082262B6002303607047FFFF89
:101430002DE9F8432B4B90461A6806460F4699460D
:101440000AB9FFF7C9FF306830B1D0F80032BB42AB
:1014500046D03046FFF7DEFF72B6D9F80010002004
:101460000B4604460546D3F80022BA4212D13DB1DC
:10147000D3F80422C5F80422C9F80030C3F80412D6
:1014800093F80822013283F8082262B633601846C6
:10149000BDE8F88393F80822002AD3F8042218BF85
:1014A000054608BF1C461AB128461D461346DAE712
:1014B000B8F1000F12D08CB13DB1D4F80432C5F8A8
:1014C0000432C9F80040C4F80412012384F8083239
:1014D0000023C4F8007284F80932346062B63068C0
:1014E000BDE8F8837893FF1F70B504460D464FF0B2
:1014F00038401646FFF70CFF204629460122FFF729
:1015000097FF08B9002410E090F80932DB07044681
:101510000BD42846214600F0E3F80028F2D00EB99B
:10152000012300E0052384F80932FFF735FF204648
:1015300070BDF8B505460E464FF038401746FFF728
:10154000E7FE284631460022FFF772FF044618B135
:1015500090F80932DA0705D43046394600F0C0F871
:10156000064600E00126FFF717FF8CB194F8093218
:10157000DB070AD521464FF40072384609F09EFD7C
:101580002846FFF747FF0120F8BD2846FFF742FF36
:101590003046F8BD054B4FF00042DA625863DA6A14
:1015A000002AFCDA014B986BC0B2704700C00240C1
:1015B000064B4FF0004240F08050DA625863DA6A1E
:1015C000002AFCDA014B986B80B2704700C00240E1
:1015D00038B50A4B1B6801220C4683F800210546EA
:1015E000000AFFF7D7FF200CFFF7E2FFA0B2FFF7DA
:1015F000DFFFE8B2FFF7CEFF38BD00BFD0A1FF1F6D
:1016000010B50924FF20FFF7C5FF030603D5013CF1
:1016100014F0FF04F6D110BD10B54FF6FF70FFF7C0
:10162000C7FF04044FF6FF70FFF7C2FF204310BD51
:1016300008B5044B1B68012283F88020FF20FFF7C8
:10164000A9FF08BDD0A1FF1F10B5002144F29500ED
:10165000FFF7BEFFFFF7D4FF0446FFF7E9FF204680
:1016600010BD10B544F687004FF4D571FFF7B0FFF9
:10167000FFF7C6FF012818BF4FF0004402D1FFF763
:10168000CBFF0446FFF7D4FF204610BD10B5002164
:10169000044647F2FF70FFF79BFFFFF7B1FFFFF72C
:1016A000C7FF214646F6FF10FFF792FFFFF7A8FF9E
:1016B0000446FFF7BDFF204610BD10B547F6FF20DA
:1016C0000021FFF785FFFFF79BFF18B9FFF7A4FF85
:1016D000044600E00024FFF7ABFF204610BDFFFFEB
:1016E00010B5254A1278012A034698BF43020C46DA
:1016F00045F2FF101946FFF76BFFFFF781FF28B196
:10170000FFF796FF002010BDFF28F9D1FF20FFF75B
:1017100041FFFE28F8D1194B194A5A635A63002336
:10172000164AD16A11F0F00FFAD015495163926B45
:10173000110AE154E1180233B3F5FF7F4A70EFD18B
:101740000E4BDA6A12F0F00FFAD09A6B84F8FF2190
:10175000110A84F8FE11DA6A12F0F00FFBD0074B81
:101760009B6B084B1B68012483F88040FF20FFF728
:1017700011FF204610BD00BFD4A1FF1F00C00240D2
:10178000FFFF0010D0A1FF1F04307047012380F835
:101790002030704790F820007047704710B503491B
:1017A000044606F0E1FE204610BD00BF981501007A
:1017B00010B5054B03F1080254330446026043623E
:1017C00004F076FB204610BD4015010010B504461C
:1017D000FFF7EEFF204606F085FE204610BDFFFF16
:1017E00008B50448FFF7AAFC0021BDE8084000F056
:1017F00066B900BF3093FF1FB1F90030312B10B52F
:101800000BDC382006F06CFE044603F09BF9214601
:101810000248BDE81040FFF76FBC10BD3093FF1FBA
:1018200008B502490248FFF764FA08BDB315010084
:1018300060A3FF1FA0F12400FFF7F2BF044608B524
:101840000D480D46FFF755FA206810B12946FFF7FD
:1018500050FA0D20012106F0D7FA01210D2006F0E3
:10186000B3FAFA2006F00AFB0D20002106F0ACFACC
:10187000FA2006F003FBF0E760A3FF1F70B5826853
:101880000E46C168914204460FD14D00002D01DC87
:10189000094907E04068C90009F00EFD606018B909
:1018A00006492046FFF7CAFFA560E3686268591C35
:1018B000E16042F8236070BDDD15010012160100E1
:1018C00008B50430FFF7DAFF08BDFFFF2DE9F04748
:1018D00086B0064604F02EFA564B03F10802543344
:1018E000002540F20D194FF0EF0832607362782046
:1018F00002950395CDF81090CDF8148006F0F0FD18
:10190000059B009302AC94E80E00824603F02CFB8A
:101910002046494906F028FE21460AF1680006F0F3
:1019200053FE204606F0E0FDDAF800304349DB6B59
:10193000371D5046984751463846FFF79FFF4FF4F2
:101940008773782002930395CDF81090CDF814801A
:1019500006F0C6FD059B009394E80E00824603F056
:1019600003FB2046364906F0FFFD21460AF16800D8
:1019700006F02AFE204606F0B7FDDAF800303149BD
:10198000DB6B5046984751463846FFF777FF4FF4D8
:101990000773782002930395CDF81090CDF814804A
:1019A00006F09EFD059B009394E80E00824603F02E
:1019B000DBFA2046244906F0D7FD21460AF16800EB
:1019C00006F002FE204606F08FFDDAF800301F49CF
:1019D000DB6B5046984751463846FFF74FFF40F2C1
:1019E0002A33782002930395CDF81090CDF8148017
:1019F00006F076FD059B009394E80E00054603F083
:101A0000B3FA2046124906F0AFFD214605F1680001
:101A100006F0DAFD204606F067FD2B680D49DB6B0A
:101A20002846984738462946FFF728FF304606B033
:101A3000BDE8F087401501003E16010031BE0000F0
:101A400050160100591601006116010074160100BC
:101A5000801601008B16010004F0C6BA04F032B9FA
:101A600008B504F05FFA034832210022BDE80840BF
:101A700003F049BBFC90FF1F0A4B03F1280130B56E
:101A80000A46044653F8045B44F8045B8B42F9D1E0
:101A9000136883625368C362138903864EF27D73B1
:101AA000438630BD9416010030F8110070470531AF
:101AB00030F8110070470A3130F811007047408E3D
:101AC0007047FFFF034B1B7802389840024B1B689E
:101AD00018447047ECA1FF1FE8A1FF1F10B50B7958
:101AE00003718B6883600B7B03730B6903614B6924
:101AF00043618B698361CB69C3610B6A036291F8AF
:101B0000243080F8243091F8253080F8253000F119
:101B1000260201F12603323153F8044B42F8044BFC
:101B20008B42F9D11B78137010BD10B500230361EF
:101B3000CA6942618C8A4A8B42EA04428261C2616C
:101B4000CA7A12F0100F0CBF1A46022280F8252024
:101B50002630CA5C202A04D00133082B00F8012B60
:101B6000F7D10B7A202B11D02E2303700B7A437000
:101B70004B7A202B02D10230093102E083700A3106
:101B800003300B78202B1CBF03700130002303703F
:101B900010BDFFFF2DE9F04F0B7887B0044690464B
:101BA000002B00F0948003AB994611F8015B0DB156
:101BB0002F2D07D10DF11702934213D2202203F8E3
:101BC000012BF7E72E2D16D07E2D07D8A5F1610247
:101BD000192A9CBF203DEDB21D7001330DF1170293
:101BE0009342E2D394F82530032B0BD16369A569A6
:101BF0004FEA532B13E005AA9342EFD2202203F8B9
:101C0000012BF8E7022B62D1A069E061FFF75AFFD0
:101C1000314B1B784FF0010B05460BFA03FB0027F5
:101C20004FF0010A5F4544D206AE4FF0000C46F873
:101C300010CD624630462946CDF800C0FFF754FC6F
:101C4000DDF800C080B30346184649460B220193D5
:101C5000CDF800C009F0FEF9019BDDF800C028B9FD
:101C600040461946FFF761FF01241EE01A78BAF1D9
:101C7000000F06D00AB1E52A06D1C8F8205088F82E
:101C800024C08AB14FF0000A22690CF1010C203205
:101C9000BCF1100F226103F12003D5D1304601358C
:101CA000FFF7B8FB0137BDE700243046FFF7B2FB72
:101CB0000EE094F82530032B09D0204600F076F88A
:101CC00028B1E069FFF7FEFE00270546AAE70024D9
:101CD000204607B0BDE8F08FECA1FF1F30B59BB0E8
:101CE0000C46054600F0BCF82E4B1A798DF80420FE
:101CF0009A6802921A7B8DF80C202B4A00921A697E
:101D000004925A6905929A690692DA6907921A6AE8
:101D1000089293F824208DF8242093F825208DF83C
:101D200025200DF1260103F12602323352F8040B6F
:101D300041F8040B9A42F9D113780B7023782F2BBA
:101D400001D10134FAE723B928466946FFF7C6FEF8
:101D500021E00DA800F084F8684621460DAAFFF79F
:101D600019FF631C1C4613F8012B2F2A02D0002AEE
:101D7000F8D108E060B168460DA9FFF7AFFE0DA8E5
:101D800000F07EF8DAE718B128460DA9FFF7A6FEA5
:101D90000DA800F075F8684600F072F828461BB0F0
:101DA00030BD00BFF0A1FF1FD016010073B502AC1B
:101DB000002344F8043D164BC5691968154B1B7880
:101DC000102B064620460BD101EB15210122FFF70F
:101DD0008BFB08B9002515E0EDB230F815300AE0AC
:101DE00001EBD5110122FFF77FFB0028F2D005F0AF
:101DF0007F0550F82530084AF3611568AB428CBF67
:101E0000002501252046FFF705FB284602B070BDDE
:101E100024A2FF1F28A2FF1F2CA2FF1F13B502AB95
:101E2000026803F8011D546819460122A04702B058
:101E300010BD90F82530012B1CBF01230371002039
:101E40007047704790F82530012B06D84269036926
:101E5000D01A48BF6FF00040704700207047FFFF66
:101E60004FF47A71816005490160002204210271FA
:101E7000027380F8251080F826207047D0160100E4
:101E8000044A0260042280F82520002280F82620DF
:101E9000704700BFD01601002DE9F74F90F82530AC
:101EA000012B04468A4600F29D80016943695B1A52
:101EB0009A4234BF16461E46002E00F09180DFF88D
:101EC00034B1C7699BF800204FF0010902F10908FD
:101ED000023F974009FA08F8454A08F1FF3808EA36
:101EE000010811680F4407EB5827C8F308080022BF
:101EF000B8F1000F31D001A839460192FFF7F4FA8A
:101F000000B3C8F50075AE4200EB0801504605D29B
:101F1000324609F0D3F82369334437E02A4609F002
:101F2000CDF822692A44226101A8FFF773FA9BF8D1
:101F3000003009FA03F9013709F1FF3917EA090FEF
:101F400007D101E005463DE02046FFF72FFF0028BE
:101F500049D0B54247D2AA4400E04546C5EB060940
:101F6000A846C5EB0A030022B9F5007F03EB080B76
:101F7000019201A839460CD2FFF7B6FA014660B1CA
:101F800058464A4609F09AF823694B44236135467E
:101F900018E05A46FFF7CDFA08B9454612E0236922
:101FA00003F50073236101A8FFF734FA114A13788F
:101FB000012202FA03F30137013B1F4208F50078C2
:101FC00008D103E001A8FFF725FA0CE02046FFF74F
:101FD000EDFE18B1B045A9F50079C2D3454602E03F
:101FE000354600E00025284603B0BDE8F08F00BF6D
:101FF000E8A1FF1FECA1FF1F07B501220DF10701AA
:10200000FFF74AFF01280CBF9DF807004FF0FF3093
:1020100003B05DF804FB73B501220DF1070104461E
:102020000669C569FFF738FF012805BF9DF807005D
:1020300026614FF0FF30E56102B070BDF8B590F851
:102040002530012B04460E461CD84369994219D805
:102050000D4B02691B78C769093321FA03F522FA8F
:1020600003F3EB1A46BF8369C3611D463DB12046A9
:10207000FFF79CFE08B9E761F8BD013DF6E7266170
:102080000120F8BD0020F8BDECA1FF1F10B5034BE7
:102090000360044603F088FD204610BDF0160100E1
:1020A00010B50446FFF7F2FF204606F01BFA204663
:1020B00010BDFFFF84B07FB509AC84E80E000C9B17
:1020C000009394E80E00054604AC03F081FD0D4B2F
:1020D0002B604FF6FF7324F8023D2846214601F09D
:1020E00069FF002628462146ADF80E6001F008FF82
:1020F0002846314601F009FF284604B0BDE870408B
:1021000004B07047F0160100044B054A1A60054BF5
:10211000054A1A60054B064A1A607047D8A1FF1F8E
:1021200008170100E0A1FF1F88170100DCA1FF1FB5
:1021300048170100704770B506460020CB080124FF
:10214000F55C01F00703C3F10803934209D89C40F2
:10215000013C98402540D21A45EA00001944EDD1CF
:1021600070BD9B1A904004FA02F21D41013A1540DD
:10217000284370BD10B51446FFF7DDFF621E012332
:1021800003FA02F210421CBF03FA04F4C4EB00008D
:1021900010BD2DE9F84FDDF82C90064692469B467F
:1021A0000F46C9B14C465546D846013D0123AB40C8
:1021B0001F420BD00A9A33684A44121BD3F808C056
:1021C000338A30460FFA88F112B2E04708F101086D
:1021D000002DEAD1013CE6D1BDE8F88F054AD36A6B
:1021E00013F0F00F03F4704318BF926BB3F5405F28
:1021F000F4D8704700C0024038B5044608460D4682
:1022000009F0C6FB236802465B68204629469847CA
:1022100038BDFFFF002AF0B50CBF4FF064524FF0FD
:10222000605200240F4E104FA65B104D97FBF6F640
:10223000B14255F8145004D3190706D542F0806214
:1022400003E002342E2CEDD1F6E75B0707D525F429
:10225000704305F4704542F0007243EA15152A43B5
:102260000260F0BD84BD0000006CDC02B4BD000063
:1022700010B50446FFF7CEFF204610BD2DE9F3410F
:102280000F1E04461646984672DBB0F90830BB4272
:102290006EDD002A6CDBB0F90A30934268DD364906
:1022A000364D0023012201A8FFF7E2FF0198FFF756
:1022B0002FF894F82020120442F0004242F02A0243
:1022C0006A63FFF78BFFE37FBFB247EA034343F044
:1022D00010436B63FFF782FFE37F47EA034747F052
:1022E00010476F63FFF77AFF94F82020120442F042
:1022F000004242F02B026A63FFF770FFE37FB6B241
:1023000046EA034343F010436B63FFF767FFE37F45
:1023100046EA034646F010466E63FFF75FFF94F807
:102320002020120442F0004242F02C026A63FFF7C0
:1023300055FFE37F286848EA034848F0C0536B63C1
:102340000E4AD16A11F0805F134604D111F0F00FEC
:1023500018BF936BF4E74FF08052DA621860DA6AC4
:1023600012F0F00F02D0054A926BF8E7FFF714F86D
:1023700002B0BDE8F08100BF80C3C90100C00240C7
:102380002DE9F3471E460389BDF8287090461AB21E
:10239000914204460D4680F28D80B0F90A10414505
:1023A00040F38880A9199142C8BFC5EB0306434991
:1023B0004FF001024FF0000301A8C8BF36B2FFF78B
:1023C00057FF0198FEF7A4FF94F820301B041FFA72
:1023D00085F943F000433A4D43F02A036B63FFF75E
:1023E000FDFEE37F09F1FF3A49EA034949F0104352
:1023F0006B63B6B2FFF7F2FEB244E37F1FFA8AFACC
:102400004AEA034A4AF010436B63FFF7E7FE94F889
:1024100020301B0443F0004343F02B036B63FFF7B2
:10242000DDFEE37F1FFA88F848EA034343F01043D8
:102430006B63FFF7D3FEE37F48EA034848F010439D
:102440006B63FFF7CBFE94F820301B0443F000438E
:1024500043F02C036B63FFF7C1FE33B2012BE27F25
:10246000174B09DD47EA024242F010425A63013E2F
:10247000FFF7B4FEB6B2F0E747EA024242F0C052BC
:1024800018685A630E4AD16A11F0805F134604D16E
:1024900011F0F00F18BF936BF4E74FF08052DA623F
:1024A0001860DA6A12F0F00F02D0054A926BF8E772
:1024B000FEF772FF02B0BDE8F08700BF80C3C9011C
:1024C00000C002402DE9F04F9046028985B0894650
:1024D00011B2894504461E46BDF93870BDF83CA0CE
:1024E00080F2B08045892BB2984580F2AB8009EB31
:1024F00006008842C8BFC9EB020608EB0702C8BF46
:1025000036B29A42C8BFC8EB050550494FF00102E8
:102510004FF0000303A8C8BF2FB2FFF7A9FE03982E
:102520004B4DFEF7F5FE94F820301FFA89F91B0495
:1025300009F1FF3243F0004343F02A03324492B2E0
:102540006B630192FFF74AFEE37F49EA034949F0D2
:1025500010436B63FFF742FEE37F019A42EA0342B6
:1025600042F010426A63FFF739FE94F820301B04F2
:1025700043F0004343F02B036B63FFF72FFEE37F31
:102580001FFA88F808F1FF3B48EA034848F0104377
:102590006B63FFF723FEBB44E37F1FFA8BFB4BEA21
:1025A000034B4BF010436B63FFF718FE94F8203099
:1025B0001B0443F0004343F02C036B63FFF70EFE54
:1025C0003D46002D3CDD3746012F214BE27F09DDE2
:1025D0004AEA024242F010425A63013FFFF7FEFD11
:1025E0003FB2F1E74AEA024242F0C05218685A6329
:1025F000174BD96A11F0805F1A4604D111F0F00F21
:1026000018BF9B6BF4E74FF08053D3621060D36A1E
:1026100013F0F00702D00E4B9B6BF8E7012D0CD0A6
:10262000EB070AD5FEF7B8FE03A8084901223B468E
:10263000FFF71EFE0398FEF76BFE013D2DB2C0E7CB
:10264000FEF7AAFE05B0BDE8F08F00BF80C3C90148
:1026500000C0024070B503779DF8103080F822303A
:102660009DF8143080F823309DF8183080F8213020
:10267000F02303814FF4A0730025094E8277438134
:102680004FF6FF720123057106604177457585811C
:10269000C58103754282028283758561C58070BDE4
:1026A0004818010013B5B0F90A200468009201919E
:1026B0000021B0F9083024690A46A04702B010BDD5
:1026C00070B590F82030454D1B0443F0004304469C
:1026D00043F036036B630E46FFF780FDE37F06F0A1
:1026E000030161751B040229286843F0006335D09B
:1026F000032951D0012918D043F048036B63374AAE
:10270000D16A11F0805F134604D111F0F00F18BFA9
:10271000936BF4E74FF08052DA621860DA6A12F0D5
:10272000F00F34D02D4A926BF8E743F028036B6327
:102730002A4AD16A11F0805F134604D111F0F00FDC
:1027400018BF936BF4E74FF08052DA621860DA6AD0
:1027500012F0F00F39D0214A926BF8E743F088036A
:102760006B631E4AD16A11F0805F134604D111F0E9
:10277000F00F18BF936BF4E74FF08052DA621860E5
:10278000DA6A12F0F00F02D0144A926BF8E7F023E5
:1027900023814FF4A0731CE043F0E8036B630F4AFE
:1027A000D16A11F0805F134604D111F0F00F18BF09
:1027B000936BF4E74FF08052DA621860DA6A12F035
:1027C000F00F02D0054A926BF8E74FF4A073238113
:1027D000F02363810023A381E38170BD00C0024028
:1027E0002DE9F3410546884617462349234C01222B
:1027F0001E4601A80023FFF73BFD0198FEF788FD68
:1028000095F82000000440F0004040F03300606381
:10281000FFF7E4FCEB7F48EA034848F010436363AA
:10282000FFF7DCFCEB7F47EA034747F0104767639D
:10283000FFF7D4FCEB7F206846EA034646F0C0561B
:1028400066630E4AD16A11F0805F134604D111F01D
:10285000F00F18BF936BF4E74FF08052DA62186004
:10286000DA6A12F0F00F02D0044A926BF8E7FEF732
:1028700093FD02B0BDE8F08180C3C90100C00240F1
:1028800073B50122054600230E4601A81849194CCC
:10289000FFF7EEFC0198FEF73BFD95F820301B0496
:1028A00043F0004343F037036363FFF797FCEB7F8C
:1028B000206846EA034646F0C05666630D4AD16A70
:1028C00011F0805F134604D111F0F00F18BF936B25
:1028D000F4E74FF08052DA621860DA6A12F0F00F13
:1028E00002D0044A926BF8E7FEF756FD02B070BDC5
:1028F00080C3C90100C00240F7B590F822200B2A1E
:10290000044602D0072A40F0D98094F8211001F043
:10291000FB03082B40F0D28094F82300A0F10D03B4
:10292000012B00F2CB800B2A654B03D11A7822F0E1
:10293000010204E0072A03D11A7842F001021A705A
:102940000C2903D11A7822F0020204E0082903D1ED
:102950001A7842F002021A700D281A7840F0AB8003
:1029600022F004021A70FDF77DFD607FA17FFDF764
:10297000D1FD30B3607FFDF701FE0546E077A07F13
:10298000FDF7FCFD284384F82000207FFF281CD0A1
:10299000012105F039FA207F012105F015FA052003
:1029A00005F06CFA207F002105F00EFA142005F0E6
:1029B00065FA207F012105F007FA962005F05EFAFE
:1029C00003E0E07784F8200078E03E493E4D0122A4
:1029D000002301A8FFF74CFC0198FEF799FC297829
:1029E00094F82020394B4F1EFFB2B9B1697841EA03
:1029F000024242F000425A63FFF7F0FBAE1CF519A9
:102A0000AE42ECD016F8013BE27F43EA02422F4B84
:102A100042F000425A63FFF7E1FBF1E7120442F093
:102A2000006242F0110218685A63284BD96A11F00B
:102A3000805F1A4604D111F0F00F18BF9B6BF4E7CA
:102A40004FF08053D3621060D36A204D13F0F0062C
:102A500001D0AB6BF8E7FEF79FFC782005F00EFA8B
:102A600033461849012201A8FFF702FC0198FEF73E
:102A70004FFC94F8203028681B0443F0006343F0B7
:102A800029036B63114AD16A11F0805F134604D1A8
:102A900011F0F00F18BF936BF4E74FF08052DA6239
:102AA0001860DA6A12F0F00F02D0084A926BF8E769
:102AB000FEF772FC02E042F0040253E703B0F0BDFF
:102AC000A4A3FF1F80C3C901C817010000C00240B2
:102AD0002DE9F04F85B01746BDF83C200192044621
:102AE0000122994688460023B949BDF93860B94D9D
:102AF00003A8FFF7BDFB0398FEF70AFC94F820300B
:102B00001B0443F0004343F02A036B63FFF766FBAB
:102B1000E37F1FFA88F848EA034343F010436B63EE
:102B200009F1FF3BFFF75AFBC344E37F1FFA8BFB1E
:102B30004BEA034343F010436B63FFF74FFB94F8FA
:102B400020301B0443F0004343F02B036B63FFF77B
:102B500045FBE37FBFB247EA034343F010436B6397
:102B6000FFF73CFBE37F47EA034343F010436B630B
:102B7000FFF734FB94F820301B0443F0004343F08C
:102B80002C036B63FFF72AFBCA46E37F019A914D42
:102B900042EA034343F010430AF1FF3A6B630FFA32
:102BA0008AFAFFF71BFBBAF1000FEEDC94F8203035
:102BB0001B0443F0004343F02A036B63FFF70EFB53
:102BC000E37F48EA034343F010436B63FFF706FBE0
:102BD000E37F4BEA034343F010436B63FFF7FEFAD6
:102BE00094F820301B0443F0004343F02B036B6345
:102BF00006F1FF3AFFF7F2FABA44E37F1FFA8AFAC6
:102C00004AEA034343F010436B63FFF7E7FAE37FBD
:102C10004AEA034343F010436B63FFF7DFFA94F88B
:102C200020301B0443F0004343F02C036B63FFF799
:102C3000D5FAE37F019A674D42EA034343F010431C
:102C400009F1FF396B630FFA89F9FFF7C7FAB9F198
:102C5000000FEEDC94F820301B0443F0004343F0F7
:102C60002A036B63FFF7BAFAE37F48EA034343F0B2
:102C700010436B63FFF7B2FAE37F48EA034848F07A
:102C800010436B63FFF7AAFA94F820301B0443F05B
:102C9000004343F02B036B63FFF7A0FAE37F47EA9F
:102CA000034343F010436B63FFF798FAE37F4AEA6C
:102CB000034343F010436B63FFF790FA94F820301E
:102CC0001B0443F0004343F02C036B63FFF786FAC9
:102CD000B046E37F019A3F4D42EA034343F010437D
:102CE00008F1FF386B630FFA88F8FFF777FAB8F14D
:102CF000000FEEDC94F820301B0443F0004343F057
:102D00002A036B63FFF76AFAE37F4BEA034343F05E
:102D100010436B63FFF762FAE37F4BEA034B4BF020
:102D200010436B63FFF75AFA94F820301B0443F00A
:102D3000004343F02B036B63FFF750FAE37F47EA4E
:102D4000034747F010476F63FFF748FAE37F4AEA0B
:102D5000034A4AF010436B63FFF740FA94F82030BF
:102D60001B0443F0004343F02C036B63FFF736FA78
:102D7000E37F019A174D42EA034343F01043013EBB
:102D80006B6336B2FFF72AFA002EF1DC94F820309C
:102D900028681B0443F000636B630E4AD16A11F08C
:102DA000805F134604D111F0F00F18BF936BF4E766
:102DB0004FF08052DA621860DA6A12F0F00F02D037
:102DC000044A926BF8E7FEF7E7FA05B0BDE8F08F2A
:102DD00080C3C90100C00240C18070472DE9F04F97
:102DE00004468FB09046B4F90820BDF86000049006
:102DF0008A420E46BDF864B09DF8685040F30882E0
:102E0000B4F90A20424540F30382062212FB051260
:102E1000002A40F3FD814FF0080919FB0582002AC2
:102E200040F3F68158450FFA83FA40F03781012DBF
:102E30000AEB8A0A11D0AB00E9189BB209936B0028
:102E4000EA189BB20A92CDF81CA008910B93CDF81A
:102E5000149000224FF0010BBBE01FFA88F707F136
:102E6000080B1FFA8BFBA84600231D468A4A5244D2
:102E7000D25C18EA020F18BF45F0010501336D005E
:102E8000052BEDB2F2D16D084FF00009002D62D094
:102E90001F2D0AD123680498009009EB0601DD6814
:102EA000204609B23AB205230BE01E2D0BD1236850
:102EB000049A009209EB0601DD68204609B23AB295
:102EC0000423A84747E005F01C031C2B12D12368FC
:102ED000049800901FFA89F909EB0601D3F80CC099
:102EE000204609B23AB203232D01E047EDB209F1C1
:102EF00004092DE005F01803182B12D12368049A59
:102F000000921FFA89F909EB0601D3F80CC020469C
:102F100009B23AB20223ED00E047EDB209F103092C
:102F200016E0EA0610D523681FFA89F909EB0601B5
:102F3000D3F808C0049B204609B23AB2AD00E0477E
:102F4000EDB209F1020903E06D00EDB209F10109EA
:102F50001FFA89F99AE70137BFB24FEA48085F457F
:102F60005FFA88F880D153E14B4907980144C95C66
:102F70001BEA010F18BF47F0010701337F00052B43
:102F8000FFB2F1D192B205FB02897F0806921FFAC7
:102F900089F94FF0000A77B11F2F1DD12368049AD9
:102FA000019200950AFB05611F69089B204609B242
:102FB0000FFA89F2B84705980699431E4FEA4B0B62
:102FC0004A1C9BB25FFA8BFB92B20593002B00F078
:102FD0001F8100231F46C7E71E2F0CD123680498CA
:102FE00001900AFB056100951F69099B204609B203
:102FF0000FFA89F2DEE707F01C031C2B14D12368BB
:10300000049A01921FFA8AFA05FB0A610095D3F827
:1030100010C00A9B204609B20FFA89F23F01E0472F
:10302000FFB20AF1040A33E007F01803182B14D199
:103030002368049801901FFA8AFA05FB0A6100953B
:10304000D3F810C00B9B204609B20FFA89F2FF009B
:10305000E047FFB20AF1030A1AE0FB0614D5226822
:10306000049801901FFA8AFA2BB205FB0A610093BB
:10307000D2F810C0204609B20FFA89F2BF00E0472B
:10308000FFB20AF1020A03E07F00FFB20AF1010A6F
:103090001FFA8AFA7FE700BF2C0D01005E495F4FDF
:1030A000012200230DA8FFF7E3F80D98FEF730F991
:1030B00094F82030B6B205EB45021B0406EB420241
:1030C00043F0004343F02A03013A92B27B63029239
:1030D000FFF784F8E37F46EA034646F010467E6336
:1030E000FFF77CF8E37F029A42EA034242F0104283
:1030F0007A63FFF773F894F820301B0443F0004321
:1031000043F02B037B63FFF769F8E37F1FFA88F82E
:1031100048EA034343F010437B63FFF75FF808EB93
:10312000C503E27F013B9BB243EA024343F01043F5
:103130007B63FFF753F894F820301B0443F00043FF
:1031400043F02C037B63FFF749F80AEB8A0A4FF040
:1031500001080027FBB2AB422FD20026304B049A65
:1031600053449B5D18EA030F08BF5A460023D9B2A7
:10317000A9420ED2E07F294942EA004040F01040C7
:10318000486302920393FFF729F8039B029A0133E5
:10319000EDE70136052EE1D10026F3B2AB420AD2AB
:1031A000E27F1E4B4BEA024242F010425A63FFF7A5
:1031B00015F80136F1E70137CCE709F1FF394FEA9D
:1031C00048081FFA89F95FFA88F8B9F1000FC0D1F1
:1031D00094F82020114B120442F0006218685A63E0
:1031E0000E4AD16A11F0805F134604D111F0F00F3E
:1031F00018BF936BF4E74FF08052DA621860DA6A16
:1032000012F0F00F02D0054A926BF8E7FEF7C4F80F
:103210000FB0BDE8F08F00BF80C3C90100C00240FD
:103220002C0D01002DE9F84FDDF83480044693465B
:103230009A46894659B345460B9F5E46013E012397
:10324000B34019EA030F1DD0E3885A2B08D10C981C
:103250000A9A2368C8EB0A01091A29443A440AE089
:10326000B3F5877F0ED10C9A0A98236808EB0A0100
:103270001144491BC21BD3F808C0238A204609B257
:1032800012B2E0470137002ED8D1013DD4D1BDE8BC
:10329000F88F2DE9F04F8669B37B994289B00446D7
:1032A00006D3F27B914203D8C91AB37C59430EE08E
:1032B000327C9142C0F0F080707C814200F2EC8060
:1032C000F07B0130C31A19448A1AB17C5143B27C95
:1032D0003068FEF730FFB568054428460021032218
:1032E000FEF729FF8046002840F0D68096F813A00C
:1032F000032152462846FEF71EFF377D05900AF14E
:10330000030A51463A462846FEF715FF96F815B0CF
:10331000BA4451465A4681462846FEF72BFFD3440D
:1033200096F816A00746594652462846FEF722FF51
:10333000DA4496F817B0844651465A462846CDF8E6
:1033400010C0FEF7F8FEB4F90C30E288DDF810C0CA
:10335000002BE389B8BFA4F80C8019B25A2A14BF15
:10336000C7EB0101C919069196F81980A18908FADD
:1033700081F8C9EB0808B8EB0C0803D5C91BA1817B
:103380004FF00008DDF814C0B4F90810C4448C45AF
:103390000EDDA17D00297FD0002FABBF00217F4231
:1033A000A181A781367EA1893144A1814FF0000817
:1033B000B4F90A6019B28E426EDD5A2A01D1034473
:1033C00003E0B2F5877F01D11B1AE381DA440027BD
:1033D000B9F1000F60D04FEADA030AF10106EA5CA6
:1033E0006FEA0A0303F0070342FA03F313F0010341
:1033F00022D19A46059BCAEB030BBBF1200F28BFD5
:103400004FF0200B31465A462846FEF794FE069BA5
:1034100002978DE8080401230146039320464346A2
:103420005A46FFF7FFFE059BDA449A455E44E1D316
:10343000013709F1FF392DE0314628460322FEF716
:103440007AFE02300AF1040607904FF0000A059B4D
:10345000CAEB030CBCF1200F34BFE3464FF0200B46
:1034600031465A462846FEF766FE069B02978DE8CF
:103470000804079B03930146434620465A46FFF73C
:10348000D1FE059BDA449A455E44E0D3079B1F4476
:10349000C3EB0909B2469BE709B0BDE8F08F2DE9FF
:1034A000F04F8569AB7B994287B0044606D3EA7B2F
:1034B000914203D8C91AAB7C59430EE02A7C914251
:1034C000C0F00F81687C814200F20B81E87B013003
:1034D000C31A19448A1AA97C5143AA7C2868FEF7AA
:1034E0002AFEAE680644304600210322FEF723FE82
:1034F0000746002840F0F58095F813A003215246B6
:103500003046FEF718FE95F8148004900AF1030A7D
:10351000514642463046FEF70EFE95F81590C244DD
:1035200051464A4683463046FEF724FECA4495F883
:10353000169051464A4680463046FEF71BFECA4466
:1035400095F8179084464A4630465146CDF80CC04F
:10355000FEF7F1FDB4F90C20DDF80CC0002AB8BF6D
:10356000A781A28908FA82F7002F034603DAC8EB85
:103570000202A28100270499B4F90820394491423B
:1035800011DDA27D002A00F0AC80B8F1000FABBFC6
:103590000022C8F10008A281A4F80C80297EE289EB
:1035A0000A44E2810027B4F90A10B4F90E209142CE
:1035B00040F39780A1895818A08195F819E0608A96
:1035C000019002EB0E052068CDF800E0CBEB05057D
:1035D0001BB2CCEB050509B2D0F810C02046E0477D
:1035E000A369B4F90E805B7E984408F1FF38CBEBF9
:1035F0000808B4F90E30984510DB2368628ADDF8BC
:1036000010E00092D3F80CC00FFA88F2204639B2CD
:103610000FFA8EF3E04708F1FF38EAE7CA44BBF13E
:10362000000F5ED04FEADA036FEA0A09F35C09F093
:10363000070943FA09F919F001090AF1010821D132
:103640000498C9EB000ABAF1200F28BF4FF0200AF6
:10365000414652463046FEF76EFD23680095012232
:1036600001920146D3F814C0524609EB07032046E5
:10367000E047049AD1449145D044E1D301350BF1A0
:10368000FF3B2CE0414630460322FEF754FD02305A
:1036900005900AF104084FF00009049BC9EB030AE6
:1036A000BAF1200F28BF4FF0200A4146524630465B
:1036B000FEF741FD23680095014605980190D3F877
:1036C00014C0524609EB07032046E047049AD14450
:1036D0009145D044E1D3059B1D44C3EB0B0BC2467F
:1036E0009DE707B0BDE8F08F7FB5856904460B46BE
:1036F00095B10A2902D1002383813AE0C2885A2A6F
:1037000002D0B2F5877F04D120461946FFF7C1FDEC
:103710002FE0FFF7C4FE2CE00A2904D1027DC38903
:1037200003EBC20323E00D2923D0068AB0F90C1065
:10373000B0F90E200096468A0196067D0296FFF7A4
:103740004DFB237DA28903EB430102EB4102A17DE6
:1037500092B2A28169B1B4F908106FF0050012B2FB
:1037600000FB03118A4204DDE28902EBC303E3811B
:10377000A581012004B070BD002910B506DB0389C6
:103780001CB2A14203DB591E09B200E00021002A4D
:10379000818106DB438919B28A4203DB5A1E12B2C9
:1037A00000E00022C28110BD418201827047018287
:1037B00042827047407D7047F8B50C46897B8A424B
:1037C00006D3E37B934203D3521AA17C51430CE00E
:1037D000237C9A4237D3607C904234D3E07BD31A67
:1037E0000344A07C591A01FB0001A27C2068FEF76B
:1037F000A2FCA5680544284600210322FEF79BFC95
:1038000008BBE77C28463A460321FEF794FC267D58
:103810000337394632462846FEF78DFC3744667D2D
:10382000394632462846FEF7A5FC3744A67D394680
:1038300032462846FEF79EFC2846B919E27DBDE8CF
:10384000F840FEF778BC0020F8BDFFFF2DE9F041FD
:1038500000240746884616462546B3689C420BD28C
:103860002146304604F02BFF414602463846FFF71A
:10387000A3FF01340544F0E70B490C48FEF7BCFCFC
:1038800031460A4804F03BFD09490848FEF7B4FCFC
:1038900029460A220023054804F062FD034804F08B
:1038A0004FFD2846BDE8F0813018010060A3FF1FDE
:1038B0003A1801007B4B2DE9F3417B4D53F8303032
:1038C0002B600124794B21461C7004F09DFA2B6873
:1038D00083F88040FCF7C6FD4FF03840FDF718FD37
:1038E0000522734B4FF00041D96272495963D96A7E
:1038F0000029FCDA6E4B9B6B531E13F0FF02F0D1D4
:103900006D4C2668FDF7A0FE012805460AD0FDF79C
:1039100043FD23689B1BFA2B18D84FF03840FDF766
:10392000F7FCEFE7FDF79DFEB0F1004F03D1634BCD
:103930001D7000250CE0B0F5D57F05D15F4B02224C
:103940001A704FF0804503E0FDF726FD0024A5E046
:1039500027682846FDF79AFE064670B1FDF71CFD64
:10396000012EF3D8226840F2DC53D21B9A42EDD8E4
:103970004FF03840FDF7CCFCEBE7504C2378022B9E
:1039800005D1FDF79AFE800F032808BF207002AD15
:103990000024FDF701FD45F8044D22462846214646
:1039A000FDF7A2FDB0F8FE214AF655239A4201D058
:1039B000002470E090F8C231062B02D00B3B012BA3
:1039C00001D8D0F8C6412846FDF724FD2146002243
:1039D0002846FDF789FDB0F8FE114AF655229142BE
:1039E0000346E5D1B0F80B20B2F5007FE0D1027CB0
:1039F000022ADDD1C689002EDAD090F80DC0304AF7
:103A0000C08ABCFA8CFCCCF11F0C82F800C000B953
:103A1000586AB3F811E0B3F813700EF10F010909F9
:103A200007B91F6A274A344414600219264CBE1B8A
:103A3000226000EB0108254C711A9044A1EB400173
:103A4000C4F8008021FA0CF1214C4E1C266040F68F
:103A5000F474A142ACD94FF6F474A1421D491E4C36
:103A600008D810230B7010444FEA4E136361A06115
:103A7000032306E02022DB6A0A700022A361626150
:103A8000022384F82530A369E361284600232361DB
:103A9000FDF7C0FC01242846FDF7BCFC204602B01F
:103AA000BDE8F081F8250100D0A1FF1FD5A1FF1FBF
:103AB00000C00240FFFF00105CA3FF1FD4A1FF1F46
:103AC000ECA1FF1F24A2FF1FE4A1FF1FE8A1FF1F1D
:103AD0002CA2FF1F28A2FF1FF0A1FF1F10B5054C4D
:103AE0002046FEF7BDF920460349044ABDE81040D0
:103AF00006F0CCBFF0A1FF1F811E00006087FF1FF2
:103B000081677047A0F87C107047B0F87C00704760
:103B100082B010B586B0044608A880E80C0002A860
:103B200004F05AFD0AAB93E803008DE8030008A9EE
:103B300091E80C00204602A900F0ACF802A804F0BD
:103B4000D3FC114B114903F10802226003F1580222
:103B500068336262A36204F1140004F050FD002394
:103B6000A36784F8873084F88630204600F012F985
:103B70004FF6FF73C4F880002046A4F8843006B0E6
:103B8000BDE8104002B070477018010060180100D5
:103B900038B5044681B9856E02F0FDFD236868875B
:103BA00020469D6B00F0F6F801462046A847A36E1C
:103BB000B4F874201A871CE001291AD10368856EB5
:103BC0005B6C98476887A36EB4F884201A8794F8D2
:103BD0008630012B236805D09B6BD4F880102046DB
:103BE000984706E020469D6B00F0D4F80146204639
:103BF000A847236820465B69984738BD08B501216E
:103C0000FFF7C6FF012008BD90F88630012B10B5E4
:103C1000044608D190F88710D1F1010138BF002186
:103C200080F8871000E00021FFF7B2FFA06F18B105
:103C3000036821461B689847012010BD0021FFF74B
:103C4000A7BF90F887308B4218BF80F88710704765
:103C500038B504460D4600F011F8D4F880300BB9A1
:103C6000C4F8805038BD10B5044600F09BF82046DB
:103C700094F88710BDE81040FFF78ABF08B5036FBE
:103C80008B4206D0836E016703B1596303685B6999
:103C9000984708BD82B073B50E4606A981E80C00AE
:103CA000099B00930EC9044602F078FD184B03F1FE
:103CB0000802226004F1580503F14C025C33626291
:103CC000A3622846002104F04FFC0123314684F80A
:103CD0006C3084F86D30284604F076FC0D4B236779
:103CE0000D48FDF72BFA0021FDF7E1FE4FF6FF73BB
:103CF000A4F87400E38704F11400084904F07FFC81
:103D000000232046A36602B0BDE8704002B07047B1
:103D1000E0180100640C01003093FF1F40190100FE
:103D200010B50446583004F04FFC236820465B6908
:103D3000984710BD10B590F86C208A42044609D00F
:103D4000806E84F86C1008B102F066FB2368204690
:103D50005B69984710BD08B5B0F874308B4207D046
:103D6000836EA0F8741003B1198703685B699847E4
:103D700008BD10B590F86D208A42044609D0806EC7
:103D800084F86D1008B102F052FB236820465B698D
:103D9000984710BD006F704702F0C8BC02F070BCBD
:103DA00002F070BC70B500F12C0304460FCB86B056
:103DB00002AD85E80F00442004F092FB059B0093C0
:103DC000064695E80E0002F007FBB4F87430A666CC
:103DD0003387E38F738704F15803F363A36E226F75
:103DE0005A63A06E94F86C1002F016FBA06E94F863
:103DF0006D1002F01CFB2368A16E9B69204698475A
:103E0000204606B0BDE8704002F05CBD002380F89B
:103E100028307047044608B50D480D46FCF769FF89
:103E2000206810B12946FCF764FF0D20012103F042
:103E3000EBFF01210D2003F0C7FFFA2004F01EF86C
:103E40000D20002103F0C0FFFA2004F017F8F0E77E
:103E500060A3FF1F10B5036884680A681C44A2426F
:103E600010DC8C6822449A420CDB4368C0684A68C4
:103E70001844824206DCC86810449842B4BF00204F
:103E8000012010BD002010BD0E4B10B500210446CE
:103E900040F8143B04F068FB0B4B2360012384F8CB
:103EA000283000236385A38584F82E302363074BD5
:103EB0001A6801321A60064A13686362591C11605D
:103EC000204610BDD8230100F81B01006091FF1FA0
:103ED0007491FF1F84B070B505AC064684E80E00EF
:103EE000FFF7D2FF94E80F00351D85E80F0000238F
:103EF00030463363BDE8704004B07047408D704772
:103F00000B8883857047808D704780F82E1070472E
:103F100090F82E007047036B2BB1D8680028CCBFF7
:103F200000200120704701207047FFFF70B5056B2E
:103F3000064695B9102004F0D3FA04468560C560A2
:103F40000560082006F0DAFD606018B920460449D3
:103F5000FFF760FF0223A3603463306B70BD00BFC6
:103F60004A190100F8B50B4E4F68044630460D461D
:103F700001F07CFB97FBF0F303FB1077304601F078
:103F80007CFB05F108010EC9384484E80F00204687
:103F9000F8BD00BFFC90FF1F1FB5044604496846EA
:103FA00001F074FB6846211DFFF754FF04B010BDFB
:103FB000FC90FF1F036B70B505460E4613B933889E
:103FC0006B8570BDDB68002BF9DD0024286BC368AE
:103FD0009C42F4DAA1B2FDF789F93146FFF7EAFF16
:103FE0000134F3E72DE9F0410D4641688D4286B07A
:103FF000044617461E4637DDC3680B449D4233DA3C
:10400000BAB1A268236902913420691A039204911B
:10401000059304F065FA059B009302AB80460ECB36
:10402000FEF748F8404604F12A01FFF7C3FFC7F83E
:104030000080E6B1211D0EC91944491B2369029570
:10404000342003920491059304F04AFA059B0093EF
:1040500002AB05460ECBFEF72DF8284604F12A01E7
:10406000FFF7A8FF356002E000233B60336006B035
:10407000BDE8F0812DE9F0410D4681688D4286B0A2
:10408000044617461E4638DD03690B449D4234DA68
:10409000BAB1E368626803913420691A029204930A
:1040A000059104F01DFA059B009302AB80460ECBF0
:1040B000FEF700F8404604F12A01FFF77BFFC7F83E
:1040C0000080EEB12269A168E36803951144491BA1
:1040D0006268029234200493059104F001FA059B72
:1040E000009302AB05460ECBFDF7E4FF284604F132
:1040F0002A01FFF75FFF356002E000233B60336079
:1041000006B0BDE8F081FFFF70B5036B86B00446D2
:104110000D464BB3DB68002B26DD0026206BC36801
:104120009E4207DAB1B2FDF7E1F82946FFF7ECFF4E
:104130000136F3E794F82E30002B3ED094F8283067
:10414000002B3AD0B4F910000090A08D0190B4F982
:104150000410B4F90820B4F90C301948FEF7B8FC83
:10416000002384F8283028E002A82146FFF7FAFE51
:104170005DB12B6820461E6902F078FAC36800938F
:1041800090E80E002846B047B8B994F82830A3B19B
:104190002046FFF701FF58B10A490B48FCF7A9FD7B
:1041A0002246204652F8043B02A9DB689847D7E72D
:1041B00006490548FCF79DFDD2E706B070BD00BF7B
:1041C000FC90FF1F5D1A010060A3FF1F651A01002C
:1041D000F8B5036B04460F4616468BB1DB68002B1F
:1041E0000EDD0025206BC3689D4208DAA9B2FDF7F9
:1041F0007DF839463246FFF7EBFF0135F2E7F8BDAF
:10420000201D3146FFF726FE30B123682046DB68CB
:10421000394632469847F8BDF8BD84B0F7B509ACC9
:1042200084E80E00036B0746A3B100250EE0A9B297
:10423000FDF75CF80646FFF76EFED0B1304602F09F
:1042400015FA099A0168914206D00135386BC368A6
:104250009D42ECDB002019E041680A9A9142F4D1BA
:1042600081680B9A9142F0D1C2680C9B9A42ECD1C2
:104270000BE030680C9B0093D0F810C094E80E005F
:104280003046E0470028E0D000E0304603B0BDE80B
:10429000F04004B07047FFFF38B512490446124899
:1042A000FCF71AFD11491048FCF716FD0E4804F101
:1042B0001401FCF7A4FE236B1BB9012384F82830FA
:1042C00038BDDB68002BF8DD0025206BC3689D42FC
:1042D000F3DAA9B2FDF70AF803685B69984701357C
:1042E000F3E700BFD91A010060A3FF1F711A010094
:1042F00038B50D1E044601DC064907E04068A900F8
:1043000006F0DAFF606018B903492046FFF782FD26
:10431000A56038BDDD1501001216010038B50D4647
:10432000FFF704FEC16882689142044602D1490049
:10433000FFF7DEFFE3686268591CE16042F8235032
:1043400038BDFFFFF0B5744E96F8243085B00446B2
:104350000D461BB171487249FCF7CBFC2046FFF7B4
:10436000DAFD96F8243008BB1BB16C486D49FCF7A8
:10437000C0FC96F824301BB168486B49FCF7B9FCC7
:104380000027236BDB689F4280F2C38096F82430BD
:104390001BB162486549FCF7ACFCB9B2206BFCF775
:1043A000A5FF2946FFF7CEFF0137EAE71BB15B48BF
:1043B0005F49FCF79EFC201D2946FFF74BFD0028B6
:1043C00000F0A78096F824301BB154485949FCF7F7
:1043D00090FC002300930193029303932A6863687F
:1043E0009A4203DDE16819448A4208DBA9680A445D
:1043F0009A4245DDE1680B449A4241DA1DE096F8A5
:1044000024301BB145484C49FCF773FC01AB6A46AC
:1044100020462968FFF7E6FD20460099FFF77EFF5A
:1044200020460199FFF77AFF96F824301BB13B48EC
:104430004249FCF75EFC01981EE096F824301BB15F
:1044400036483F49FCF755FCAB6829686A46194471
:10445000204601ABFFF7C6FD20460099FFF75EFF3F
:1044600020460199FFF75AFF96F824301BB12B48DC
:104470003449FCF73EFC00982946FFF763FF48E00B
:104480006A68A3689A4203DD216919448A4208DBFD
:10449000E9680A449A423CDD21690B449A4238DAC1
:1044A0001DE096F824301BB11C482749FCF721FC7D
:1044B00003AB02AA20466968FFF7DCFD204602999B
:1044C000FFF72CFF20460399FFF728FF96F82430CA
:1044D0001BB112481D49FCF70CFC0398CCE796F879
:1044E00024301BB10D481A49FCF703FCEB686968DE
:1044F00020461944002203ABFFF7BCFD2046039978
:10450000FFF70CFF96F824301BB104481149FCF763
:10451000F0FB05B0F0BD00BFFC90FF1F60A3FF1FC4
:10452000E91A0100FB1A0100191B01002B1B0100F5
:10453000391B01004B1B01005D1B01006F1B0100BB
:10454000811B0100931B0100A51B0100B71B01008B
:10455000C91B0100DB1B010038B5036B05465BB9C5
:1045600038BD013A5968DA6051F822404AB91CB1A5
:10457000236820469B6898472B6BDA68002AF0DC9A
:1045800006E09968042091FBF0F0824203DDEEE73B
:104590000022DA6038BD1846022391FBF3F1FFF7E1
:1045A000A7FEE4E738B5104B0360104B1A680546C8
:1045B00001321A60FFF7D0FF2C6B54B1606806F02F
:1045C000A5FA002363602360A360E360204603F044
:1045D00089FF284600232B63054B40F8143B03F06A
:1045E00083FF284638BD00BFF81B0100F890FF1F6D
:1045F000D823010010B50446FFF7D4FF204603F08E
:1046000071FF204610BDFFFF84B037B507AC84E8CA
:104610000E000A9B009394E80E00054602F018F87D
:104620000448012385F8283003B0BDE8304004B0C9
:1046300000F060BDFC90FF1F7047FFFF10B50349FD
:10464000044603F091FF204610BD00BF101C01007E
:1046500008B50448FCF772FD0021BDE80840FDF7ED
:104660002ABA00BF3093FF1F10B5054B03F10802B3
:10467000543304460260436201F01AFC204610BD28
:10468000D01C010010B50446FFF7EEFF204603F0F2
:1046900029FF204610BDFFFF38B505460C461348DC
:1046A0001349FCF726FB13481349FCF722FBAB6ABE
:1046B0009C4202D10F48114910E0EB6A9C4202D1A2
:1046C0000C480F490AE06B6B9C4202D109480D4926
:1046D00004E02B6B9C4203D106480B49FCF709FB15
:1046E0000A490448FCF705FB38BD00BF60A3FF1F63
:1046F0002E1C010074A3FF1F5B1C01005F1C010046
:10470000661C01006E1C0100751C01007D1C01006F
:10471000A0F12400FFF7C0BF2DE9F04F8FB0044691
:1047200001F008FBB74BB84903F10802543322608B
:10473000636206A8002503F017FF4FF09F0A4FF0B1
:10474000770B8820CDF830A0CDF834B00A950B95C2
:1047500003F0C6FE0CAB074693E803008DE80300A8
:104760000AAE06A90593384696E80C00FFF7D0F983
:10477000A762A64F06A803F0B7FE3846D4F82880F3
:10478000FCF7DCFC2946FDF796F9A8F8400038460E
:10479000D4F82880FCF7D2FC2946FDF790F90146B1
:1047A000404601F0F6FFD4F82880D8F800303846AB
:1047B000D3F84090FCF7C2FC2946FDF775F9014695
:1047C0004046C8473846D4F82880FCF7B7FC29464D
:1047D000FDF771F901464046FFF7BDFAA36A8C491F
:1047E00083F84250D4F82880304603F0BDFE3146AD
:1047F00008F1140003F0E8FE304603F075FEA06AED
:10480000036804F1240904F10408DB6B4946984766
:104810004046A16AFDF732F87E4906A803F0A4FEDF
:10482000A02388200A93CDF830A0CDF834B00B95A2
:1048300003F056FE059B834693E803008DE80300D2
:1048400006A996E80C005846FFF762F9C4F82CB0A8
:1048500006A803F049FE3846D4F82CB0FCF76EFCED
:104860002946FDF728F9ABF840003846D4F82CB0BB
:10487000FCF764FC2946FDF722F90146584601F091
:1048800088FFE36A1A683846D2F840B00393FCF711
:1048900055FC2946FDF708F9039B01461846D84701
:1048A0003846D4F82CB0FCF749FC2946FDF703F94B
:1048B00001465846FFF74FFAE36A574983F84250DA
:1048C000D4F82CB0304603F04FFE31460BF1140003
:1048D00003F07AFE304603F007FEE06A03684946BB
:1048E000DB6B98474046E16AFCF7C8FF4B4906A8D6
:1048F00003F03AFE4FF0780B8820CDF82CB0CDF8BD
:1049000030A0CDF834B00A9503F0EAFD059B84464B
:1049100093E803008DE8030006A996E80C006046C2
:10492000CDF810C0FFF7F4F8DDF810C0C4F834C0BB
:1049300006A803F0D9FD636B03933846FCF7FEFB32
:104940002946FDF7B8F8039BA3F84000636B039377
:104950003846FCF7F3FB2946FDF7B1F8039B014607
:10496000184601F016FF626B136838461B6C039300
:104970000492FCF7E3FB2946FDF796F8049A039BA3
:10498000014610469847636B03933846FCF7D6FB05
:104990002946FDF790F8039B01461846FFF7DBF91F
:1049A000636B1F490393304603F0DEFD039B3146E2
:1049B00003F1140003F008FE304603F095FD636B2D
:1049C00083F84250606B03684946DB6B984740466A
:1049D000616BFCF753FF134906A803F0C5FDA02344
:1049E00088200A93CDF82CB0CDF830A0CDF834B0A3
:1049F00003F076FD059B824693E803008DE80300F3
:104A000012E000BFD01C0100811C01003093FF1F89
:104A1000861C0100901C0100971C0100A31C0100D2
:104A2000AA1C0100B61C010006A996E80C0050461D
:104A3000FFF76EF8C4F830A006A803F055FD38461D
:104A4000D4F830A0FCF77AFB2946FDF734F8AAF831
:104A500040003846D4F830A0FCF770FB2946FDF73B
:104A60002EF80146504601F094FED4F830A0DAF852
:104A700000303846D3F840B0FCF760FB2946FDF71C
:104A800013F801465046D8473846D4F830A0FCF712
:104A900055FB2946FDF70FF801465046FFF75BF935
:104AA000276B0E49304603F05FFD314607F11400D5
:104AB00003F08AFD304603F017FD236B83F8425064
:104AC000206B03684946DB6B98474046216BFCF737
:104AD000D5FE20460FB0BDE8F08F00BFBE1C010020
:104AE00001F0F0B87047FFFF10B50349044603F02A
:104AF0003BFD204610BD00BF801D010008B50448E5
:104B0000FCF71CFB0021BDE80840FCF7D4BF00BF48
:104B10003093FF1F10B5054B03F1080254330446D0
:104B20000260436201F0C4F9204610BD281D010057
:104B300010B50446FFF7EEFF204603F0D3FC2046F5
:104B400010BDFFFF2DE9F04F8FB0044601F0F2F8E1
:104B5000B94BBA4903F1080254332260636206A8D4
:104B6000002503F001FD4FF09F0A4FF0770B8820DE
:104B7000CDF830A0CDF834B00A950B9503F0B0FC19
:104B80000DF13008064698E803008DE803000AAFEF
:104B900097E80C0006A93046FEF7BAFFA662A84EB9
:104BA00006A803F0A1FC3046D4F82890FCF7C6FA1A
:104BB0002946FCF780FFA9F840003046D4F8289039
:104BC000FCF7BCFA2946FCF77AFF0146484601F09B
:104BD000E0FDD4F82890D9F8003030461B6C0393E0
:104BE000FCF7ACFA2946FCF75FFF039B01464846F9
:104BF00098473046D4F82890FCF7A0FA2946FCF7ED
:104C00005AFF01464846FFF7A6F8A36A8D4983F884
:104C10004250D4F82890384603F0A6FC394609F1F2
:104C2000140003F0D1FC384603F05EFCA06A04F1E6
:104C30002403059303680599DB6B04F10409984785
:104C40004846A16AFCF71AFE7F4906A803F08CFCCF
:104C5000A02388200A93CDF830A0CDF834B00B956E
:104C600003F03EFC834698E803008DE8030006A9A4
:104C700097E80C005846FEF74BFFC4F834B006A87E
:104C800003F032FC3046D4F834B0FCF757FA29462A
:104C9000FCF711FFABF840003046D4F834B0FCF715
:104CA0004DFA2946FCF70BFF0146584601F071FD0D
:104CB000636B1A683046D2F840B00393FCF73EFAB3
:104CC0002946FCF7F1FE039B01461846D8473046BB
:104CD000D4F834B0FCF732FA2946FCF7ECFE014672
:104CE0005846FFF738F8636B584983F84250D4F8B8
:104CF00034B0384603F038FC39460BF1140003F0A9
:104D000063FC384603F0F0FB606B05990368DB6BCE
:104D100098474846616BFCF7B1FD4D4906A803F082
:104D200023FC4FF0780B8820CDF830A00A95CDF801
:104D30002CB0CDF834B003F0D3FB844698E80300E0
:104D40008DE8030006A997E80C006046CDF810C076
:104D5000FEF7DEFEDDF810C0C4F82CC006A803F094
:104D6000C3FBE36A03933046FCF7E8F92946FCF7F6
:104D7000A2FE039BA3F84000E36A03933046FCF7CE
:104D8000DDF92946FCF79BFE039B0146184601F01E
:104D900000FDE26A136830461B6C03930492FCF733
:104DA000CDF92946FCF780FE049A039B0146104684
:104DB0009847E36A03933046FCF7C0F92946FCF7AD
:104DC0007AFE039B01461846FEF7C5FFE36A83F8A7
:104DD00042504846E16AFCF751FD1E4906A803F01F
:104DE000C3FBA02388200A93CDF830A0CDF82CB0C7
:104DF000CDF834B003F074FB824698E803008DE8E8
:104E0000030006A997E80C005046FEF781FEC4F89F
:104E100030A006A803F068FB3046276BFCF78EF93C
:104E20002946FCF748FEA7F840003046276BFCF700
:104E300085F9294610E000BF281D0100941D0100DE
:104E40003093FF1F9A1D0100A71D0100AE1D010038
:104E5000BC1D0100C51D0100FCF731FE01463846AE
:104E600001F097FC276B3B683046D3F84080FCF795
:104E700065F92946FCF718FE01463846C04730461A
:104E8000276BFCF75BF92946FCF715FE014638460F
:104E9000FEF761FF236B059983F84250206B03688E
:104EA000DB6B98474846216BFCF7E8FC20460FB0C7
:104EB000BDE8F08F38B505460C4617481749FBF793
:104EC00018FFAB6A9C4206D12C2003F009FB044674
:104ED000FCF7FCFC19E02B6B9C4206D1442003F04C
:104EE000FFFA044601F080FE0FE06B6B9C424FF02E
:104EF000380005D103F0F4FA0446FFF70DFC04E096
:104F000003F0EEFA0446FFF71DFE21460448BDE813
:104F10003840FCF7F1B800BF60A3FF1FCE1D0100B1
:104F20003093FF1FA0F12400FFF7C4BF01F05CB86D
:104F300008B500F0C7FE002102480A46BDE8084057
:104F400000F0E1B8FC90FF1F08B500F0EBFF002176
:104F500002480A46BDE8084000F0D5B8FC90FF1FA3
:104F6000416670478165704784B037B507AD85E805
:104F70000E000A9B009395E80E00044601F00EFC1B
:104F80000D4B03F10802226003F1500260336262AC
:104F9000A36204F16800002103F0E6FA0023E36550
:104FA00004F11400054903F02AFB204603B0BDE8D4
:104FB000304004B0704700BFF81D0100601E0100C2
:104FC0002DE9F043C36A87B02D33044602934FF0B6
:104FD000B4080A23962774200393CDF81080059710
:104FE00003F07EFA059B009302AD064695E80E009D
:104FF00001F02CF933682666D3F818C0A16D42463B
:1050000030463B46E0472368216E9B69DFF8D0803D
:1050100020469847E36A04F168060A333146284679
:105020009FB203F0D9FA41462A462B48FEF70EFC00
:105030008146284603F058FA1FFA89F0C0F1FA02B7
:10504000022392FBF3F31F44BE230393049019231E
:10505000BFB244200297059303F042FA059B0093E8
:10506000074695E80E0001F0B7F9E765C7F8348008
:10507000E36D1A48DE63E66DFCF760F80021FCF78B
:105080001EFD2368E16D70879B6920469847636B1E
:10509000E26A02920493EE220123342003920593E4
:1050A00003F01EFA059B009395E80E00064600F0FB
:1050B0008FFD4FF6FF7330462946ADF80830FEF7F6
:1050C0001FFF236820469B6931469847204601F020
:1050D000F9FB07B0BDE8F083FC90FF1F3093FF1F82
:1050E000640C0100806D7047A0F860107047B0F844
:1050F00060007047012380F854307047C1657047E5
:105100000023C365704770B506460C463285F184AE
:105110001546FEF74FFBC5F5A0720328C4EB02024B
:10512000304603D1294692B2234602E0214692B28C
:105130002B46BDE87040FDF753BB2DE9F74F044601
:1051400001929B46884639B30D9D019E5F460D9B9B
:10515000DDF830909944C5EB090923680FFA87FA06
:105160000FFA89F9D3F808C0638A204651464A46A7
:10517000E047013E0123B34018EA030F07D023683C
:105180002046D3F808C0238A51464A46E0470137F3
:10519000002EDCD1013DD8D103B0BDE8F08FFFFF78
:1051A000054AD36A13F0F00F03F4704318BF926BF3
:1051B000B3F5405FF4D8704700C00240044608B51C
:1051C0000D480D46FBF795FD206810B12946FBF709
:1051D00090FD0D20012102F017FE01210D2002F0AB
:1051E000F3FDFA2002F04AFE0D20002102F0ECFD52
:1051F000FA2002F043FEF0E760A3FF1FF0B513684A
:105200000D688E685768AB42ACBF1C462C463544CF
:105210009668D2683344AB42B8BF1D46A5424E687B
:10522000C96811DBB742ACBF3B46334617440E4456
:10523000B742B4BF3A4632469A4205DB04602C1BA3
:1052400043608460D31A03E00023036043608360FB
:10525000C360F0BD2DE9F04F85B0044616464FF00F
:105260003840BDF8482001928B461F46BDF8388073
:105270004F4DFCF74DF894F820301B0407F1FF392F
:1052800008F1FF3A43F0004343F02A030BEB090017
:1052900006EB0A0189B280B26B6302910390FFF7BB
:1052A0007FFFE37F4BEA034B4BF010436B63FFF749
:1052B00077FFE37F039840EA034040F010406863C3
:1052C000FFF76EFF94F820301B0443F0004343F0D7
:1052D0002B036B63FFF764FFE37F46EA034646F068
:1052E00010466E63FFF75CFFE37F029941EA0341DA
:1052F00041F010416963FFF753FF94F820301B041D
:1053000043F0004343F02C036B63FFF749FF019A1E
:10531000BDF84030BDF844B002FB0B3B0F9B4FEA99
:10532000420C03EB4B0B0026B3B243453AD20025A7
:10533000ABB2BB4233D24D45E37F20D156451ED19F
:105340003BF815001A4A40EA034343F0C053116882
:105350005363174AD06A10F0805F134604D110F0EF
:10536000F00F18BF936BF4E74FF08052DA621960C8
:10537000DA6A12F0F00F10D00D4A926BF8E73BF8A2
:10538000152042EA03430A4A43F010435363CDF821
:105390000CC0FFF705FFDDF80CC00135C8E701368A
:1053A000E344C1E7FBF7F8FF05B0BDE8F08F00BFAD
:1053B00000C002402DE9F04FADF5237D9846BDF8C1
:1053C000BC72BDF8C032BDF8B8B25F434FEA4309C2
:1053D000BDF8B03213449BB2019302AB03EB4B0315
:1053E00004468A467F0000931646019B9E4200F0C9
:1053F00089803946AD98454DFCF720FE02A94A4602
:10540000AD98FCF749FD4FF03840FBF781FF94F869
:1054100020301B0443F0004343F02A0308F1FF321D
:1054200052446B631FFA82FBFFF7BAFEE37F4AEA3E
:10543000034343F010436B63FFF7B2FEE37F4BEA95
:10544000034242F010426A63FFF7AAFE94F820304C
:105450001B0443F0004343F02B036B63FFF7A0FEF4
:10546000E37F46EA034343F010436B63FFF798FE84
:10547000E37F46EA034343F010436B63FFF790FE7C
:1054800094F820301B0443F0004343F02C036B637B
:10549000FFF786FE0025ABB243452DD208F1FF335E
:1054A0000099E07F31F815209D42184B1BD142EA4C
:1054B000004242F0C05219685A63144AD06A10F090
:1054C000805F134604D110F0F00F18BF936BF4E720
:1054D0004FF08052DA621960DA6A12F0F00F09D0E8
:1054E0000A4A926BF8E742EA004242F010425A63DD
:1054F000FFF756FE0135CEE70136FBF74DFF4F446F
:10550000B6B272E70DF5237DBDE8F08F00C0024012
:105510002DE9F04FADF5237D0B449BB29246BDF8CB
:10552000B872BDF8C422BDF8BCB2019302AB5743B8
:1055300003EB4B03BDF8B082009304464FEA4209E7
:105540007F000E46019B9E4200F089803946AD984F
:10555000454DFCF773FD02A94A46AD98FCF79CFC4B
:105560004FF03840FBF7D4FE94F820301B0443F092
:10557000004343F02A0308F1FF3252446B631FFAE1
:1055800082FBFFF70DFEE37F46EA034343F010433F
:105590006B63FFF705FEE37F46EA034343F01043E6
:1055A0006B63FFF7FDFD94F820301B0443F00043CC
:1055B00043F02B036B63FFF7F3FDE37F4AEA0343FA
:1055C00043F010436B63FFF7EBFDE37F4BEA0342CD
:1055D00042F010426A63FFF7E3FD94F820301B04A9
:1055E00043F0004343F02C036B63FFF7D9FD002524
:1055F000ABB243452DD208F1FF330099E07F31F87B
:1056000015209D42184B1BD142EA004242F0C05285
:1056100019685A63144AD06A10F0805F134604D1A7
:1056200010F0F00F18BF936BF4E74FF08052DA627E
:105630001960DA6A12F0F00F09D00B4A926BF8E7A2
:1056400042EA004242F010425A63FFF7A9FD0135D9
:10565000CEE70136FBF7A0FE4F44B6B272E70DF578
:10566000237DBDE8F08F00BF00C00240028DC38CD7
:10567000D018C0F5A07080B2704710B50446FEF790
:1056800099F803280CBFE08C208D10BD38B5044676
:10569000886DCB8C0D8D00F100401D4405F0D0F9D4
:1056A000C5F5A0750023ADB26360F0232060A5604E
:1056B000E360204638BDFFFF002310B50446836039
:1056C000C3600360082005F019FA606018B920462D
:1056D0000349FFF773FD0223A360204610BD00BFFE
:1056E0004A1901002DE9F04788B004469DF8405062
:1056F00000959DF8445001959DF848500295FCF79F
:10570000A9FF2046294B40F8343BFFF7D5FF04F1B1
:105710004400FFF7D1FF2046FFF7AFFF00260490BB
:1057200040F2EE29F027342007970596CDF818901F
:1057300002F0D6FE079B009304AD95E80E0082466A
:105740004FF6FF7800F044FA50462946C4F830A0DE
:10575000ADF81080FEF72EFC3146206BFEF7D5FB2E
:105760002046FFF78AFF0490342007970596CDF86E
:10577000189002F0B5FE079B009395E80E000746CF
:1057800000F026FA38462946E762ADF81080FEF7A9
:1057900011FCE06A3146FEF7B8FB0123204684F88D
:1057A000543084F8246008B0BDE8F087781E01000A
:1057B0002DE9F04790F854308CB00446002B00F0EF
:1057C0009780C06A10B103689B689847236BE362B7
:1057D0002046FFF752FFB4F826A0238D9A44CAF55D
:1057E000A07A002607461FFA8AFA4FF0F009B04661
:1057F000236C984542DA1FFA88F104F13400FBF774
:1058000075FD054600F032FF0368BB4203DA284607
:1058100000F02CFF0768284600F028FF8368026824
:105820001A4407EB0A039A4208DD284600F01EFFDF
:105830000268836802EB030AC7EB0A0A284600F0F5
:1058400015FF4368B34203DA284600F00FFF4668AD
:10585000284600F00BFFC36842681A4406EB0903B0
:105860009A4208DD284600F001FF4268C36802EB57
:105870000309C6EB090908F10108B9E71E4B586C8A
:1058800003681B6B98470AF10103ADF80E00342042
:1058900009960A930897CDF82C9002F021FE0B9BF5
:1058A000009308AB0ECB054600F092F928460DF1A7
:1058B0000E012563FEF77EFB206B0021FEF725FB22
:1058C0000026236C9E4210DAB1B204F13400FBF7DB
:1058D0000DFD00F0CBFE0FC804AD85E80F00206B76
:1058E0002946FEF72FFD0136EBE7002384F85430FC
:1058F0000CB0BDE8F08700BF3093FF1F38B50546F8
:10590000006BE96AFEF700FC00242B6C9C4209DA6C
:10591000A1B205F13400FBF7E9FC0021FEF7F4FB2E
:105920000134F2E738BDF8B50546006B0E46174660
:10593000FEF74EFC00242B6C9C420ADAA1B205F162
:105940003400FBF7D3FC31463A46FEF741FC013404
:10595000F1E7F8BDF0B5C38C058D89B00446006B46
:105960000E461D4400F082FE8068C5F5A075ADB2FC
:10597000C0F10100284404F049FE0146304605F01C
:1059800037F878B1E38C258D206B1D4400F06EFE56
:105990008068C5F5A075ADB2C0F10100284404F0DF
:1059A00035FE06463046002105F040F800B10026DD
:1059B000304605F045F80546A06D05F041F8471B57
:1059C00042D0002DA665238DE28CC5F1000609DAD0
:1059D000D118C1F5A07189B296FBF1F000FB01115D
:1059E000294400E029461344C3F5A0739BB28B42BF
:1059F000D8BFC3EB0101154889B2FCF741FF002F66
:105A00000FDDE28C238D02971344C3F5A0739BB284
:105A10005D1BED1B0022F023009501920393F61B02
:105A200007E0C7F101070022F023009601920297D8
:105A3000039305920793204604A96A4640F2FF7338
:105A400004960697FFF76FFF09B0F0BDFC90FF1FAB
:105A500038B50B6804465B6908460D46984794F8CC
:105A600024301BB10E480F49FBF743F9216CE36B5F
:105A7000994204D104F134004900FEF739FC236C4B
:105A8000A26B591C216442F8235094F824301BB1B6
:105A900003480549FBF72DF9012384F8543038BD3C
:105AA00060A3FF1FD01E0100DD1E010010B50446DB
:105AB000C06AFEF751FD206BFEF74EFD0023236404
:105AC000012384F8543010BD70B5C46D1CB9BDE815
:105AD0007040FCF7D3BB2568A9420CDBA6683544AF
