:1000000000800020BD0100008114000045140000A4
:10001000451400004514000045140000451400007C
:100020004514000045140000451400008114000030
:1000300081140000451400008114000035140000F4
:10004000811400008114000081140000811400005C
:10005000811400008114000081140000811400004C
:10006000811400008114000081140000811400003C
:10007000811400008114000081140000811400002C
:10008000811400008114000081140000811400001C
:10009000811400008114000081140000811400000C
:1000A00081140000811400008114000081140000FC
:1000B00081140000811400008114000081140000EC
:1000C00081140000811400008114000081140000DC
:1000D00081140000811400008114000081140000CC
:1000E00081140000811400008114000081140000BC
:1000F00081140000C919000081140000C51F000010
:1001000081140000E5240000811400008114000027
:10011000811400008114000081140000811400008B
:10012000811400008114000081140000811400007B
:10013000811400008114000081140000811400006B
:10014000811400008114000081140000811400005B
:10015000811400008114000081140000811400004B
:10016000811400003D08000081140000811400008B
:10017000811400008114000081140000811400002B
:10018000811400008114000081140000811400001B
:10019000811400008114000081140000811400000B
:1001A00081140000811400008114000081140000FB
:1001B000811400008114000081140000574B4CF2A0
:1001C000205210B51A804DF628121A8000BF00BFC9
:1001D00001F05AF9524B4FF010621A60514A9A607E
:1001E000514ADA60A3F53043203B1A6812F480725A
:1001F00004D14E490A604FF4A8521A604C4B1A7849
:10020000110703D51A7842F008021A70494B4A4C7C
:100210004A482A221A704A4A00239918A14203D256
:10022000195899500433F8E7464B474900228B424E
:1002300002D243F8042BFAE74448454900235A58B0
:100240001A500433B3F5DE7FF9D1424B424A802184
:1002500003F8011B9342FBD1404B3C4A1A60404BD0
:100260000A221A70A3F5805324225A70A0221A7011
:100270009A799207FCD59A79D406FCD4394A9379B5
:1002800003F00C03082B374BF9D103221A714022DB
:100290005A719A799006FCD5324A9179314B4906C8
:1002A000FBD5314A314911600221516020221A7078
:1002B0009A7902F00C020C2AFAD12D4B2D4A1A60C1
:1002C0002D4B45F6BF521A6000225A60072243F8B0
:1002D000042C2A4AC3F80C2D62B600F071F9134BB6
:1002E0001B68DA0705D5264800F0DCF8254B264ABE
:1002F0001A60264B1B785B0609D5224C224A2368DC
:10030000934204D11E4800F0CDF80023236002F090
:10031000B1FB01F0BFF800F0D9FFFEE70E20054069
:1003200030800440823F04000100002B14D00340C1
:1003300002D0074000E00740388CFF1FE02E00008D
:100340006087FF1F388CFF1F2C8FFF1F0082FF1F4D
:100350000000000000E400E05FE400E008ED00E0E1
:100360000050064000400640448004400000033333
:1003700004800440C010050014E000E000002020CC
:100380001DDCDD561CE00340A5C3945A00F0074075
:10039000FFFFFFFFFFFFFFFFFFFFFFFFFFFFFFFF6D
:1003A000FFFFFFFFFFFFFFFFFFFFFFFFFFFFFFFF5D
:1003B000FFFFFFFFFFFFFFFFFFFFFFFFFFFFFFFF4D
:1003C000FFFFFFFFFFFFFFFFFFFFFFFFFFFFFFFF3D
:1003D000FFFFFFFFFFFFFFFFFFFFFFFFFFFFFFFF2D
:1003E000FFFFFFFFFFFFFFFFFFFFFFFFFFFFFFFF1D
:1003F000FFFFFFFFFFFFFFFFFFFFFFFFFFFFFFFF0D
:10040000FFFFFFFFFFFFFFFFFFFFFFFFFEFFFFFFFD
:1004100010B5054C237833B9044B13B10448AFF33E
:1004200000800123237010BD388CFF1F00000000E6
:10043000E02E000008B5064B1BB106480649AFF395
:1004400000800648036813B1054B03B1984708BD07
:1004500000000000E02E00003C8CFF1F388CFF1FC6
:100460000000000008B5034B1878012100F04EF899
:1004700008BD00BF6087FF1F10B5094C207801211F
:1004800000F020F84FF47A7000F084F82078002112
:1004900000F018F84FF47A7000F07CF810BD00BF3F
:1004A0006087FF1F044B00221A6004490A60044A57
:1004B000106010221A60704714D0034004D003402B
:1004C00000D0034021281ED80F4B53F8303093F84A
:1004D000802212F0FF0F08D019B1012283F880208A
:1004E0007047012283F800217047074B03EBC000DF
:1004F000436821B11A6842F003021A6070471A6813
:1005000022F002021A6070471C2C000021281CD81F
:100510000E4B03EBC0035B68012908D10B4A52F86C
:10052000302082F880124FF4A2721A607047074A96
:1005300052F83020002082F8800219B94FF48072FE
:100540001A60704740F203121A6070471C2C0000BA
:1005500072B60C4B1B680C4A12680C49096862B6EB
:1005600011F0806F02D0322B88BF0132C3F5BB433C
:100570003F330749A1FB03031B094FF47A7000FBCB
:100580000230704718E000E0548CFF1F04ED00E0DB
:10059000ABAAAAAA38B50546FFF7DAFF044625B983
:1005A00038BD013D0AD004F57A74FFF7D1FF001B76
:1005B000B0F57A7FF5D200F091FEF6E738BD00BFC6
:1005C00010B5254B4FF400021A604FF080721A608C
:1005D0004FF000721A604FF080621A604FF00062B4
:1005E0001A6000201D4B18604BF6FF710433196030
:1005F00028231B4A13600832136008321360083244
:100600001360083213600832136008321360083236
:1006100013600822134C226004F5805404342060D7
:10062000043421600434236008342360143C2260C5
:1006300004F5FE24043420600B4801600B490B6074
:1006400008310B600A4B1A6000F06AFEFA20FFF7CF
:10065000A1FF00F073FC10BD08E100E0048003403E
:100660000C8003400080034008800B400C800B404E
:1006700000800B4030B40E4B1B7843F002020D4C4F
:1006800004EBC20460600C48007800280CBF88248A
:10069000C82444EA0141074D45F8321080F00100BA
:1006A000054A107083F00103014A137030BC704793
:1006B000C08CFF1F0080FF1F398DFF1F10B4431E29
:1006C000032B11D872B60A4A52F8230050B142687F
:1006D000074941F82320074A32F813400188611A7C
:1006E00022F8131062B600E000205DF8044B70475A
:1006F000B08CFF1F188FFF1F013803280DD872B66A
:10070000074B53F820302BB1002001305B68002BE1
:10071000FBD100E0002062B670470020704700BFA8
:10072000048DFF1F38B572B601231B491B4C5A18A4
:1007300012F8012C12F0080F24D09A0054F832500D
:100740006DB9164B03EBC20108304860144943F8F9
:100750003210144B1A78013A1A7062B638BD42F062
:10076000010254F832506DB90C4B03EBC201083052
:1007700048600D4943F832100A4B1A78013A1A7052
:1007800062B638BD0133052BD1D162B60022054BCC
:100790001A7000F037FC38BD2C2D00000080FF1FC0
:1007A000880040002E8DFF1FC800400010B4431E7B
:1007B000032B37D8400140F010001C4A104472B699
:1007C0001B4AD25C032A09D8DFE802F019021B0594
:1007D0000830022216E00830042213E0154A52F8CD
:1007E00023201AB9134A42F8231003E0124A52F8A0
:1007F00023205160104A42F8231062B612E003220F
:1008000000E005220A4CE25401F10803436000F0C5
:100810000803002B0CBF8823C8230A8843EA02433D
:10082000036062B65DF8044B704700BF0080FF1F95
:100830006C8CFF1F048DFF1F148DFF1F2DE9F84FD7
:10084000A34CDFF8E092DFF8E0A2DFF8E0B2257811
:10085000EDB215F0040F1DD09E4B1B7813F0FF0F67
:1008600016D09D4B1B7803F0FF022BB1531EDBB259
:10087000994A137003B900BE984B1B7803F0FF022E
:1008800033B1531EDBB2954A13700BB900F0FAFC7A
:100890000423237015F0080F00F0E48299F800306B
:1008A000DBB21D0940F021828D4D9E0805EBC60389
:1008B0005A6855F83630C3F38303013B0C2B00F222
:1008C0001082DFE813F0CB01CB010E020E020E0204
:1008D0000E020E020E02E8010E020E020E020D00C2
:1008E000804913680B6052684A607F4A45F8362099
:1008F00000227E490A607A490A618A6101217C4AA4
:1009000011709BB240F28162934218D8B3F5D06F58
:100910002ED2B3F5817F00F01E8106D8802B00F027
:10092000C980822B00F0CC8066E140F20232934213
:1009300000F02681B3F5A06F00F062815CE142F225
:100940002102934200F0868107D8B3F5086F00F0CA
:10095000AB80B3F5106F11D04EE142F221229342E9
:1009600000F0418142F22132934200F0498143E19B
:10097000604B5D68002D40F0188130E1594B9A784A
:10098000544B1A70564D05F180062B6A13F0800FF8
:1009900003D0686A083800F035FB0835B542F4D159
:1009A000DFF88C8100263746534AB05828B1456895
:1009B00000F028FB0DB12846F9E700234E4973509B
:1009C0004E4AB3504E4BF05828B1456800F01AFB20
:1009D0000DB12846F9E7002349497350494AB350FD
:1009E00028F8023F484BFB5C023B032B0AD8DFE8A8
:1009F00003F0020602060022434BDA5502E0012210
:100A0000414BDA5501370436102ECDD100223F4B31
:100A10001A7001253E4EDFF81C81314F05EB0803AB
:100A200013F8013C06F8043B13F0080F2DD000F03A
:100A3000C9FA48B1A90007EB451200F10803536059
:100A4000344A47F8312007E0AB00002247F8332052
:100A50002E4B1A7801321A7000F0B4FA58B1AB007C
:100A600043F0010307EBC30100F108024A601E4A8C
:100A700047F8332009E0AB0043F00103002247F8B8
:100A80003320224B1A7801321A70AA0042F0020178
:100A9000002347F8313042F0030247F83230013585
:100AA0001D4B9E42BAD11EE20A4B1B781B4D2B7088
:100AB0000127AAE0194D00232B706B700227A4E0D8
:100AC000084B9B88042B37D90F22154B1A70C1E0B5
:100AD00080200740388DFF1FC18CFF1F3A8DFF1FFC
:100AE0000080FF1F248DFF1FC8004000588CFF1F8F
:100AF000398DFF1F302D0000B08CFF1F5C8CFF1F55
:100B0000048DFF1F148DFF1F6C8CFF1F2E8DFF1F88
:100B1000C420074088004000D4200740308DFF1FCC
:100B2000C0200740902007409420074098200740AD
:100B3000168FFF1F2C2D0000A04A0021117051704C
:100B40009F4A12F8233013F0020F5CD09B4D012313
:100B50002B70022759E09B4B9B8803F07F03042BEB
:100B600002DC984A52881AB10F22954B1A7071E034
:100B7000934A12F8231021F0020102F82310B2E187
:100B8000904B9B8803F07F03042B02DC8D4A528834
:100B90001AB10F228A4B1A705CE0894A12F82310AE
:100BA00041F0020102F823109DE1864B5E889F8888
:100BB000854BA3F10C02114633F80C0CB04209D15D
:100BC00033F80A0CB84205D1360A032E0CBF2F7831
:100BD00017891AE00D690C330C32002DEBD10F226E
:100BE000774B1A7036E0794B1A68794B1A60754B5F
:100BF0009A78784B1A7076E10F22714B1A7029E0BF
:100C000000273D4601E002276C4D6E4BDB889F427A
:100C100028BF1F46402F34BF3E4640262846314657
:100C2000FFF728FD3544BF1B03D13F2E00F2608142
:100C300010E0402F34BF3E46402628463146FFF79D
:100C400019FD3544BF1B01D13F2E03D9624B1D60F6
:100C5000624B1F8001238AF8003042E0594B19880B
:100C600042F22103994212D15D4BD81D12F8011BAB
:100C700003F8011F8342F9D15A4B1B68862B02D11E
:100C80000F22594B1A7000200146FFF7F3FC574B17
:100C900045F8363025E0504B1E68BEB14F4FB7F8CF
:100CA0000080B8F1400F34BF454640253046294604
:100CB000FFF7E0FCC5EB08039BB23B800BB9402D6E
:100CC00001D1354400E00025434B1D603D4B1B889E
:100CD000B3F5A06F05D13B4B00225A709B788BF87F
:100CE000003001238AF80030B9E0414E9F0806EB3E
:100CF000C708D8F80420A2F10800013DEDB213F0B6
:100D0000080F47D000F07EF93A4B53F825304BB32B
:100D10005A68384941F8252003F10802C8F8042030
:100D2000354A525D032A12D8DFE802F002060A0EA5
:100D30000321314A51550AE002212F4A515506E05C
:100D400005212D4A515502E004212B4A515518F036
:100D5000080F0CBF8822C8221B8842EA034346F8CA
:100D600037307CE0244B5B5D032B0BD8DFE803F0CE
:100D7000777702060022204B5A5570E001221E4B65
:100D80005A556CE018F0080F0CBF022203221A4BD0
:100D90005A5564E056F837301B0C22F8083C002BFB
:100DA00055D0002322F8063C42F8043C134B53F87C
:100DB00025302BBB114B43F8250025E0308DFF1F5C
:100DC000C0200740248DFF1F3C2D0000548CFF1FC6
:100DD000288FFF1F488DFF1F588CFF1F2C8DFF1F72
:100DE0001F8FFF1F208FFF1FC18CFF1FC8004000F7
:100DF0000080FF1F048DFF1F6C8CFF1FB08CFF1F36
:100E00003F4B53F8253058603D4B43F825003D4B90
:100E100033F8151032F8082C0A4423F8152000F096
:100E2000D1F860B100F10803C8F8043018F0080FD9
:100E3000354B364A08BF134646F837300FE00023DB
:100E400046F83730324B1A7801321A7007E018F042
:100E5000080F2D4B2D4A08BF134646F8373008239C
:100E60002370F4E415F0010F22D02A4902230B70FD
:100E70000022294B1A70294B24481860284C5C60CA
:100E800098602848D8601A619A610D20264B187026
:100E9000FF23264803700838037018300270244A74
:100EA00013709F22234B1A7001230B70BDE8F88F3B
:100EB00015F0800F05D00D221B4B1A708022403B8D
:100EC0001A7015F0020F06D0184B1A78D2B21A70A9
:100ED0000222083B1A7015F0100F0ED01022164B8C
:100EE0001A70BDE8F88F00200146FFF7C3FBB1E69A
:100EF00028460021FFF7BEFBACE6BDE8F88F00BF37
:100F00005C8CFF1F188FFF1FC80040008800400046
:100F10002E8DFF1F94200740C08CFF1F0080FF1FF5
:100F2000708CFF1FC48CFF1FC02007408820074023
:100F30008C200740842007408020074008B501F03E
:100F400045FB00231B491A465A50C8184260083313
:100F5000882BF9D1184B1A6842F480221A60154B7D
:100F6000C3F30721154A1170C3F3074114321170FE
:100F70001B0E04321370FF23343A137008321370BF
:100F8000783A137001238432137000216C3211708F
:100F90007C3A137070220A4B1A704FF40072A3F25D
:100FA00041331A60102203F1C04303F5C8231A70BD
:100FB00008BD00BF0080FF1F348004409C20074014
:100FC00049E400E072B60D4B1A68B2FA82F30B2BBB
:100FD00002D962B6002070474FF00041D94022EAA2
:100FE000010206490A6062B6054903EBC303DB0050
:100FF000C8180022CA504260704700BF6487FF1FB4
:101000000084FF1F08B50F4BC31A0F4AA2FB03133E
:101010001B090B2B14D80D4A12783AB10C4A1278DE
:1010200012F0FF0F02D0FFF77DFB08BD72B6094A30
:101030004FF0004121FA03F311681943116062B6C1
:1010400008BD00BF0084FF1F398EE3382E8DFF1FBF
:10105000388DFF1F6487FF1F10B5134B1B6853B9F2
:10106000124B1B7813F0FF0F18D00320FFF726FB5D
:101070000D4B1860A8B10C4B186843885A1C0344E8
:101080001C7A03889A4206D3FFF7BCFF0022064B66
:101090001A60204610BD4280204610BD4FF0FF3040
:1010A00010BD4FF0FF3010BD448DFF1F388DFF1F66
:1010B00008B50D4B1B6883B90C4B1B7813F0FF0F61
:1010C00008D00320FFF7FAFA074B186028B94FF051
:1010D000FF3008BD4FF0FF3008BD034B1B685A8836
:1010E0001344187A08BD00BF448DFF1F388DFF1FC1
:1010F000044B9888044B1B681BB11A885B88D31A71
:1011000018447047188FFF1F448DFF1F2DE9F047CB
:1011100004460122374B1A700E46002964D0DFF8CE
:10112000E080DFF8E0909A46334FD8F8003083BB78
:1011300099F8003013F0FF0F06D100222D4B1A70E2
:101140004FF0FF30BDE8F08744F2A5750420FFF7AB
:10115000D3FA07280AD801238AF80030FFF732FFB4
:10116000C8F80000A8B900238AF80030013D01D07A
:101170003B7833B10122204B1A704FF0FF30BDE8AD
:10118000F08700F0ABF899F8003013F0FF0FDDD1D5
:10119000D3E700233B70D8F800104A88C2F140051D
:1011A000AE4238BF354602F108030B442A444A8058
:1011B000761B3DB1254414F8012B03F8012BAC42FA
:1011C000F9D100E025464B883F2B07D940230B80FF
:1011D0000420FFF7EBFA0023C8F800300522074B84
:1011E0001A700EB12C46A0E70020024B1870BDE823
:1011F000F08700BF3B8DFF1F408DFF1F3A8DFF1F03
:101200003C8DFF1F388DFF1F00B583B002AB03F884
:10121000010D18460121FFF779FF03B05DF804FBCB
:1012200010B5144B1B7813F0FF0F21D00122124B85
:101230001A70124B196851B10024114B1C704B8865
:101240000B800420FFF7B2FA0C4B1C600DE0FFF797
:10125000B9FE014630B10022094B1A700420FFF795
:10126000A5FA02E00122064B1A700022024B1A7006
:1012700010BD00BF388DFF1F3B8DFF1F3C8DFF1F32
:101280003A8DFF1F08B50E4B1B7813F0FF0F16D1D8
:101290000C4B196841B14B880B800420FFF786FA8C
:1012A0000022084B1A6008BDFFF78CFE014618B1FA
:1012B0000420FFF77BFA08BD0122034B1A7008BD1A
:1012C0003B8DFF1F3C8DFF1F3A8DFF1F08B5FFF7B9
:1012D000C9F8FFF7D1F800F001F8FAE708B50F4BAD
:1012E0001B78CBB901220D4B1A70FFF701FF08B133
:1012F00001F08EFB00F0DEFA08B101F031FA00F0E7
:10130000D7FD08B101F0C2FA01F076F808B101F09A
:1013100053FB0022014B1A7008BD00BF498DFF1F0F
:1013200060223A4B1A70E12201331A70384B1B7855
:10133000082B10D1002203F1804303F56C331A60AF
:10134000132334490B6001F5FF2101F2FC710A609F
:10135000314A13601FE00A2B0DD138222F4B1A603F
:1013600013232C490B6001F5FF2101F2FC710A6087
:10137000294A13600FE00C2B0CBF34223C22274B70
:101380001A60122323490B6001F5FF2101F2FC7161
:101390000A60214A1360224B1B7833B10123214A92
:1013A000136002F50022136005E000231D4A13605C
:1013B00002F5002213601C4B1B78012B06D88023FA
:1013C0001A4A136002F5002213601AE0042B06D8B3
:1013D0008423164A136002F50022136011E0082BE3
:1013E00006D88523114A136002F50022136008E035
:1013F000102B94BF862387230C4A136002F500222A
:10140000136001220A4B1A70704700BF004007406A
:101410006887FF1F0CB003400CB00B4008B00340BE
:101420004B8DFF1F20B003406987FF1F24B003408E
:101430004A8DFF1F024B1A6801321A60704700BFC5
:10144000548CFF1F08B50D4C236813F4802F01D076
:10145000FFF7F4F9236813F4806F01D000F0B4FAB9
:10146000236813F4006F01D000F0ACFD236813F47F
:10147000805FE9D001F036F8E6E700BF3480044031
:1014800008B5FFF7DFFF00BF1022014B1A8070473D
:1014900000200540704700BFEFF31383ABB9EFF3B3
:1014A0001083ABB9EFF3058323B10F2B05D9094A9C
:1014B000985C03E04FF4807000E00020EFF31183AC
:1014C0003BB1834238BF184670474FF0FF3070473A
:1014D00000207047F0E300E0194B1A6842F4806284
:1014E0001A600023174A1370174A1370174A1370B3
:1014F000174A1370174A137040F21332164B1A60D2
:101500004FF4517204331A60C0F34432134B1A7013
:10151000C0F347125A7000F01F00987204229A70AC
:101520000221D9745A7588221A743C22DA7040223A
:101530000B4B1A704FF40052A3F229331A60704714
:1015400034800440D48DFF1F518DFF1FDC8DFF1FA1
:10155000D58DFF1F508DFF1F40A0044000A0064006
:101560002DE400E0164B9B7803F0EC0300F003023F
:10157000134310F0040F18BF43F01003104A937088
:1015800000F00F03042B04D11346927942F040027D
:101590009A710B4B5A7902F0EF0210F0100F18BF3E
:1015A00042F01002064B5A719B7903F0EF0310F0E2
:1015B000200F18BF43F01003014A9371704700BF1A
:1015C00000A0064010B5144B1B6813F4806F21D0A7
:1015D000124B1B7813F0FF0F06D0104CFFF77EFE66
:1015E000237813F0FF0FF9D14FF400520C4B1A601F
:1015F00000230C4AD37040F203120B490A600431F5
:101600000A600A4A13700A4A13700A4B1B680BB12E
:1016100001221A7010BD00BF34800440508DFF1F9E
:1016200084E100E000A0064040A00440D48DFF1FEC
:10163000518DFF1F4C8DFF1F10B50446094A1378CA
:1016400013F0FF0FFBD120460121FEF75FFF20467C
:101650000021FEF737FF044B53F83420034B1A6088
:1016600010BD00BF508DFF1F1C2C0000D88DFF1F28
:1016700010B50D4B1B6813F4806F12D021280CD8C5
:101680000A4C0B4B53F8303023600121FEF73EFF2C
:10169000236800221A70012010BD0020034B18603F
:1016A00010BD002010BD00BF348004404C8DFF1FD2
:1016B0001C2C0000114B1B6813F4806F1BD01228E8
:1016C00004D140F202320E4B1A600DE0142804D10E
:1016D00040F202320B4B1A6006E00B4B5A7B02F0D1
:1016E000FE025A7300207047074B5A7B42F00102FA
:1016F0005A73012070470020704700BF34800440B7
:101700000CA0044014C0044000A006402DE9F041A4
:1017100007461F4B1B6813F4806F37D01D4B1B68A7
:101720000BB101221A701C4B1C780134402C28BFCD
:1017300000241A4D1A4EDFF86C8017E0FFF7ACFE5C
:1017400040280FDC337913F0800F0FD02B78013352
:10175000402B28BF002318F80320D2B2F271DBB26D
:101760002B7003E0FF2801DDFFF7B8FD2B78DBB21B
:101770009C42E3D0FFB20B4B1F5501220A4B1A705B
:10178000E4B2054B1C70BC22054BDA70BDE8F08159
:1017900034800440D88DFF1FDC8DFF1FD58DFF1FC7
:1017A00000A00640548DFF1F508DFF1F2DE9F84FFC
:1017B0000746284B1B6813F4806F49D0264B1B68E3
:1017C0000BB101221A7007EB010B5F453DD2DFF828
:1017D0009890224EDFF88C80DFF890A099F80040B6
:1017E0000134402C28BF00243578EDB2A54220D129
:1017F000BC2388F80330FFF74FFE402811DC98F82F
:10180000043013F0800F10D033780133402B28BF01
:1018100000231AF80320D2B288F80720DBB2337015
:1018200003E0FF2801DDFFF759FD3378DBB29D426D
:10183000E1D017F8013B0AF804300122084B1A7076
:10184000E4B289F800405F45C8D1BC22054BDA708C
:10185000BDE8F88F34800440D88DFF1FD58DFF1F61
:10186000508DFF1F00A00640DC8DFF1F548DFF1F11
:1018700010B5064B1B7813F0FF0F06D0034CFFF793
:101880002DFD237813F0FF0FF9D110BD508DFF1FF0
:10189000064B1B78DBB2064A1278D2B293422CBFB9
:1018A0003F3202F1FF32D01A704700BFDC8DFF1FBC
:1018B000D58DFF1F054B1878C0B2054B1B78DBB2E6
:1018C000984238BF4030C01A704700BFD48DFF1F08
:1018D000518DFF1F10B4184B1A78D2B2174B1B78DA
:1018E000DBB29A4218D001333F2B18D81449C85C98
:1018F000C0B2DCB211490C7012490968C9B19A42F0
:1019000003D300E00023D31A01E04032D31A1A2B8C
:101910000FDC00230B700CE04FF0FF3009E0084BA8
:101920001878C0B20021054B1970064B19680029C0
:10193000E8D15DF8044B7047D48DFF1F518DFF1F18
:10194000948DFF1F4C8DFF1F094B1A78D2B2094BA3
:101950001B78DBB29A4207D00133402B28BF00230B
:10196000054AD05CC0B270474FF0FF30704700BFEF
:10197000D48DFF1F518DFF1F948DFF1F0D4B1B68D2
:1019800013F4806F14D00C4BDA7802F0CB02DA70CB
:1019900040225A74DA7842F03402DA70074B1A782F
:1019A000D2B2074B1A70074B1B680BB100221A709A
:1019B000704700BF3480044000A00640518DFF1FD7
:1019C000D48DFF1F4C8DFF1F70B43D4B1B7913F05E
:1019D000300F33D072B63A4B9B7D03F0FF022BB928
:1019E000374BDA7940225A7462B627E062B6354B3B
:1019F0001978C9B2344B1C78E4B2314D334EEB79CF
:101A0000D8B24B1C402B28BF0023A3421CBFF0546C
:101A10001946531E13F0FF02F1D1CAB2294B1A70B6
:101A20002B4B1B6853B1A1422EBFC4EB0101C4F183
:101A3000400409192729C4BF01221A70204BDA7803
:101A4000D2B212F0800F27D01B7913F0800F23D071
:101A5000204B1C78E4B2204B1B78DBB29C4210D0A8
:101A600017491E4D01E0A3420BD00133402B28BF84
:101A700000230879E85CC0B2C871087DC0B20728AD
:101A8000F1D9DBB214490B700D4B1B7913F0800FA9
:101A900002D07C210A4BD97012F0400F0ED0084BB7
:101AA0001B7913F0400F09D000220D4B1A700D4B1B
:101AB0001B6803B11A703C22014BDA7070BC70478E
:101AC00000A00640D48DFF1F518DFF1F948DFF1F76
:101AD0004C8DFF1FDC8DFF1FD58DFF1F548DFF1F09
:101AE000508DFF1FD88DFF1F194B1A6842F40062FA
:101AF0001A600023174A1370174A1370174A13709D
:101B0000174A1370174A137040F21332164B1A60BB
:101B10004FF4517204331A60C0F34432134B1A70FD
:101B2000C0F347125A7000F01F00987204229A7096
:101B30000221D9745A7588221A743C22DA70402224
:101B40000B4B1A704FF40042A3F22B331A6070470C
:101B500034800440508EFF1FE58DFF1F588EFF1FFD
:101B6000518EFF1FE48DFF1F0CB0044000B00640F3
:101B70002FE400E0164B9B7803F0EC0300F0030227
:101B8000134310F0040F18BF43F01003104A937072
:101B900000F00F03042B04D11346927942F0400267
:101BA0009A710B4B5A7902F0EF0210F0100F18BF28
:101BB00042F01002064B5A719B7903F0EF0310F0CC
:101BC000200F18BF43F01003014A9371704700BF04
:101BD00000B0064010B5144B1B6813F4006F21D001
:101BE000124B1B7813F0FF0F06D0104CFFF776FB5B
:101BF000237813F0FF0FF9D14FF400420C4B1A6019
:101C000000230C4AD37040F203120B490A600431DE
:101C10000A600A4A13700A4A13700A4B1B680BB118
:101C200001221A7010BD00BF34800440E48DFF1FF4
:101C300084E100E000B006400CB00440508EFF1F6D
:101C4000E58DFF1FE08DFF1F10B50446094A13788C
:101C500013F0FF0FFBD120460121FEF757FC204671
:101C60000021FEF72FFC044B53F83420034B1A607D
:101C700010BD00BFE48DFF1F1C2C0000548EFF1F01
:101C800010B50D4B1B6813F4006F12D021280CD82F
:101C90000A4C0B4B53F8303023600121FEF736FC21
:101CA000236800221A70012010BD0020034B186029
:101CB00010BD002010BD00BF34800440E08DFF1F28
:101CC0001C2C00000D4B1B6813F4006F13D0172859
:101CD0000AD140F202320A4B1A600A4B5A7B42F098
:101CE00001025A7301207047064B5A7B02F0FE0234
:101CF0005A73002070470020704700BF34800440B2
:101D000008B0044000B006402DE9F04107461F4BE3
:101D10001B6813F4006F37D01D4B1B680BB10122F9
:101D20001A701C4B1C780134282C28BF00241A4D33
:101D30001A4EDFF86C8017E0FFF7AEFB40280FDC8F
:101D4000337913F0800F0FD02B780133282B28BF65
:101D5000002318F80320D2B2F271DBB22B7003E03B
:101D6000FF2801DDFFF7BAFA2B78DBB29C42E3D003
:101D7000FFB20B4B1F5501220A4B1A70E4B2054B00
:101D80001C70BC22054BDA70BDE8F0813480044041
:101D9000548EFF1F588EFF1F518EFF1F00B006404C
:101DA000E88DFF1FE48DFF1F2DE9F84F0746284BF4
:101DB0001B6813F4006F49D0264B1B680BB101223E
:101DC0001A7007EB010B5F453DD2DFF89890224E69
:101DD000DFF88C80DFF890A099F800400134282CBF
:101DE00028BF00243578EDB2A54220D1BC2388F865
:101DF0000330FFF751FB402811DC98F8043013F052
:101E0000800F10D033780133282B28BF00231AF815
:101E10000320D2B288F80720DBB2337003E0FF283A
:101E200001DDFFF75BFA3378DBB29D42E1D017F8B2
:101E3000013B0AF804300122084B1A70E4B289F819
:101E400000405F45C8D1BC22054BDA70BDE8F88F71
:101E500034800440548EFF1F518EFF1FE48DFF1FFE
:101E600000B00640588EFF1FE88DFF1F10B5064BCF
:101E70001B7813F0FF0F06D0034CFFF72FFA2378DF
:101E800013F0FF0FF9D110BDE48DFF1F064B1B7837
:101E9000DBB2064A1278D2B293422CBF273202F14B
:101EA000FF32D01A704700BF588EFF1F518EFF1FA0
:101EB000054B1878C0B2054B1B78DBB2984238BF8F
:101EC0004030C01A704700BF508EFF1FE58DFF1FC6
:101ED00010B4184B1A78D2B2174B1B78DBB29A4267
:101EE00018D001333F2B18D81449C85CC0B2DCB2FB
:101EF00011490C7012490968C9B19A4203D300E034
:101F00000023D31A01E04032D31A1A2B0FDC00232E
:101F10000B700CE04FF0FF3009E0084B1878C0B2AE
:101F20000021054B1970064B19680029E8D15DF8AE
:101F3000044B7047508EFF1FE58DFF1F108EFF1F53
:101F4000E08DFF1F094B1A78D2B2094B1B78DBB228
:101F50009A4207D00133402B28BF0023054AD05CAA
:101F6000C0B270474FF0FF30704700BF508EFF1F68
:101F7000E58DFF1F108EFF1F0D4B1B6813F4006FC4
:101F800014D00C4BDA7802F0CB02DA7040225A748B
:101F9000DA7842F03402DA70074B1A78D2B2074B83
:101FA0001A70074B1B680BB100221A70704700BFF4
:101FB0003480044000B00640E58DFF1F508EFF1FA7
:101FC000E08DFF1F70B43D4B1B7913F0300F33D001
:101FD00072B63A4B9B7D03F0FF022BB9374BDA798F
:101FE00040225A7462B627E062B6354B1978C9B2FE
:101FF000344B1C78E4B2314D334EEB79D8B24B1CE4
:10200000402B28BF0023A3421CBFF0541946531E87
:1020100013F0FF02F1D1CAB2294B1A702B4B1B6887
:1020200053B1A1422EBFC4EB0101C4F14004091910
:102030002729C4BF01221A70204BDA78D2B212F0DD
:10204000800F27D01B7913F0800F23D0204B1C78F2
:10205000E4B2204B1B78DBB29C4210D017491E4DD6
:1020600001E0A3420BD00133282B28BF00230879BD
:10207000E85CC0B2C871087DC0B20728F1D9DBB2F4
:1020800014490B700D4B1B7913F0800F02D07C218B
:102090000A4BD97012F0400F0ED0084B1B7913F089
:1020A000400F09D000220D4B1A700D4B1B6803B175
:1020B0001A703C22014BDA7070BC704700B00640C9
:1020C000508EFF1FE58DFF1F108EFF1FE08DFF1F3D
:1020D000588EFF1F518EFF1FE88DFF1FE48DFF1FDD
:1020E000548EFF1F174B1A6842F480521A60002367
:1020F000154A1370154A1370154A1370154A137058
:10210000154A137040F21331144A11604FF45171A3
:1021100004321160C0F34431114A1170C0F3471109
:10212000517000F01F009072937013742C23D370C1
:1021300040220C4B1A704FF40032A3F22D331A6078
:10214000704700BF34800440CC8EFF1F618EFF1F9C
:10215000D48EFF1FCD8EFF1F608EFF1F08C004406E
:1021600000C0064031E400E0164B9B7803F0EC031E
:1021700000F00302134310F0040F18BF43F01003E4
:10218000104A937000F00F03042B04D11346927988
:1021900042F040029A710B4B5A7902F0EF0210F0B4
:1021A000100F18BF42F01002064B5A719B7903F0D2
:1021B000EF0310F0200F18BF43F01003014A937192
:1021C000704700BF00C0064010B5144B1B6813F4E5
:1021D000805F21D0124B1B7813F0FF0F06D0104CFC
:1021E000FFF77CF8237813F0FF0FF9D14FF400329A
:1021F0000C4B1A6000230C4AD37040F203120B49B7
:102200000A6004310A600A4A13700A4A13700A4BC2
:102210001B680BB101221A7010BD00BF348004404E
:10222000608EFF1F84E100E000C0064008C004404B
:10223000CC8EFF1F618EFF1F5C8EFF1F10B5044602
:10224000094A137813F0FF0FFBD120460121FEF756
:102250005DF920460021FEF735F9044B53F8342090
:10226000034B1A6010BD00BF608EFF1F1C2C0000C6
:10227000D08EFF1F10B50D4B1B6813F4805F12D07A
:1022800021280CD80A4C0B4B53F830302360012125
:10229000FEF73CF9236800221A70012010BD0020CF
:1022A000034B186010BD002010BD00BF34800440F7
:1022B0005C8EFF1F1C2C00000D4B1B6813F4805F0D
:1022C00013D00E280AD140F202320A4B1A600A4B90
:1022D0005A7B42F001025A7301207047064B5A7B29
:1022E00002F0FE025A73002070470020704700BFC2
:1022F0003480044004C0044000C006402DE9F04191
:1023000007461F4B1B6813F4805F37D01D4B1B68BB
:102310000BB101221A701C4B1C780134282C28BFE9
:1023200000241A4D1A4EDFF86C8017E0FFF7B4F85E
:1023300040280FDC337913F0800F0FD02B78013356
:10234000282B28BF002318F80320D2B2F271DBB289
:102350002B7003E0FF2801DDFEF7C0FF2B78DBB216
:102360009C42E3D0FFB20B4B1F5501220A4B1A705F
:10237000E4B2054B1C70AC22054BDA70BDE8F0816D
:1023800034800440D08EFF1FD48EFF1FCD8EFF1FE0
:1023900000C00640648EFF1F608EFF1F38B50546E3
:1023A0000C4629B115F8010BFFF7A8FF013CF9D144
:1023B00038BD00BF10B5064B1B7813F0FF0F06D0D9
:1023C000034CFEF78BFF237813F0FF0FF9D110BDFC
:1023D000608EFF1F064B1B78DBB2064A1278D2B222
:1023E00093422CBF273202F1FF32D01A704700BF50
:1023F000D48EFF1FCD8EFF1F054B1878C0B2054B42
:102400001B78DBB2984238BF4030C01A704700BF1B
:10241000CC8EFF1F618EFF1F10B4184B1A78D2B2FA
:10242000174B1B78DBB29A4218D001333F2B18D8D8
:102430001449C85CC0B2DCB211490C701249096879
:10244000C9B19A4203D300E00023D31A01E040321D
:10245000D31A1A2B0FDC00230B700CE04FF0FF3067
:1024600009E0084B1878C0B20021054B1970064BE3
:1024700019680029E8D15DF8044B7047CC8EFF1F26
:10248000618EFF1F8C8EFF1F5C8EFF1F094B1A7819
:10249000D2B2094B1B78DBB29A4207D00133402BF2
:1024A00028BF0023054AD05CC0B270474FF0FF3010
:1024B000704700BFCC8EFF1F618EFF1F8C8EFF1FE9
:1024C000054B1A78D2B2054B1A70054B1B680BB13D
:1024D00000221A70704700BF618EFF1FCC8EFF1F55
:1024E0005C8EFF1F2F4B1B7913F0200F23D02D4B39
:1024F000DB79D9B22C4B1B780133402B28BF00234A
:102500002A4A1278D2B29A4204D0294AD154D9B276
:10251000254A1170274A116869B1274A1278D2B248
:1025200093422EBFC2EB0303C2F140029B18272B3C
:10253000C4BF01230B701B4BDB78DBB213F0800FA1
:102540001CD0184A127912F0800F17D01B4A11784C
:10255000C9B2194A1278D2B2914203D16C21114A00
:10256000D1700BE00132282A28BF00221449885C70
:10257000C0B20C49C871D2B20F490A7013F0400FB3
:102580000ED0084B1B7913F0400F09D000220D4BE1
:102590001A700D4B1B6803B11A702C22014BDA70B4
:1025A000704700BF00C00640CC8EFF1F618EFF1F2A
:1025B0008C8EFF1F5C8EFF1FCD8EFF1FD48EFF1FE2
:1025C000648EFF1F608EFF1FD08EFF1F00B585B089
:1025D00072B61B4B70221A7041211A4A11700F21DA
:1025E000013A117080221A701A46137813F0800F86
:1025F000FBD0154B186862B6144B98429CBF00EB99
:102600008000400001A90A2200F012FA9DF804306F
:102610007BB908E001A9595C31B1918002320133E4
:102620000A2BF7D100E0002301335B00084A137046
:1026300003E0074A53800123ECE705B05DF804FB93
:102640000000024007000240080002407F96980008
:10265000F887FF1F08B503681B68C9B2984708BD13
:1026600008B503681B68C9B2984708BD08B5036878
:102670001B68C9B2984708BD08B503681B68C9B292
:10268000984708BD08B54B0803F1377000F5D840EE
:10269000B0FBF1F0FEF720FF08BD00BF10B51446F7
:1026A0004B0803F1377000F5D840B0FBF1F0FEF7AE
:1026B00013FF2046FEF756FF10BD00BF08B5FEF71A
:1026C00081FF08BD08B50846FEF7B6FF08BD00BF8C
:1026D00008B50846FEF7CCFF003018BF012008BD42
:1026E00008B50846FEF7E6FF003018BF012008BD18
:1026F00008B5FFF7DFF808BD08B5FFF725F908BDF5
:1027000008B5FFF7E7F808BD08B5FFF7B1F808BD51
:1027100008B5FFF733F908BD08B5FFF7B9F808BDEC
:1027200008B50846FEF7F2FF012008BD08B50846C7
:10273000FEF7ECFF012008BD10B51446084611460F
:10274000FFF734F8204610BD38B50D46084600F0B6
:10275000B9F9044628462146FFF728F8204638BD37
:10276000704700BF044B00221A714FF47A719960D0
:102770001A73024A1A607047D88EFF1F902D00000E
:1027800008B503681B68C9B2984708BD08B5036857
:102790001B68C9B2984708BD08B503681B68C9B271
:1027A000984708BD08B503681B68C9B2984708BDBB
:1027B00008B54B0803F1377000F5D840B0FBF1F0D5
:1027C000FFF792F908BD00BF10B514464B0803F19E
:1027D000377000F5D840B0FBF1F0FFF785F92046DF
:1027E000FFF7C8F910BD00BF08B5FFF7F3F908BD42
:1027F00008B50846FFF728FA08BD00BF08B5084627
:10280000FFF73EFA003018BF012008BD08B50846A2
:10281000FFF758FA003018BF012008BD08B5FFF7D0
:1028200047FB08BD08B5FFF78DFB08BD08B5FFF7EE
:102830004FFB08BD08B5FFF719FB08BD08B5FFF74A
:102840009BFB08BD08B5FFF721FB08BD08B508468E
:10285000FFF75AFA012008BD08B50846FFF754FAF9
:10286000012008BD10B5144608461146FFF79CFA32
:10287000204610BD38B50D46084600F023F9044641
:1028800028462146FFF790FA204638BD704700BF22
:10289000044B00221A714FF47A7199601A73024A3C
:1028A0001A607047E88EFF1FE82D000008B5036826
:1028B0001B68C9B2984708BD08B503681B68C9B250
:1028C000984708BD08B503681B68C9B2984708BD9A
:1028D00008B503681B68C9B2984708BD08B54B081E
:1028E00003F1377000F5D840B0FBF1F0FFF7FAFBC9
:1028F00008BD00BF10B514464B0803F1377000F552
:10290000D840B0FBF1F0FFF7EDFB2046FFF72CFCC1
:1029100010BD00BF08B5FFF757FC08BD08B5084655
:10292000FFF78CFC08BD00BF08B50846FFF7A2FC06
:10293000003018BF012008BD08B50846FFF7BCFCF1
:10294000003018BF012008BD08B5FFF755FD08BDD0
:1029500008B5FFF79BFD08BD08B5FFF75DFD08BD95
:1029600008B5FFF727FD08BD08B5FFF7A9FD08BDAD
:1029700008B5FFF72FFD08BD08B50846FFF7BEFCF8
:10298000012008BD08B50846FFF7B8FC012008BDC6
:1029900010B5144608461146FFF700FD204610BD4D
:1029A00038B50D46084600F08DF804462846214605
:1029B000FFF7F4FC204638BD704700BF044B0022EF
:1029C0001A714FF47A7199601A73024A1A6070474B
:1029D000F88EFF1F402E000008B5FEF789FB08BDEA
:1029E00008B5FEF739FB08BD08B5FEF761FB08BD69
:1029F00008B5FEF715FC08BD08B50846FEF704FC4F
:102A000008BD00BF08B508461146FEF77FFB08BDAC
:102A1000704700BF044B00221A714FF47A7199601D
:102A20001A73024A1A607047088FFF1F982E000021
:102A300030B40023B0FBF2F402FB14041D46092C51
:102A400094BF30343734E4B2CC54B0FBF2F008B168
:102A50000133EFE70D4400226A70934207DD885C82
:102A6000CC5C8C54C8540132013B9A42F7DB0846D7
:102A700030BC704770B50F4E0F4D761BB61007D0A7
:102A8000043D0024013455F8043F9847A642F9D18B
:102A90000A4E0B4D761B00F00FFAB61008D0043D1D
:102AA0000024013455F8043F9847A642F9D170BD7F
:102AB00070BD00BFC42E0000C42E0000DC2E00003C
:102AC000C42E000020F0030110F00300C0F100004C
:102AD00051F8043B00F1040C4FEACC0C6FF00002FB
:102AE0001CBF22FA0CF213434FF0010C4CEA0C2CE1
:102AF0004CEA0C4CA3EB0C0222EA030212EACC12C1
:102B000004BF51F8043B0430F4D013F0FF0F1FBF93
:102B1000013013F47F4F013013F47F0F18BF0130E1
:102B2000704700BF024B13B1024800F005B8704770
:102B300000000000452B000001460020024603462D
:102B400000F018B838B5094D094C641BA41018BF23
:102B500005EB840505D0013C55F8043D9847002C51
:102B6000F9D1BDE8384000F0B9B900BF000000005D
:102B700000000000F0B5274C2668D6F8484185B023
:102B80000746002C41D065681F2D1EDD224818B96C
:102B90004FF0FF3005B0F0BD4FF4C87003910292C2
:102BA0000193AFF300800399029A019B0446002829
:102BB000EED0D6F848512560002060600546C6F882
:102BC0004841C4F88801C4F88C013FB9AB1C00200F
:102BD0000135656044F8231005B0F0BD04EB8500B5
:102BE0004FF0010CC0F88820D4F888610CFA05F287
:102BF0001643022FC4F88861C0F80831E6D1D4F832
:102C00008C311A43C4F88C21E0E706F5A674C6F8A7
:102C10004841B8E7B42E0000000000004008FE4321
:102C200040A004404408FE4344A004400018FE4372
:102C300000C004403000FE43309004403400FE43A6
:102C4000349004401C18FE431CC004401018FE437E
:102C500010C004400818FE4308C004400C18FE438E
:102C60000CC004400C10FE430CB004401010FE4396
:102C700010B004401810FE4318B004401C10FE436E
:102C80001CB004401410FE4314B004400418FE436A
:102C900004C004400010FE4300B004400008FE439E
:102CA00000A004400408FE4304A004400C08FE43B6
:102CB0000CA004400808FE4308A004401418FE437A
:102CC00014C004401818FE4318C004400410FE430A
:102CD00004B004400810FE4308B004401400FE4352
:102CE000149004404C08FE434CA004400420FE43D2
:102CF00004D004402410FE4324B004402010FE43BE
:102D000020B004402810FE4328B004402C10FE439D
:102D10002CB004400020FE4300D004404808FE438D
:102D200048A004401000FE431090044000151915FF
:102D3000000100006C87FF1F12000000000200006D
:102D40009887FF1F4300000000030000F487FF1F67
:102D500000000000010309048087FF1F000000003D
:102D600002030904DC87FF1F0000000003030904BD
:102D7000F887FF1F000000000000000000000000B6
:102D800000000000FFFFFFFF000000000000000047
:102D90002127000039270000F1260000012700004C
:102DA000F926000009270000852600009D26000066
:102DB000BD260000C5260000D1260000E126000047
:102DC0001127000019270000552600006126000089
:102DD0006D26000079260000492700002D270000FD
:102DE00000000000000000004D28000065280000E1
:102DF0001D2800002D28000025280000352800008F
:102E0000B1270000C9270000E9270000F1270000D2
:102E1000FD2700000D2800003D2800004528000087
:102E2000812700008D27000099270000A5270000BA
:102E30007528000059280000000000000000000074
:102E40007929000091290000492900005929000032
:102E50005129000061290000DD280000F52800004C
:102E6000152900001D29000029290000392900002A
:102E70006929000071290000AD280000B928000070
:102E8000C5280000D1280000A129000085290000E4
:102E90000000000000000000F9290000052A0000E1
:102EA000D9290000E1290000E9290000F1290000EA
:102EB000430000001088FF1FF8B500BFF8BC08BC35
:102EC0009E467047252B0000350400006527000052
:0C2ED00091280000BD290000152A000018
:042EDC00F8B500BF86
:102EE0001C000000FFFFFFFF0A04000012010002A7
:102EF00002000040C016830400010102030100002B
:102F000018035400650065006E00730079006400CA
:102F1000750069006E006F0009024300020100C0E5
:102F2000320904000001020201000524001001051D
:102F3000240101010424020605240600010705827C
:102F40000310004009040100020A00000007050305
:102F500002400000070584024000000016035500EF
:102F600053004200200053006500720069006100B8
:102F70006C000000040309040C03000000000000C2
:102F80000000000000000000000000000000000041
:102F900000000000FC8AFF1F648BFF1FCC8BFF1F0B
:102FA0000000000000000000000000000000000021
:102FB0000000000000000000000000000000000011
:102FC00000000000B02E0000000000000000000023
:102FD00000000000000000000000000000000000F1
:102FE00000000000000000000000000000000000E1
:102FF00000000000000000000000000000000000D1
:1030000000000000000000000000000000000000C0
:1030100000000000000000000000000000000000B0
:1030200000000000000000000000000000000000A0
:10303000000000000000000001000000000000008F
:103040000E33CDAB34126DE6ECDE05000B00000054
:103050000000000000000000000000000000000070
:103060000000000000000000000000000000000060
:103070000000000000000000000000000000000050
:103080000000000000000000000000000000000040
:00000001FF
